Component: ARM Compiler 5.06 update 7 (build 960) Tool: armlink [4d3601]

==============================================================================

Section Cross References

    startup_n32g45x.o(RESET) refers to startup_n32g45x.o(STACK) for __initial_sp
    startup_n32g45x.o(RESET) refers to startup_n32g45x.o(.text) for Reset_Handler
    startup_n32g45x.o(RESET) refers to n32g45x_it.o(i.NMI_Handler) for NMI_Handler
    startup_n32g45x.o(RESET) refers to n32g45x_it.o(i.HardFault_Handler) for HardFault_Handler
    startup_n32g45x.o(RESET) refers to n32g45x_it.o(i.MemManage_Handler) for MemManage_Handler
    startup_n32g45x.o(RESET) refers to n32g45x_it.o(i.BusFault_Handler) for BusFault_Handler
    startup_n32g45x.o(RESET) refers to n32g45x_it.o(i.UsageFault_Handler) for UsageFault_Handler
    startup_n32g45x.o(RESET) refers to port.o(.emb_text) for SVC_Handler
    startup_n32g45x.o(RESET) refers to n32g45x_it.o(i.DebugMon_Handler) for DebugMon_Handler
    startup_n32g45x.o(RESET) refers to port.o(i.SysTick_Handler) for SysTick_Handler
    startup_n32g45x.o(.text) refers to system_n32g45x.o(i.SystemInit) for SystemInit
    startup_n32g45x.o(.text) refers to entry.o(.ARM.Collect$$$$00000000) for __main
    system_n32g45x.o(i.SetSysClock) refers to system_n32g45x.o(.data) for .data
    system_n32g45x.o(i.SystemCoreClockUpdate) refers to system_n32g45x.o(.data) for .data
    system_n32g45x.o(i.SystemCoreClockUpdate) refers to system_n32g45x.o(.constdata) for .constdata
    system_n32g45x.o(i.SystemInit) refers to system_n32g45x.o(i.SetSysClock) for SetSysClock
    misc.o(i.NVIC_Init) refers to main.o(i.assert_failed) for assert_failed
    misc.o(i.NVIC_Init) refers to misc.o(.conststring) for .conststring
==============================================================================

Removing Unused input sections from the image.

    Removing startup_n32g45x.o(HEAP), (768 bytes).
    Removing system_n32g45x.o(.rev16_text), (4 bytes).
    Removing system_n32g45x.o(.revsh_text), (4 bytes).
    Removing system_n32g45x.o(.rrx_text), (6 bytes).
    Removing system_n32g45x.o(i.SystemCoreClockUpdate), (116 bytes).
    Removing system_n32g45x.o(.constdata), (16 bytes).
    Removing misc.o(.rev16_text), (4 bytes).
    Removing misc.o(.revsh_text), (4 bytes).
    Removing misc.o(.rrx_text), (6 bytes).
    Removing misc.o(i.NVIC_Init), (272 bytes).
    Removing misc.o(i.NVIC_PriorityGroupConfig), (160 bytes).
    Removing misc.o(i.NVIC_SetVectorTable), (176 bytes).
    Removing misc.o(i.NVIC_SystemLPConfig), (172 bytes).
    Removing misc.o(i.SysTick_CLKSourceConfig), (128 bytes).
    Removing misc.o(.conststring), (146 bytes).
    Removing n32g45x_gpio.o(.rev16_text), (4 bytes).
    Removing n32g45x_gpio.o(.revsh_text), (4 bytes).
    Removing n32g45x_gpio.o(.rrx_text), (6 bytes).
==============================================================================

Image Symbol Table

    Local Symbols

    Symbol Name                              Value     Ov Type        Size  Object(Section)

    ../clib/../cmprslib/lz77c.c              0x00000000   Number         0  __dclz77c.o ABSOLUTE
    ../clib/microlib/division.c              0x00000000   Number         0  uidiv.o ABSOLUTE
    ../clib/microlib/division.c              0x00000000   Number         0  uldiv.o ABSOLUTE
    ../clib/microlib/errno.c                 0x00000000   Number         0  errno.o ABSOLUTE
    ../clib/microlib/init/entry.s            0x00000000   Number         0  entry12a.o ABSOLUTE
    ../clib/microlib/init/entry.s            0x00000000   Number         0  entry11b.o ABSOLUTE
    ../clib/microlib/init/entry.s            0x00000000   Number         0  entry10a.o ABSOLUTE
    ../clib/microlib/init/entry.s            0x00000000   Number         0  entry7b.o ABSOLUTE
    ../clib/microlib/init/entry.s            0x00000000   Number         0  entry8b.o ABSOLUTE
    ../clib/microlib/init/entry.s            0x00000000   Number         0  entry9a.o ABSOLUTE
    ../clib/microlib/init/entry.s            0x00000000   Number         0  entry2.o ABSOLUTE
    ../clib/microlib/init/entry.s            0x00000000   Number         0  entry5.o ABSOLUTE
    ../clib/microlib/init/entry.s            0x00000000   Number         0  entry9b.o ABSOLUTE
    ../clib/microlib/init/entry.s            0x00000000   Number         0  entry10b.o ABSOLUTE
    ../clib/microlib/init/entry.s            0x00000000   Number         0  entry7a.o ABSOLUTE
    ../clib/microlib/init/entry.s            0x00000000   Number         0  entry11a.o ABSOLUTE
    ../clib/microlib/init/entry.s            0x00000000   Number         0  entry.o ABSOLUTE
    ../clib/microlib/init/entry.s            0x00000000   Number         0  entry12b.o ABSOLUTE
    ../clib/microlib/init/entry.s            0x00000000   Number         0  entry8a.o ABSOLUTE
    ../clib/microlib/longlong.c              0x00000000   Number         0  llushr.o ABSOLUTE
    ../clib/microlib/longlong.c              0x00000000   Number         0  llshl.o ABSOLUTE
    ../clib/microlib/longlong.c              0x00000000   Number         0  llsshr.o ABSOLUTE
    ../clib/microlib/printf/printf.c         0x00000000   Number         0  printfb.o ABSOLUTE
    ../clib/microlib/printf/printf.c         0x00000000   Number         0  printfa.o ABSOLUTE
    ../clib/microlib/printf/printf.c         0x00000000   Number         0  printf8.o ABSOLUTE
    ../clib/microlib/printf/printf.c         0x00000000   Number         0  printf6.o ABSOLUTE
    ../clib/microlib/printf/printf.c         0x00000000   Number         0  printf2.o ABSOLUTE
    ../clib/microlib/printf/printf.c         0x00000000   Number         0  printf1.o ABSOLUTE
    ../clib/microlib/printf/printf.c         0x00000000   Number         0  printf0.o ABSOLUTE
    ../clib/microlib/printf/printf.c         0x00000000   Number         0  printf4.o ABSOLUTE
    ../clib/microlib/printf/printf.c         0x00000000   Number         0  printf3.o ABSOLUTE
    ../clib/microlib/printf/printf.c         0x00000000   Number         0  printf7.o ABSOLUTE
    ../clib/microlib/printf/printf.c         0x00000000   Number         0  printf5.o ABSOLUTE
    ../clib/microlib/printf/stubs.s          0x00000000   Number         0  stubs.o ABSOLUTE
    ../clib/microlib/stdio/streams.c         0x00000000   Number         0  stdout.o ABSOLUTE
    ../clib/microlib/string/memcmp.c         0x00000000   Number         0  memcmp.o ABSOLUTE
    ../clib/microlib/string/memcpy.c         0x00000000   Number         0  memcpyb.o ABSOLUTE
    ../clib/microlib/string/memcpy.c         0x00000000   Number         0  memcpya.o ABSOLUTE
    ../clib/microlib/string/memset.c         0x00000000   Number         0  memset.o ABSOLUTE
    ../clib/microlib/string/memset.c         0x00000000   Number         0  memseta.o ABSOLUTE
    ../clib/microlib/string/strcat.c         0x00000000   Number         0  strcat.o ABSOLUTE
    ../clib/microlib/string/strcmp.c         0x00000000   Number         0  strcmp.o ABSOLUTE
    ../clib/microlib/string/strcpy.c         0x00000000   Number         0  strcpy.o ABSOLUTE
    ../clib/microlib/string/strlen.c         0x00000000   Number         0  strlen.o ABSOLUTE
    ../clib/microlib/stubs.s                 0x00000000   Number         0  iusefp.o ABSOLUTE
    ../fplib/microlib/d2f.c                  0x00000000   Number         0  d2f.o ABSOLUTE
    ../fplib/microlib/f2d.c                  0x00000000   Number         0  f2d.o ABSOLUTE
    ../fplib/microlib/fpadd.c                0x00000000   Number         0  dadd.o ABSOLUTE
    ../fplib/microlib/fpdiv.c                0x00000000   Number         0  ddiv.o ABSOLUTE
    ../fplib/microlib/fpepilogue.c           0x00000000   Number         0  fepilogue.o ABSOLUTE
    ../fplib/microlib/fpepilogue.c           0x00000000   Number         0  depilogue.o ABSOLUTE
    ../fplib/microlib/fpfix.c                0x00000000   Number         0  dfixul.o ABSOLUTE
    ../fplib/microlib/fpflt.c                0x00000000   Number         0  dflti.o ABSOLUTE
    ../fplib/microlib/fpflt.c                0x00000000   Number         0  dfltui.o ABSOLUTE
    ../fplib/microlib/fpmul.c                0x00000000   Number         0  dmul.o ABSOLUTE
    ../fplib/microlib/fpneg.c                0x00000000   Number         0  dneg.o ABSOLUTE
    ../fplib/microlib/fpscalb.c              0x00000000   Number         0  dscalb.o ABSOLUTE
    ../fplib/microlib/fpsqrt.c               0x00000000   Number         0  dsqrt.o ABSOLUTE
    ../mathlib/dunder.c                      0x00000000   Number         0  dunder.o ABSOLUTE
    ../mathlib/fabs.c                        0x00000000   Number         0  fabs.o ABSOLUTE
    ../mathlib/fpclassify.c                  0x00000000   Number         0  fpclassify.o ABSOLUTE
    ../mathlib/log.c                         0x00000000   Number         0  log_x.o ABSOLUTE
    ../mathlib/log.c                         0x00000000   Number         0  log.o ABSOLUTE
    ../mathlib/log10.c                       0x00000000   Number         0  log10_x.o ABSOLUTE
    ../mathlib/log10.c                       0x00000000   Number         0  log10.o ABSOLUTE
    ../mathlib/poly.c                        0x00000000   Number         0  poly.o ABSOLUTE
    ../mathlib/pow.c                         0x00000000   Number         0  pow_x.o ABSOLUTE
    ../mathlib/pow.c                         0x00000000   Number         0  pow.o ABSOLUTE
    ../mathlib/qnan.c                        0x00000000   Number         0  qnan.o ABSOLUTE
    ../mathlib/sqrt.c                        0x00000000   Number         0  sqrt.o ABSOLUTE
    ../mathlib/sqrt.c                        0x00000000   Number         0  sqrt_x.o ABSOLUTE
    ..\FreeRTOS\FreeRTOS\Source\croutine.c   0x00000000   Number         0  croutine.o ABSOLUTE
    ..\FreeRTOS\FreeRTOS\Source\event_groups.c 0x00000000   Number         0  event_groups.o ABSOLUTE
    ..\FreeRTOS\FreeRTOS\Source\list.c       0x00000000   Number         0  list.o ABSOLUTE
    ..\FreeRTOS\FreeRTOS\Source\portable\MemMang\heap_4.c 0x00000000   Number         0  heap_4.o ABSOLUTE
    ..\FreeRTOS\FreeRTOS\Source\portable\RVDS\ARM_CM4F\port.c 0x00000000   Number         0  port.o ABSOLUTE
    ..\FreeRTOS\FreeRTOS\Source\queue.c      0x00000000   Number         0  queue.o ABSOLUTE
    ..\FreeRTOS\FreeRTOS\Source\stream_buffer.c 0x00000000   Number         0  stream_buffer.o ABSOLUTE
    ..\FreeRTOS\FreeRTOS\Source\tasks.c      0x00000000   Number         0  tasks.o ABSOLUTE
    ..\FreeRTOS\FreeRTOS\Source\timers.c     0x00000000   Number         0  timers.o ABSOLUTE
    ..\\FreeRTOS\\FreeRTOS\\Source\\portable\\RVDS\\ARM_CM4F\\port.c 0x00000000   Number         0  port.o ABSOLUTE
    ..\\firmware\\CMSIS\\device\\system_n32g45x.c 0x00000000   Number         0  system_n32g45x.o ABSOLUTE
    ..\\firmware\\n32g45x_std_periph_driver\\src\\misc.c 0x00000000   Number         0  misc.o ABSOLUTE
    ..\\firmware\\n32g45x_std_periph_driver\\src\\n32g45x_gpio.c 0x00000000   Number         0  n32g45x_gpio.o ABSOLUTE
    ..\\firmware\\n32g45x_std_periph_driver\\src\\n32g45x_i2c.c 0x00000000   Number         0  n32g45x_i2c.o ABSOLUTE
    ..\\firmware\\n32g45x_std_periph_driver\\src\\n32g45x_rcc.c 0x00000000   Number         0  n32g45x_rcc.o ABSOLUTE
    ..\\firmware\\n32g45x_std_periph_driver\\src\\n32g45x_spi.c 0x00000000   Number         0  n32g45x_spi.o ABSOLUTE
    ..\\firmware\\n32g45x_std_periph_driver\\src\\n32g45x_usart.c 0x00000000   Number         0  n32g45x_usart.o ABSOLUTE
    ..\\gui\\watch.c                         0x00000000   Number         0  watch.o ABSOLUTE
    ..\\hwdriver\\driver_htu21d.c            0x00000000   Number         0  driver_htu21d.o ABSOLUTE
    ..\\hwdriver\\driver_ili9341.c           0x00000000   Number         0  driver_ili9341.o ABSOLUTE
    ..\\src\\main.c                          0x00000000   Number         0  main.o ABSOLUTE
    ..\\src\\n32g45x_it.c                    0x00000000   Number         0  n32g45x_it.o ABSOLUTE
    ..\firmware\CMSIS\device\startup\startup_n32g45x.s 0x00000000   Number         0  startup_n32g45x.o ABSOLUTE
    ..\firmware\CMSIS\device\system_n32g45x.c 0x00000000   Number         0  system_n32g45x.o ABSOLUTE
    ..\firmware\n32g45x_std_periph_driver\src\misc.c 0x00000000   Number         0  misc.o ABSOLUTE
    ..\firmware\n32g45x_std_periph_driver\src\n32g45x_gpio.c 0x00000000   Number         0  n32g45x_gpio.o ABSOLUTE
    ..\firmware\n32g45x_std_periph_driver\src\n32g45x_i2c.c 0x00000000   Number         0  n32g45x_i2c.o ABSOLUTE
    ..\firmware\n32g45x_std_periph_driver\src\n32g45x_rcc.c 0x00000000   Number         0  n32g45x_rcc.o ABSOLUTE
    ..\firmware\n32g45x_std_periph_driver\src\n32g45x_spi.c 0x00000000   Number         0  n32g45x_spi.o ABSOLUTE
    ..\firmware\n32g45x_std_periph_driver\src\n32g45x_usart.c 0x00000000   Number         0  n32g45x_usart.o ABSOLUTE
    ..\gui\watch.c                           0x00000000   Number         0  watch.o ABSOLUTE
    ..\hwdriver\driver_htu21d.c              0x00000000   Number         0  driver_htu21d.o ABSOLUTE
    ..\hwdriver\driver_ili9341.c             0x00000000   Number         0  driver_ili9341.o ABSOLUTE
    ..\lvgl\demos\stress\lv_demo_stress.c    0x00000000   Number         0  lv_demo_stress.o ABSOLUTE
    ..\lvgl\n32g45x_porting\lv_port_disp.c   0x00000000   Number         0  lv_port_disp.o ABSOLUTE
    ..\lvgl\src\core\lv_disp.c               0x00000000   Number         0  lv_disp.o ABSOLUTE
    ..\lvgl\src\core\lv_event.c              0x00000000   Number         0  lv_event.o ABSOLUTE
    ..\lvgl\src\core\lv_group.c              0x00000000   Number         0  lv_group.o ABSOLUTE
    ..\lvgl\src\core\lv_indev.c              0x00000000   Number         0  lv_indev.o ABSOLUTE
    ..\lvgl\src\core\lv_indev_scroll.c       0x00000000   Number         0  lv_indev_scroll.o ABSOLUTE
    ..\lvgl\src\core\lv_obj.c                0x00000000   Number         0  lv_obj.o ABSOLUTE
    ..\lvgl\src\core\lv_obj_class.c          0x00000000   Number         0  lv_obj_class.o ABSOLUTE
    ..\lvgl\src\core\lv_obj_draw.c           0x00000000   Number         0  lv_obj_draw.o ABSOLUTE
    ..\lvgl\src\core\lv_obj_pos.c            0x00000000   Number         0  lv_obj_pos.o ABSOLUTE
    ..\lvgl\src\core\lv_obj_scroll.c         0x00000000   Number         0  lv_obj_scroll.o ABSOLUTE
    ..\lvgl\src\core\lv_obj_style.c          0x00000000   Number         0  lv_obj_style.o ABSOLUTE
    ..\lvgl\src\core\lv_obj_style_gen.c      0x00000000   Number         0  lv_obj_style_gen.o ABSOLUTE
    ..\lvgl\src\core\lv_obj_tree.c           0x00000000   Number         0  lv_obj_tree.o ABSOLUTE
    ..\lvgl\src\core\lv_refr.c               0x00000000   Number         0  lv_refr.o ABSOLUTE
    ..\lvgl\src\core\lv_theme.c              0x00000000   Number         0  lv_theme.o ABSOLUTE
    ..\lvgl\src\draw\lv_draw.c               0x00000000   Number         0  lv_draw.o ABSOLUTE
    ..\lvgl\src\draw\lv_draw_arc.c           0x00000000   Number         0  lv_draw_arc.o ABSOLUTE
    ..\lvgl\src\draw\lv_draw_img.c           0x00000000   Number         0  lv_draw_img.o ABSOLUTE
    ..\lvgl\src\draw\lv_draw_label.c         0x00000000   Number         0  lv_draw_label.o ABSOLUTE
    ..\lvgl\src\draw\lv_draw_layer.c         0x00000000   Number         0  lv_draw_layer.o ABSOLUTE
    ..\lvgl\src\draw\lv_draw_line.c          0x00000000   Number         0  lv_draw_line.o ABSOLUTE
    ..\lvgl\src\draw\lv_draw_mask.c          0x00000000   Number         0  lv_draw_mask.o ABSOLUTE
    ..\lvgl\src\draw\lv_draw_rect.c          0x00000000   Number         0  lv_draw_rect.o ABSOLUTE
    ..\lvgl\src\draw\lv_draw_transform.c     0x00000000   Number         0  lv_draw_transform.o ABSOLUTE
    ..\lvgl\src\draw\lv_draw_triangle.c      0x00000000   Number         0  lv_draw_triangle.o ABSOLUTE
    ..\lvgl\src\draw\lv_img_buf.c            0x00000000   Number         0  lv_img_buf.o ABSOLUTE
    ..\lvgl\src\draw\lv_img_cache.c          0x00000000   Number         0  lv_img_cache.o ABSOLUTE
    ..\lvgl\src\draw\lv_img_cache_builtin.c  0x00000000   Number         0  lv_img_cache_builtin.o ABSOLUTE
    ..\lvgl\src\draw\lv_img_decoder.c        0x00000000   Number         0  lv_img_decoder.o ABSOLUTE
    ..\lvgl\src\draw\sw\lv_draw_sw.c         0x00000000   Number         0  lv_draw_sw.o ABSOLUTE
    ..\lvgl\src\draw\sw\lv_draw_sw_arc.c     0x00000000   Number         0  lv_draw_sw_arc.o ABSOLUTE
    ..\lvgl\src\draw\sw\lv_draw_sw_blend.c   0x00000000   Number         0  lv_draw_sw_blend.o ABSOLUTE
    ..\lvgl\src\draw\sw\lv_draw_sw_dither.c  0x00000000   Number         0  lv_draw_sw_dither.o ABSOLUTE
    ..\lvgl\src\draw\sw\lv_draw_sw_gradient.c 0x00000000   Number         0  lv_draw_sw_gradient.o ABSOLUTE
    ..\lvgl\src\draw\sw\lv_draw_sw_img.c     0x00000000   Number         0  lv_draw_sw_img.o ABSOLUTE
    ..\lvgl\src\draw\sw\lv_draw_sw_layer.c   0x00000000   Number         0  lv_draw_sw_layer.o ABSOLUTE
    ..\lvgl\src\draw\sw\lv_draw_sw_letter.c  0x00000000   Number         0  lv_draw_sw_letter.o ABSOLUTE
    ..\lvgl\src\draw\sw\lv_draw_sw_line.c    0x00000000   Number         0  lv_draw_sw_line.o ABSOLUTE
    ..\lvgl\src\draw\sw\lv_draw_sw_polygon.c 0x00000000   Number         0  lv_draw_sw_polygon.o ABSOLUTE
    ..\lvgl\src\draw\sw\lv_draw_sw_rect.c    0x00000000   Number         0  lv_draw_sw_rect.o ABSOLUTE
    ..\lvgl\src\draw\sw\lv_draw_sw_transform.c 0x00000000   Number         0  lv_draw_sw_transform.o ABSOLUTE
    ..\lvgl\src\font\lv_font.c               0x00000000   Number         0  lv_font.o ABSOLUTE
    ..\lvgl\src\font\lv_font_dejavu_16_persian_hebrew.c 0x00000000   Number         0  lv_font_dejavu_16_persian_hebrew.o ABSOLUTE
    ..\lvgl\src\font\lv_font_fmt_txt.c       0x00000000   Number         0  lv_font_fmt_txt.o ABSOLUTE
    ..\lvgl\src\font\lv_font_loader.c        0x00000000   Number         0  lv_font_loader.o ABSOLUTE
    ..\lvgl\src\font\lv_font_montserrat_10.c 0x00000000   Number         0  lv_font_montserrat_10.o ABSOLUTE
    ..\lvgl\src\font\lv_font_montserrat_12.c 0x00000000   Number         0  lv_font_montserrat_12.o ABSOLUTE
    ..\lvgl\src\font\lv_font_montserrat_12_subpx.c 0x00000000   Number         0  lv_font_montserrat_12_subpx.o ABSOLUTE
    ..\lvgl\src\font\lv_font_montserrat_14.c 0x00000000   Number         0  lv_font_montserrat_14.o ABSOLUTE
    ..\lvgl\src\font\lv_font_montserrat_16.c 0x00000000   Number         0  lv_font_montserrat_16.o ABSOLUTE
    ..\lvgl\src\font\lv_font_montserrat_18.c 0x00000000   Number         0  lv_font_montserrat_18.o ABSOLUTE
    ..\lvgl\src\font\lv_font_montserrat_20.c 0x00000000   Number         0  lv_font_montserrat_20.o ABSOLUTE
    ..\lvgl\src\font\lv_font_montserrat_22.c 0x00000000   Number         0  lv_font_montserrat_22.o ABSOLUTE
    ..\lvgl\src\font\lv_font_montserrat_24.c 0x00000000   Number         0  lv_font_montserrat_24.o ABSOLUTE
    ..\lvgl\src\font\lv_font_montserrat_26.c 0x00000000   Number         0  lv_font_montserrat_26.o ABSOLUTE
    ..\lvgl\src\font\lv_font_montserrat_28.c 0x00000000   Number         0  lv_font_montserrat_28.o ABSOLUTE
    ..\lvgl\src\font\lv_font_montserrat_28_compressed.c 0x00000000   Number         0  lv_font_montserrat_28_compressed.o ABSOLUTE
    ..\lvgl\src\font\lv_font_montserrat_30.c 0x00000000   Number         0  lv_font_montserrat_30.o ABSOLUTE
    ..\lvgl\src\font\lv_font_montserrat_32.c 0x00000000   Number         0  lv_font_montserrat_32.o ABSOLUTE
    ..\lvgl\src\font\lv_font_montserrat_34.c 0x00000000   Number         0  lv_font_montserrat_34.o ABSOLUTE
    ..\lvgl\src\font\lv_font_montserrat_36.c 0x00000000   Number         0  lv_font_montserrat_36.o ABSOLUTE
    ..\lvgl\src\font\lv_font_montserrat_38.c 0x00000000   Number         0  lv_font_montserrat_38.o ABSOLUTE
    ..\lvgl\src\font\lv_font_montserrat_40.c 0x00000000   Number         0  lv_font_montserrat_40.o ABSOLUTE
    ..\lvgl\src\font\lv_font_montserrat_42.c 0x00000000   Number         0  lv_font_montserrat_42.o ABSOLUTE
    ..\lvgl\src\font\lv_font_montserrat_44.c 0x00000000   Number         0  lv_font_montserrat_44.o ABSOLUTE
    ..\lvgl\src\font\lv_font_montserrat_46.c 0x00000000   Number         0  lv_font_montserrat_46.o ABSOLUTE
    ..\lvgl\src\font\lv_font_montserrat_48.c 0x00000000   Number         0  lv_font_montserrat_48.o ABSOLUTE
    ..\lvgl\src\font\lv_font_montserrat_8.c  0x00000000   Number         0  lv_font_montserrat_8.o ABSOLUTE
    ..\lvgl\src\font\lv_font_simsun_16_cjk.c 0x00000000   Number         0  lv_font_simsun_16_cjk.o ABSOLUTE
    ..\lvgl\src\font\lv_font_unscii_16.c     0x00000000   Number         0  lv_font_unscii_16.o ABSOLUTE
    ..\lvgl\src\font\lv_font_unscii_8.c      0x00000000   Number         0  lv_font_unscii_8.o ABSOLUTE
    ..\lvgl\src\hal\lv_hal_disp.c            0x00000000   Number         0  lv_hal_disp.o ABSOLUTE
    ..\lvgl\src\hal\lv_hal_indev.c           0x00000000   Number         0  lv_hal_indev.o ABSOLUTE
    ..\lvgl\src\hal\lv_hal_tick.c            0x00000000   Number         0  lv_hal_tick.o ABSOLUTE
    ..\lvgl\src\layouts\flex\lv_flex.c       0x00000000   Number         0  lv_flex.o ABSOLUTE
    ..\lvgl\src\layouts\grid\lv_grid.c       0x00000000   Number         0  lv_grid.o ABSOLUTE
    ..\lvgl\src\misc\lv_anim.c               0x00000000   Number         0  lv_anim.o ABSOLUTE
    ..\lvgl\src\misc\lv_anim_timeline.c      0x00000000   Number         0  lv_anim_timeline.o ABSOLUTE
    ..\lvgl\src\misc\lv_area.c               0x00000000   Number         0  lv_area.o ABSOLUTE
    ..\lvgl\src\misc\lv_async.c              0x00000000   Number         0  lv_async.o ABSOLUTE
    ..\lvgl\src\misc\lv_bidi.c               0x00000000   Number         0  lv_bidi.o ABSOLUTE
    ..\lvgl\src\misc\lv_color.c              0x00000000   Number         0  lv_color.o ABSOLUTE
    ..\lvgl\src\misc\lv_fs.c                 0x00000000   Number         0  lv_fs.o ABSOLUTE
    ..\lvgl\src\misc\lv_gc.c                 0x00000000   Number         0  lv_gc.o ABSOLUTE
    ..\lvgl\src\misc\lv_ll.c                 0x00000000   Number         0  lv_ll.o ABSOLUTE
    ..\lvgl\src\misc\lv_log.c                0x00000000   Number         0  lv_log.o ABSOLUTE
    ..\lvgl\src\misc\lv_lru.c                0x00000000   Number         0  lv_lru.o ABSOLUTE
    ..\lvgl\src\misc\lv_malloc_builtin.c     0x00000000   Number         0  lv_malloc_builtin.o ABSOLUTE
    ..\lvgl\src\misc\lv_math.c               0x00000000   Number         0  lv_math.o ABSOLUTE
    ..\lvgl\src\misc\lv_mem.c                0x00000000   Number         0  lv_mem.o ABSOLUTE
    ..\lvgl\src\misc\lv_memcpy_builtin.c     0x00000000   Number         0  lv_memcpy_builtin.o ABSOLUTE
    ..\lvgl\src\misc\lv_printf.c             0x00000000   Number         0  lv_printf.o ABSOLUTE
    ..\lvgl\src\misc\lv_style.c              0x00000000   Number         0  lv_style.o ABSOLUTE
    ..\lvgl\src\misc\lv_style_gen.c          0x00000000   Number         0  lv_style_gen.o ABSOLUTE
    ..\lvgl\src\misc\lv_templ.c              0x00000000   Number         0  lv_templ.o ABSOLUTE
    ..\lvgl\src\misc\lv_timer.c              0x00000000   Number         0  lv_timer.o ABSOLUTE
    ..\lvgl\src\misc\lv_tlsf.c               0x00000000   Number         0  lv_tlsf.o ABSOLUTE
    ..\lvgl\src\misc\lv_txt.c                0x00000000   Number         0  lv_txt.o ABSOLUTE
    ..\lvgl\src\misc\lv_txt_ap.c             0x00000000   Number         0  lv_txt_ap.o ABSOLUTE
    ..\lvgl\src\misc\lv_utils.c              0x00000000   Number         0  lv_utils.o ABSOLUTE
    ..\lvgl\src\themes\basic\lv_theme_basic.c 0x00000000   Number         0  lv_theme_basic.o ABSOLUTE
    ..\lvgl\src\themes\default\lv_theme_default.c 0x00000000   Number         0  lv_theme_default.o ABSOLUTE
    ..\lvgl\src\themes\mono\lv_theme_mono.c  0x00000000   Number         0  lv_theme_mono.o ABSOLUTE
    ..\lvgl\src\widgets\animimg\lv_animimg.c 0x00000000   Number         0  lv_animimg.o ABSOLUTE
    ..\lvgl\src\widgets\arc\lv_arc.c         0x00000000   Number         0  lv_arc.o ABSOLUTE
    ..\lvgl\src\widgets\bar\lv_bar.c         0x00000000   Number         0  lv_bar.o ABSOLUTE
    ..\lvgl\src\widgets\btn\lv_btn.c         0x00000000   Number         0  lv_btn.o ABSOLUTE
    ..\lvgl\src\widgets\btnmatrix\lv_btnmatrix.c 0x00000000   Number         0  lv_btnmatrix.o ABSOLUTE
    ..\lvgl\src\widgets\calendar\lv_calendar.c 0x00000000   Number         0  lv_calendar.o ABSOLUTE
    ..\lvgl\src\widgets\calendar\lv_calendar_header_arrow.c 0x00000000   Number         0  lv_calendar_header_arrow.o ABSOLUTE
    ..\lvgl\src\widgets\calendar\lv_calendar_header_dropdown.c 0x00000000   Number         0  lv_calendar_header_dropdown.o ABSOLUTE
    ..\lvgl\src\widgets\canvas\lv_canvas.c   0x00000000   Number         0  lv_canvas.o ABSOLUTE
    ..\lvgl\src\widgets\chart\lv_chart.c     0x00000000   Number         0  lv_chart.o ABSOLUTE
    ..\lvgl\src\widgets\checkbox\lv_checkbox.c 0x00000000   Number         0  lv_checkbox.o ABSOLUTE
    ..\lvgl\src\widgets\colorwheel\lv_colorwheel.c 0x00000000   Number         0  lv_colorwheel.o ABSOLUTE
    ..\lvgl\src\widgets\dropdown\lv_dropdown.c 0x00000000   Number         0  lv_dropdown.o ABSOLUTE
    ..\lvgl\src\widgets\img\lv_img.c         0x00000000   Number         0  lv_img.o ABSOLUTE
    ..\lvgl\src\widgets\imgbtn\lv_imgbtn.c   0x00000000   Number         0  lv_imgbtn.o ABSOLUTE
    ..\lvgl\src\widgets\keyboard\lv_keyboard.c 0x00000000   Number         0  lv_keyboard.o ABSOLUTE
    ..\lvgl\src\widgets\label\lv_label.c     0x00000000   Number         0  lv_label.o ABSOLUTE
    ..\lvgl\src\widgets\led\lv_led.c         0x00000000   Number         0  lv_led.o ABSOLUTE
    ..\lvgl\src\widgets\line\lv_line.c       0x00000000   Number         0  lv_line.o ABSOLUTE
    ..\lvgl\src\widgets\list\lv_list.c       0x00000000   Number         0  lv_list.o ABSOLUTE
    ..\lvgl\src\widgets\menu\lv_menu.c       0x00000000   Number         0  lv_menu.o ABSOLUTE
    ..\lvgl\src\widgets\meter\lv_meter.c     0x00000000   Number         0  lv_meter.o ABSOLUTE
    ..\lvgl\src\widgets\msgbox\lv_msgbox.c   0x00000000   Number         0  lv_msgbox.o ABSOLUTE
    ..\lvgl\src\widgets\objx_templ\lv_objx_templ.c 0x00000000   Number         0  lv_objx_templ.o ABSOLUTE
    ..\lvgl\src\widgets\roller\lv_roller.c   0x00000000   Number         0  lv_roller.o ABSOLUTE
    ..\lvgl\src\widgets\slider\lv_slider.c   0x00000000   Number         0  lv_slider.o ABSOLUTE
    ..\lvgl\src\widgets\span\lv_span.c       0x00000000   Number         0  lv_span.o ABSOLUTE
    ..\lvgl\src\widgets\spinbox\lv_spinbox.c 0x00000000   Number         0  lv_spinbox.o ABSOLUTE
    ..\lvgl\src\widgets\spinner\lv_spinner.c 0x00000000   Number         0  lv_spinner.o ABSOLUTE
    ..\lvgl\src\widgets\switch\lv_switch.c   0x00000000   Number         0  lv_switch.o ABSOLUTE
    ..\lvgl\src\widgets\table\lv_table.c     0x00000000   Number         0  lv_table.o ABSOLUTE
    ..\lvgl\src\widgets\tabview\lv_tabview.c 0x00000000   Number         0  lv_tabview.o ABSOLUTE
    ..\lvgl\src\widgets\textarea\lv_textarea.c 0x00000000   Number         0  lv_textarea.o ABSOLUTE
    ..\lvgl\src\widgets\tileview\lv_tileview.c 0x00000000   Number         0  lv_tileview.o ABSOLUTE
    ..\lvgl\src\widgets\win\lv_win.c         0x00000000   Number         0  lv_win.o ABSOLUTE
    ..\service\cloud_service\cloud.c         0x00000000   Number         0  cloud.o ABSOLUTE
    ..\service\sensor_service\sensor.c       0x00000000   Number         0  sensor.o ABSOLUTE
    ..\service\sensor_service\virtual_sensor\virtual_sensor.c 0x00000000   Number         0  virtual_sensor.o ABSOLUTE
    ..\src\main.c                            0x00000000   Number         0  main.o ABSOLUTE
    ..\src\n32g45x_it.c                      0x00000000   Number         0  n32g45x_it.o ABSOLUTE
    cdcmple.s                                0x00000000   Number         0  cdcmple.o ABSOLUTE
    cdrcmple.s                               0x00000000   Number         0  cdrcmple.o ABSOLUTE
    dc.s                                     0x00000000   Number         0  dc.o ABSOLUTE
    handlers.s                               0x00000000   Number         0  handlers.o ABSOLUTE
    init.s                                   0x00000000   Number         0  init.o ABSOLUTE
    RESET                                    0x08000000   Section      408  startup_n32g45x.o(RESET)
    .ARM.Collect$$$$00000000                 0x08000198   Section        0  entry.o(.ARM.Collect$$$$00000000)
    .ARM.Collect$$$$00000001                 0x08000198   Section        4  entry2.o(.ARM.Collect$$$$00000001)
    .ARM.Collect$$$$00000004                 0x0800019c   Section        4  entry5.o(.ARM.Collect$$$$00000004)
    .ARM.Collect$$$$00000008                 0x080001a0   Section        0  entry7b.o(.ARM.Collect$$$$00000008)
    .ARM.Collect$$$$0000000A                 0x080001a0   Section        0  entry8b.o(.ARM.Collect$$$$0000000A)
    .ARM.Collect$$$$0000000B                 0x080001a0   Section        8  entry9a.o(.ARM.Collect$$$$0000000B)
    .ARM.Collect$$$$0000000E                 0x080001a8   Section        4  entry12b.o(.ARM.Collect$$$$0000000E)
    .ARM.Collect$$$$0000000F                 0x080001ac   Section        0  entry10a.o(.ARM.Collect$$$$0000000F)
    .ARM.Collect$$$$00000011                 0x080001ac   Section        0  entry11a.o(.ARM.Collect$$$$00000011)
    .ARM.Collect$$$$00002712                 0x080001ac   Section        4  entry2.o(.ARM.Collect$$$$00002712)
    __lit__00000000                          0x080001ac   Data           4  entry2.o(.ARM.Collect$$$$00002712)
    .emb_text                                0x080001b0   Section      190  port.o(.emb_text)
    $v0                                      0x080001b0   Number         0  port.o(.emb_text)
    .text                                    0x08000270   Section       36  startup_n32g45x.o(.text)
    $v0                                      0x08000270   Number         0  startup_n32g45x.o(.text)
    RESERVE48_IRQHandler                     0x0800028b   Thumb Code     0  startup_n32g45x.o(.text)
    .text                                    0x08000294   Section        0  uldiv.o(.text)
    .text                                    0x080002f6   Section        0  memcpya.o(.text)
    .text                                    0x0800031a   Section        0  memseta.o(.text)
    .text                                    0x0800033e   Section        0  strlen.o(.text)
    .text                                    0x0800034c   Section        0  strcmp.o(.text)
    .text                                    0x08000368   Section        0  strcpy.o(.text)
    .text                                    0x0800037a   Section        0  dadd.o(.text)
    .text                                    0x080004c8   Section        0  dmul.o(.text)
    .text                                    0x080005ac   Section        0  ddiv.o(.text)
    .text                                    0x0800068a   Section        0  dfltui.o(.text)
    .text                                    0x080006a4   Section        0  f2d.o(.text)
    .text                                    0x080006ca   Section        0  d2f.o(.text)
    .text                                    0x08000702   Section        0  uidiv.o(.text)
    .text                                    0x0800072e   Section        0  llshl.o(.text)
    .text                                    0x0800074c   Section        0  llushr.o(.text)
    .text                                    0x0800076c   Section        0  llsshr.o(.text)
    .text                                    0x08000790   Section        0  fepilogue.o(.text)
    .text                                    0x08000790   Section        0  iusefp.o(.text)
    .text                                    0x080007fe   Section        0  depilogue.o(.text)
    .text                                    0x080008b8   Section        0  dfixul.o(.text)
    .text                                    0x080008e8   Section       48  cdrcmple.o(.text)
    .text                                    0x08000918   Section       36  init.o(.text)
    .text                                    0x0800093c   Section        0  __dclz77c.o(.text)
    i.BusFault_Handler                       0x0800099a   Section        0  n32g45x_it.o(i.BusFault_Handler)
    i.CommTimeOut_CallBack                   0x0800099c   Section        0  driver_htu21d.o(i.CommTimeOut_CallBack)
    i.DebugMon_Handler                       0x080009b4   Section        0  n32g45x_it.o(i.DebugMon_Handler)
    i.GPIO_ConfigPinRemap                    0x080009b8   Section        0  n32g45x_gpio.o(i.GPIO_ConfigPinRemap)
    i.GPIO_Configuration                     0x08000f48   Section        0  main.o(i.GPIO_Configuration)
    i.GPIO_InitPeripheral                    0x08000f84   Section        0  n32g45x_gpio.o(i.GPIO_InitPeripheral)
    i.GPIO_ResetBits                         0x080011a8   Section        0  n32g45x_gpio.o(i.GPIO_ResetBits)
    i.GPIO_SetBits                           0x08001280   Section        0  n32g45x_gpio.o(i.GPIO_SetBits)
    i.HardFault_Handler                      0x08001358   Section        0  n32g45x_it.o(i.HardFault_Handler)
    i.I2C_CheckEvent                         0x0800135c   Section        0  n32g45x_i2c.o(i.I2C_CheckEvent)
    i.I2C_ConfigAck                          0x080014c0   Section        0  n32g45x_i2c.o(i.I2C_ConfigAck)
    i.I2C_DeInit                             0x08001588   Section        0  n32g45x_i2c.o(i.I2C_DeInit)
    i.I2C_Enable                             0x08001624   Section        0  n32g45x_i2c.o(i.I2C_Enable)
    i.I2C_GenerateStart                      0x080016ec   Section        0  n32g45x_i2c.o(i.I2C_GenerateStart)
    i.I2C_GenerateStop                       0x080017b4   Section        0  n32g45x_i2c.o(i.I2C_GenerateStop)
    i.I2C_GetFlag                            0x0800187c   Section        0  n32g45x_i2c.o(i.I2C_GetFlag)
    i.I2C_Init                               0x080019fc   Section        0  n32g45x_i2c.o(i.I2C_Init)
    i.I2C_RecvData                           0x08001cf4   Section        0  n32g45x_i2c.o(i.I2C_RecvData)
    i.I2C_SendAddr7bit                       0x08001d80   Section        0  n32g45x_i2c.o(i.I2C_SendAddr7bit)
    i.I2C_SendData                           0x08001e48   Section        0  n32g45x_i2c.o(i.I2C_SendData)
    i.LCD_Clear                              0x08001ed4   Section        0  driver_ili9341.o(i.LCD_Clear)
    i.LCD_DrawPoint_Color                    0x08001f38   Section        0  driver_ili9341.o(i.LCD_DrawPoint_Color)
    i.LCD_GPIOInit                           0x08001f4c   Section        0  driver_ili9341.o(i.LCD_GPIOInit)
    i.LCD_Init                               0x08001f94   Section        0  driver_ili9341.o(i.LCD_Init)
    i.LCD_RESET                              0x08002234   Section        0  driver_ili9341.o(i.LCD_RESET)
    i.LCD_SetCursor                          0x0800225c   Section        0  driver_ili9341.o(i.LCD_SetCursor)
    i.LCD_SetWindows                         0x08002264   Section        0  driver_ili9341.o(i.LCD_SetWindows)
    i.LCD_WR_DATA                            0x080022c0   Section        0  driver_ili9341.o(i.LCD_WR_DATA)
    i.LCD_WR_REG                             0x080022f4   Section        0  driver_ili9341.o(i.LCD_WR_REG)
    i.LCD_WriteRAM_Prepare                   0x08002324   Section        0  driver_ili9341.o(i.LCD_WriteRAM_Prepare)
    i.LCD_WriteReg                           0x08002330   Section        0  driver_ili9341.o(i.LCD_WriteReg)
    i.LCD_direction                          0x08002344   Section        0  driver_ili9341.o(i.LCD_direction)
    i.Lcd_WriteData_16Bit                    0x08002390   Section        0  driver_ili9341.o(i.Lcd_WriteData_16Bit)
    i.MemManage_Handler                      0x080023c8   Section        0  n32g45x_it.o(i.MemManage_Handler)
    i.NMI_Handler                            0x080023ca   Section        0  n32g45x_it.o(i.NMI_Handler)
    i.RCC_Configuration                      0x080023cc   Section        0  main.o(i.RCC_Configuration)
    i.RCC_EnableAPB1PeriphClk                0x080023e4   Section        0  n32g45x_rcc.o(i.RCC_EnableAPB1PeriphClk)
    i.RCC_EnableAPB1PeriphReset              0x080024a0   Section        0  n32g45x_rcc.o(i.RCC_EnableAPB1PeriphReset)
    i.RCC_EnableAPB2PeriphClk                0x0800255c   Section        0  n32g45x_rcc.o(i.RCC_EnableAPB2PeriphClk)
    i.RCC_GetClocksFreqValue                 0x08002618   Section        0  n32g45x_rcc.o(i.RCC_GetClocksFreqValue)
    i.SPI2_Init                              0x080026d4   Section        0  driver_ili9341.o(i.SPI2_Init)
    i.SPI_Enable                             0x0800278c   Section        0  n32g45x_spi.o(i.SPI_Enable)
    i.SPI_I2S_GetStatus                      0x08002848   Section        0  n32g45x_spi.o(i.SPI_I2S_GetStatus)
    i.SPI_I2S_ReceiveData                    0x08002924   Section        0  n32g45x_spi.o(i.SPI_I2S_ReceiveData)
    i.SPI_I2S_TransmitData                   0x080029a4   Section        0  n32g45x_spi.o(i.SPI_I2S_TransmitData)
    i.SPI_Init                               0x08002a24   Section        0  n32g45x_spi.o(i.SPI_Init)
    i.SetSysClock                            0x08002d24   Section        0  system_n32g45x.o(i.SetSysClock)
    SetSysClock                              0x08002d25   Thumb Code   182  system_n32g45x.o(i.SetSysClock)
    i.SysTick_Handler                        0x08002df4   Section        0  port.o(i.SysTick_Handler)
    i.SystemInit                             0x08002e20   Section        0  system_n32g45x.o(i.SystemInit)
    i.USART_Enable                           0x08002eb4   Section        0  n32g45x_usart.o(i.USART_Enable)
    i.USART_GetFlagStatus                    0x08002fa4   Section        0  n32g45x_usart.o(i.USART_GetFlagStatus)
    i.USART_Init                             0x080030f0   Section        0  n32g45x_usart.o(i.USART_Init)
    i.USART_SendData                         0x080033fc   Section        0  n32g45x_usart.o(i.USART_SendData)
    i.UsageFault_Handler                     0x080034dc   Section        0  n32g45x_it.o(i.UsageFault_Handler)
    i.__0printf                              0x080034e0   Section        0  printfa.o(i.__0printf)
    i.__scatterload_copy                     0x08003500   Section       14  handlers.o(i.__scatterload_copy)
    i.__scatterload_null                     0x0800350e   Section        2  handlers.o(i.__scatterload_null)
    i.__scatterload_zeroinit                 0x08003510   Section       14  handlers.o(i.__scatterload_zeroinit)
    i._atoi                                  0x0800351e   Section        0  lv_printf.o(i._atoi)
    _atoi                                    0x0800351f   Thumb Code    46  lv_printf.o(i._atoi)
    i._fp_digits                             0x0800354c   Section        0  printfa.o(i._fp_digits)
    _fp_digits                               0x0800354d   Thumb Code   366  printfa.o(i._fp_digits)
    i._is_digit                              0x080036d0   Section        0  lv_printf.o(i._is_digit)
    _is_digit                                0x080036d1   Thumb Code    14  lv_printf.o(i._is_digit)
    i._lv_anim_core_init                     0x080036e0   Section        0  lv_anim.o(i._lv_anim_core_init)
    i._lv_area_intersect                     0x08003710   Section        0  lv_area.o(i._lv_area_intersect)
    i._lv_area_is_in                         0x08003760   Section        0  lv_area.o(i._lv_area_is_in)
    i._lv_area_is_on                         0x08003808   Section        0  lv_area.o(i._lv_area_is_on)
    i._lv_area_is_out                        0x08003840   Section        0  lv_area.o(i._lv_area_is_out)
    i._lv_area_is_point_on                   0x080038e0   Section        0  lv_area.o(i._lv_area_is_point_on)
    i._lv_area_join                          0x08003a06   Section        0  lv_area.o(i._lv_area_join)
    i._lv_disp_refr_timer                    0x08003a4c   Section        0  lv_refr.o(i._lv_disp_refr_timer)
    i._lv_draw_mask_cleanup                  0x08003b40   Section        0  lv_draw_mask.o(i._lv_draw_mask_cleanup)
    i._lv_event_mark_deleted                 0x08003b70   Section        0  lv_event.o(i._lv_event_mark_deleted)
    i._lv_font_clean_up_fmt_txt              0x08003b98   Section        0  lv_font_fmt_txt.o(i._lv_font_clean_up_fmt_txt)
    i._lv_fs_init                            0x08003b9c   Section        0  lv_fs.o(i._lv_fs_init)
    i._lv_group_init                         0x08003ba8   Section        0  lv_group.o(i._lv_group_init)
    i._lv_img_buf_get_transformed_area       0x08003bb4   Section        0  lv_img_buf.o(i._lv_img_buf_get_transformed_area)
    i._lv_img_cache_builtin_init             0x08003d20   Section        0  lv_img_cache_builtin.o(i._lv_img_cache_builtin_init)
    i._lv_img_cache_open                     0x08003d48   Section        0  lv_img_cache.o(i._lv_img_cache_open)
    i._lv_img_cache_open_builtin             0x08003d58   Section        0  lv_img_cache_builtin.o(i._lv_img_cache_open_builtin)
    _lv_img_cache_open_builtin               0x08003d59   Thumb Code    82  lv_img_cache_builtin.o(i._lv_img_cache_open_builtin)
    i._lv_img_decoder_init                   0x08003db0   Section        0  lv_img_decoder.o(i._lv_img_decoder_init)
    i._lv_inv_area                           0x08003de8   Section        0  lv_refr.o(i._lv_inv_area)
    i._lv_ll_clear                           0x08003eb2   Section        0  lv_ll.o(i._lv_ll_clear)
    i._lv_ll_get_head                        0x08003ede   Section        0  lv_ll.o(i._lv_ll_get_head)
    i._lv_ll_get_len                         0x08003ee6   Section        0  lv_ll.o(i._lv_ll_get_len)
    i._lv_ll_get_next                        0x08003f02   Section        0  lv_ll.o(i._lv_ll_get_next)
    i._lv_ll_get_prev                        0x08003f0a   Section        0  lv_ll.o(i._lv_ll_get_prev)
    i._lv_ll_get_tail                        0x08003f10   Section        0  lv_ll.o(i._lv_ll_get_tail)
    i._lv_ll_init                            0x08003f18   Section        0  lv_ll.o(i._lv_ll_init)
    i._lv_ll_ins_head                        0x08003f28   Section        0  lv_ll.o(i._lv_ll_ins_head)
    i._lv_ll_ins_tail                        0x08003f64   Section        0  lv_ll.o(i._lv_ll_ins_tail)
    i._lv_ll_is_empty                        0x08003fa0   Section        0  lv_ll.o(i._lv_ll_is_empty)
    i._lv_ll_remove                          0x08003fb2   Section        0  lv_ll.o(i._lv_ll_remove)
    i._lv_obj_destruct                       0x0800401a   Section        0  lv_obj_class.o(i._lv_obj_destruct)
    i._lv_obj_get_ext_draw_size              0x08004036   Section        0  lv_obj_draw.o(i._lv_obj_get_ext_draw_size)
    i._lv_obj_get_layer_type                 0x08004042   Section        0  lv_obj_draw.o(i._lv_obj_get_layer_type)
    i._lv_obj_scroll_by_raw                  0x0800404e   Section        0  lv_obj_scroll.o(i._lv_obj_scroll_by_raw)
    i._lv_obj_style_apply_color_filter       0x08004096   Section        0  lv_obj_style.o(i._lv_obj_style_apply_color_filter)
    i._lv_obj_style_create_transition        0x080040d8   Section        0  lv_obj_style.o(i._lv_obj_style_create_transition)
    i._lv_obj_style_init                     0x08004204   Section        0  lv_obj_style.o(i._lv_obj_style_init)
    i._lv_obj_style_state_compare            0x08004210   Section        0  lv_obj_style.o(i._lv_obj_style_state_compare)
    i._lv_refr_get_disp_refreshing           0x08004400   Section        0  lv_refr.o(i._lv_refr_get_disp_refreshing)
    i._lv_refr_init                          0x0800440c   Section        0  lv_refr.o(i._lv_refr_init)
    i._lv_style_get_prop_group               0x0800440e   Section        0  lv_style.o(i._lv_style_get_prop_group)
    i._lv_style_prop_lookup_flags            0x0800441c   Section        0  lv_style.o(i._lv_style_prop_lookup_flags)
    i._lv_timer_core_init                    0x0800445c   Section        0  lv_timer.o(i._lv_timer_core_init)
    i._lv_txt_cut                            0x08004478   Section        0  lv_txt.o(i._lv_txt_cut)
    i._lv_txt_encoded_letter_next_2          0x080044b8   Section        0  lv_txt.o(i._lv_txt_encoded_letter_next_2)
    i._lv_txt_get_next_line                  0x080044e8   Section        0  lv_txt.o(i._lv_txt_get_next_line)
    i._lv_txt_ins                            0x080045e8   Section        0  lv_txt.o(i._lv_txt_ins)
    i._lv_txt_is_cmd                         0x0800463c   Section        0  lv_txt.o(i._lv_txt_is_cmd)
    i._lv_txt_set_text_vfmt                  0x08004672   Section        0  lv_txt.o(i._lv_txt_set_text_vfmt)
    i._lv_utils_bsearch                      0x080046a8   Section        0  lv_utils.o(i._lv_utils_bsearch)
    i._lv_vsnprintf                          0x080046f4   Section        0  lv_printf.o(i._lv_vsnprintf)
    _lv_vsnprintf                            0x080046f5   Thumb Code  1108  lv_printf.o(i._lv_vsnprintf)
    i._ntoa_format                           0x08004b48   Section        0  lv_printf.o(i._ntoa_format)
    _ntoa_format                             0x08004b49   Thumb Code   300  lv_printf.o(i._ntoa_format)
    i._ntoa_long                             0x08004c74   Section        0  lv_printf.o(i._ntoa_long)
    _ntoa_long                               0x08004c75   Thumb Code   128  lv_printf.o(i._ntoa_long)
    i._ntoa_long_long                        0x08004cf4   Section        0  lv_printf.o(i._ntoa_long_long)
    _ntoa_long_long                          0x08004cf5   Thumb Code   128  lv_printf.o(i._ntoa_long_long)
    i._out_buffer                            0x08004d74   Section        0  lv_printf.o(i._out_buffer)
    _out_buffer                              0x08004d75   Thumb Code     8  lv_printf.o(i._out_buffer)
    i._out_null                              0x08004d7c   Section        0  lv_printf.o(i._out_null)
    _out_null                                0x08004d7d   Thumb Code     2  lv_printf.o(i._out_null)
    i._printf_core                           0x08004d80   Section        0  printfa.o(i._printf_core)
    _printf_core                             0x08004d81   Thumb Code  1704  printfa.o(i._printf_core)
    i._printf_post_padding                   0x08005434   Section        0  printfa.o(i._printf_post_padding)
    _printf_post_padding                     0x08005435   Thumb Code    36  printfa.o(i._printf_post_padding)
    i._printf_pre_padding                    0x08005458   Section        0  printfa.o(i._printf_pre_padding)
    _printf_pre_padding                      0x08005459   Thumb Code    46  printfa.o(i._printf_pre_padding)
    i.a8_aa                                  0x08005486   Section        0  lv_draw_sw_transform.o(i.a8_aa)
    a8_aa                                    0x08005487   Thumb Code   338  lv_draw_sw_transform.o(i.a8_aa)
    i.adjust_request_size                    0x080055d8   Section        0  lv_tlsf.o(i.adjust_request_size)
    adjust_request_size                      0x080055d9   Thumb Code    42  lv_tlsf.o(i.adjust_request_size)
    i.align_ptr                              0x08005602   Section        0  lv_tlsf.o(i.align_ptr)
    align_ptr                                0x08005603   Thumb Code    16  lv_tlsf.o(i.align_ptr)
    i.allocate_btn_areas_and_controls        0x08005614   Section        0  lv_btnmatrix.o(i.allocate_btn_areas_and_controls)
    allocate_btn_areas_and_controls          0x08005615   Thumb Code   128  lv_btnmatrix.o(i.allocate_btn_areas_and_controls)
    i.allocate_item                          0x08005698   Section        0  lv_draw_sw_gradient.o(i.allocate_item)
    allocate_item                            0x08005699   Thumb Code   204  lv_draw_sw_gradient.o(i.allocate_item)
    i.angle_to_mode_color_fast               0x08005774   Section        0  lv_colorwheel.o(i.angle_to_mode_color_fast)
    angle_to_mode_color_fast                 0x08005775   Thumb Code   302  lv_colorwheel.o(i.angle_to_mode_color_fast)
    i.anim_mark_list_change                  0x080058a8   Section        0  lv_anim.o(i.anim_mark_list_change)
    anim_mark_list_change                    0x080058a9   Thumb Code    36  lv_anim.o(i.anim_mark_list_change)
    i.anim_ready_handler                     0x080058d4   Section        0  lv_anim.o(i.anim_ready_handler)
    anim_ready_handler                       0x080058d5   Thumb Code   130  lv_anim.o(i.anim_ready_handler)
    i.anim_timer                             0x0800595c   Section        0  lv_anim.o(i.anim_timer)
    anim_timer                               0x0800595d   Thumb Code   198  lv_anim.o(i.anim_timer)
    i.apply_theme                            0x08005a2c   Section        0  lv_theme.o(i.apply_theme)
    apply_theme                              0x08005a2d   Thumb Code    32  lv_theme.o(i.apply_theme)
    i.apply_theme_recursion                  0x08005a4c   Section        0  lv_theme.o(i.apply_theme_recursion)
    apply_theme_recursion                    0x08005a4d   Thumb Code    42  lv_theme.o(i.apply_theme_recursion)
    i.arc_anim_end_angle                     0x08005a76   Section        0  lv_spinner.o(i.arc_anim_end_angle)
    arc_anim_end_angle                       0x08005a77   Thumb Code     6  lv_spinner.o(i.arc_anim_end_angle)
    i.arc_anim_start_angle                   0x08005a7c   Section        0  lv_spinner.o(i.arc_anim_start_angle)
    arc_anim_start_angle                     0x08005a7d   Thumb Code     6  lv_spinner.o(i.arc_anim_start_angle)
    i.arc_set_end_angle_anim                 0x08005a82   Section        0  lv_demo_stress.o(i.arc_set_end_angle_anim)
    arc_set_end_angle_anim                   0x08005a83   Thumb Code     6  lv_demo_stress.o(i.arc_set_end_angle_anim)
    i.argb_and_rgb_aa                        0x08005a88   Section        0  lv_draw_sw_transform.o(i.argb_and_rgb_aa)
    argb_and_rgb_aa                          0x08005a89   Thumb Code   752  lv_draw_sw_transform.o(i.argb_and_rgb_aa)
    i.assert_failed                          0x08005d78   Section        0  main.o(i.assert_failed)
    i.auto_del                               0x08005db0   Section        0  lv_demo_stress.o(i.auto_del)
    auto_del                                 0x08005db1   Thumb Code    38  lv_demo_stress.o(i.auto_del)
    i.auto_hide_characters                   0x08005ddc   Section        0  lv_textarea.o(i.auto_hide_characters)
    auto_hide_characters                     0x08005ddd   Thumb Code    64  lv_textarea.o(i.auto_hide_characters)
    i.block_absorb                           0x08005e28   Section        0  lv_tlsf.o(i.block_absorb)
    block_absorb                             0x08005e29   Thumb Code    34  lv_tlsf.o(i.block_absorb)
    i.block_can_split                        0x08005e4a   Section        0  lv_tlsf.o(i.block_can_split)
    block_can_split                          0x08005e4b   Thumb Code    20  lv_tlsf.o(i.block_can_split)
    i.block_insert                           0x08005e5e   Section        0  lv_tlsf.o(i.block_insert)
    block_insert                             0x08005e5f   Thumb Code   106  lv_tlsf.o(i.block_insert)
    i.block_link_next                        0x08005ec8   Section        0  lv_tlsf.o(i.block_link_next)
    block_link_next                          0x08005ec9   Thumb Code    12  lv_tlsf.o(i.block_link_next)
    i.block_locate_free                      0x08005ed4   Section        0  lv_tlsf.o(i.block_locate_free)
    block_locate_free                        0x08005ed5   Thumb Code   160  lv_tlsf.o(i.block_locate_free)
    i.block_mark_as_free                     0x08005f74   Section        0  lv_tlsf.o(i.block_mark_as_free)
    block_mark_as_free                       0x08005f75   Thumb Code    26  lv_tlsf.o(i.block_mark_as_free)
    i.block_mark_as_used                     0x08005f8e   Section        0  lv_tlsf.o(i.block_mark_as_used)
    block_mark_as_used                       0x08005f8f   Thumb Code    26  lv_tlsf.o(i.block_mark_as_used)
    i.block_merge_next                       0x08005fa8   Section        0  lv_tlsf.o(i.block_merge_next)
    block_merge_next                         0x08005fa9   Thumb Code    54  lv_tlsf.o(i.block_merge_next)
    i.block_next                             0x08005fde   Section        0  lv_tlsf.o(i.block_next)
    block_next                               0x08005fdf   Thumb Code    22  lv_tlsf.o(i.block_next)
    i.block_prepare_used                     0x08005ff4   Section        0  lv_tlsf.o(i.block_prepare_used)
    block_prepare_used                       0x08005ff5   Thumb Code    80  lv_tlsf.o(i.block_prepare_used)
    i.block_remove                           0x08006044   Section        0  lv_tlsf.o(i.block_remove)
    block_remove                             0x08006045   Thumb Code    34  lv_tlsf.o(i.block_remove)
    i.block_split                            0x08006066   Section        0  lv_tlsf.o(i.block_split)
    block_split                              0x08006067   Thumb Code   108  lv_tlsf.o(i.block_split)
    i.btn_release_handler                    0x080060d2   Section        0  lv_dropdown.o(i.btn_release_handler)
    btn_release_handler                      0x080060d3   Thumb Code   110  lv_dropdown.o(i.btn_release_handler)
    i.btns_value_changed_event_cb            0x08006140   Section        0  lv_tabview.o(i.btns_value_changed_event_cb)
    btns_value_changed_event_cb              0x08006141   Thumb Code    34  lv_tabview.o(i.btns_value_changed_event_cb)
    i.calc                                   0x08006164   Section        0  lv_grid.o(i.calc)
    calc                                     0x08006165   Thumb Code   252  lv_grid.o(i.calc)
    i.calc_cols                              0x08006264   Section        0  lv_grid.o(i.calc_cols)
    calc_cols                                0x08006265   Thumb Code   352  lv_grid.o(i.calc_cols)
    i.calc_content_height                    0x080063cc   Section        0  lv_obj_pos.o(i.calc_content_height)
    calc_content_height                      0x080063cd   Thumb Code   238  lv_obj_pos.o(i.calc_content_height)
    i.calc_content_width                     0x080064c4   Section        0  lv_obj_pos.o(i.calc_content_width)
    calc_content_width                       0x080064c5   Thumb Code   410  lv_obj_pos.o(i.calc_content_width)
    i.calc_rows                              0x08006668   Section        0  lv_grid.o(i.calc_rows)
    calc_rows                                0x08006669   Thumb Code   348  lv_grid.o(i.calc_rows)
    i.calculate_x_coordinate                 0x080067cc   Section        0  lv_label.o(i.calculate_x_coordinate)
    calculate_x_coordinate                   0x080067cd   Thumb Code    88  lv_label.o(i.calculate_x_coordinate)
    i.call_flush_cb                          0x08006824   Section        0  lv_refr.o(i.call_flush_cb)
    call_flush_cb                            0x08006825   Thumb Code    66  lv_refr.o(i.call_flush_cb)
    i.children_repos                         0x08006868   Section        0  lv_flex.o(i.children_repos)
    children_repos                           0x08006869   Thumb Code  1168  lv_flex.o(i.children_repos)
    i.circ_calc_aa4                          0x08006cf8   Section        0  lv_draw_mask.o(i.circ_calc_aa4)
    circ_calc_aa4                            0x08006cf9   Thumb Code   706  lv_draw_mask.o(i.circ_calc_aa4)
    i.circ_cont                              0x08006fba   Section        0  lv_draw_mask.o(i.circ_cont)
    circ_cont                                0x08006fbb   Thumb Code    20  lv_draw_mask.o(i.circ_cont)
    i.cloud_init                             0x08006fd0   Section        0  cloud.o(i.cloud_init)
    i.cloud_send_msg                         0x08007024   Section        0  cloud.o(i.cloud_send_msg)
    i.cloud_server                           0x08007048   Section        0  cloud.o(i.cloud_server)
    i.color_blend_true_color_additive        0x080070d0   Section        0  lv_draw_sw_blend.o(i.color_blend_true_color_additive)
    color_blend_true_color_additive          0x080070d1   Thumb Code   116  lv_draw_sw_blend.o(i.color_blend_true_color_additive)
    i.color_blend_true_color_multiply        0x08007144   Section        0  lv_draw_sw_blend.o(i.color_blend_true_color_multiply)
    color_blend_true_color_multiply          0x08007145   Thumb Code   102  lv_draw_sw_blend.o(i.color_blend_true_color_multiply)
    i.color_blend_true_color_subtractive     0x080071aa   Section        0  lv_draw_sw_blend.o(i.color_blend_true_color_subtractive)
    color_blend_true_color_subtractive       0x080071ab   Thumb Code   116  lv_draw_sw_blend.o(i.color_blend_true_color_subtractive)
    i.cont_scroll_end_event_cb               0x0800721e   Section        0  lv_tabview.o(i.cont_scroll_end_event_cb)
    cont_scroll_end_event_cb                 0x0800721f   Thumb Code   182  lv_tabview.o(i.cont_scroll_end_event_cb)
    i.convert_cb                             0x080072d4   Section        0  lv_draw_sw_img.o(i.convert_cb)
    convert_cb                               0x080072d5   Thumb Code   426  lv_draw_sw_img.o(i.convert_cb)
    i.count_tracks                           0x0800747e   Section        0  lv_grid.o(i.count_tracks)
    count_tracks                             0x0800747f   Thumb Code    22  lv_grid.o(i.count_tracks)
    i.cursor_blink_anim_cb                   0x08007494   Section        0  lv_textarea.o(i.cursor_blink_anim_cb)
    cursor_blink_anim_cb                     0x08007495   Thumb Code   110  lv_textarea.o(i.cursor_blink_anim_cb)
    i.dark_color_filter_cb                   0x08007502   Section        0  lv_theme_default.o(i.dark_color_filter_cb)
    dark_color_filter_cb                     0x08007503   Thumb Code    18  lv_theme_default.o(i.dark_color_filter_cb)
    i.decode_and_draw                        0x08007514   Section        0  lv_draw_img.o(i.decode_and_draw)
    decode_and_draw                          0x08007515   Thumb Code   438  lv_draw_img.o(i.decode_and_draw)
    i.default_walker                         0x080076ca   Section        0  lv_tlsf.o(i.default_walker)
    default_walker                           0x080076cb   Thumb Code     2  lv_tlsf.o(i.default_walker)
    i.disp_flush                             0x080076cc   Section        0  lv_port_disp.o(i.disp_flush)
    disp_flush                               0x080076cd   Thumb Code    72  lv_port_disp.o(i.disp_flush)
    i.double_click_reset                     0x08007718   Section        0  lv_colorwheel.o(i.double_click_reset)
    double_click_reset                       0x08007719   Thumb Code   106  lv_colorwheel.o(i.double_click_reset)
    i.drag_start                             0x08007784   Section        0  lv_slider.o(i.drag_start)
    drag_start                               0x08007785   Thumb Code   286  lv_slider.o(i.drag_start)
    i.draw_arcs                              0x080078a4   Section        0  lv_meter.o(i.draw_arcs)
    draw_arcs                                0x080078a5   Thumb Code   282  lv_meter.o(i.draw_arcs)
    i.draw_bg                                0x080079c4   Section        0  lv_draw_sw_rect.o(i.draw_bg)
    draw_bg                                  0x080079c5   Thumb Code   938  lv_draw_sw_rect.o(i.draw_bg)
    i.draw_bg_img                            0x08007d6e   Section        0  lv_draw_sw_rect.o(i.draw_bg_img)
    draw_bg_img                              0x08007d6f   Thumb Code   484  lv_draw_sw_rect.o(i.draw_bg_img)
    i.draw_border                            0x08007f52   Section        0  lv_draw_sw_rect.o(i.draw_border)
    draw_border                              0x08007f53   Thumb Code   238  lv_draw_sw_rect.o(i.draw_border)
    i.draw_border_generic                    0x08008040   Section        0  lv_draw_sw_rect.o(i.draw_border_generic)
    i.draw_border_simple                     0x080084de   Section        0  lv_draw_sw_rect.o(i.draw_border_simple)
    draw_border_simple                       0x080084df   Thumb Code   266  lv_draw_sw_rect.o(i.draw_border_simple)
    i.draw_box                               0x080085e8   Section        0  lv_dropdown.o(i.draw_box)
    draw_box                                 0x080085e9   Thumb Code   164  lv_dropdown.o(i.draw_box)
    i.draw_box_label                         0x0800868c   Section        0  lv_dropdown.o(i.draw_box_label)
    draw_box_label                           0x0800868d   Thumb Code   200  lv_dropdown.o(i.draw_box_label)
    i.draw_buf_flush                         0x08008754   Section        0  lv_refr.o(i.draw_buf_flush)
    draw_buf_flush                           0x08008755   Thumb Code   198  lv_refr.o(i.draw_buf_flush)
    i.draw_buf_rotate                        0x08008820   Section        0  lv_refr.o(i.draw_buf_rotate)
    draw_buf_rotate                          0x08008821   Thumb Code   558  lv_refr.o(i.draw_buf_rotate)
    i.draw_buf_rotate4                       0x08008a54   Section        0  lv_refr.o(i.draw_buf_rotate4)
    draw_buf_rotate4                         0x08008a55   Thumb Code    20  lv_refr.o(i.draw_buf_rotate4)
    i.draw_buf_rotate_180                    0x08008a68   Section        0  lv_refr.o(i.draw_buf_rotate_180)
    draw_buf_rotate_180                      0x08008a69   Thumb Code   102  lv_refr.o(i.draw_buf_rotate_180)
    i.draw_buf_rotate_90_sqr                 0x08008ace   Section        0  lv_refr.o(i.draw_buf_rotate_90_sqr)
    draw_buf_rotate_90_sqr                   0x08008acf   Thumb Code   128  lv_refr.o(i.draw_buf_rotate_90_sqr)
    i.draw_cursor                            0x08008b50   Section        0  lv_textarea.o(i.draw_cursor)
    draw_cursor                              0x08008b51   Thumb Code   284  lv_textarea.o(i.draw_cursor)
    i.draw_cursors                           0x08008c70   Section        0  lv_chart.o(i.draw_cursors)
    draw_cursors                             0x08008c71   Thumb Code   534  lv_chart.o(i.draw_cursors)
    i.draw_disc_grad                         0x08008e8c   Section        0  lv_colorwheel.o(i.draw_disc_grad)
    draw_disc_grad                           0x08008e8d   Thumb Code   376  lv_colorwheel.o(i.draw_disc_grad)
    i.draw_div_lines                         0x08009004   Section        0  lv_chart.o(i.draw_div_lines)
    draw_div_lines                           0x08009005   Thumb Code   608  lv_chart.o(i.draw_div_lines)
    i.draw_img                               0x08009268   Section        0  lv_img.o(i.draw_img)
    draw_img                                 0x08009269   Thumb Code  1068  lv_img.o(i.draw_img)
    i.draw_indic                             0x08009698   Section        0  lv_bar.o(i.draw_indic)
    draw_indic                               0x08009699   Thumb Code  1262  lv_bar.o(i.draw_indic)
    i.draw_knob                              0x08009b94   Section        0  lv_slider.o(i.draw_knob)
    draw_knob                                0x08009b95   Thumb Code   382  lv_slider.o(i.draw_knob)
    i.draw_label                             0x08009d18   Section        0  lv_roller.o(i.draw_label)
    draw_label                               0x08009d19   Thumb Code   250  lv_roller.o(i.draw_label)
    i.draw_letter_normal                     0x08009e14   Section        0  lv_draw_sw_letter.o(i.draw_letter_normal)
    draw_letter_normal                       0x08009e15   Thumb Code   694  lv_draw_sw_letter.o(i.draw_letter_normal)
    i.draw_line_hor                          0x0800a0d8   Section        0  lv_draw_sw_line.o(i.draw_line_hor)
    draw_line_hor                            0x0800a0d9   Thumb Code   370  lv_draw_sw_line.o(i.draw_line_hor)
    i.draw_line_skew                         0x0800a24c   Section        0  lv_draw_sw_line.o(i.draw_line_skew)
    draw_line_skew                           0x0800a24d   Thumb Code   858  lv_draw_sw_line.o(i.draw_line_skew)
    i.draw_line_ver                          0x0800a5ac   Section        0  lv_draw_sw_line.o(i.draw_line_ver)
    draw_line_ver                            0x0800a5ad   Thumb Code   352  lv_draw_sw_line.o(i.draw_line_ver)
    i.draw_list                              0x0800a70c   Section        0  lv_dropdown.o(i.draw_list)
    draw_list                                0x0800a70d   Thumb Code   144  lv_dropdown.o(i.draw_list)
    i.draw_main                              0x0800a79c   Section        0  lv_btnmatrix.o(i.draw_main)
    draw_main                                0x0800a79d   Thumb Code   882  lv_btnmatrix.o(i.draw_main)
    i.draw_main                              0x0800ab18   Section        0  lv_dropdown.o(i.draw_main)
    draw_main                                0x0800ab19   Thumb Code   580  lv_dropdown.o(i.draw_main)
    i.draw_main                              0x0800ad5c   Section        0  lv_label.o(i.draw_main)
    draw_main                                0x0800ad5d   Thumb Code   630  lv_label.o(i.draw_main)
    i.draw_main                              0x0800afd2   Section        0  lv_roller.o(i.draw_main)
    draw_main                                0x0800afd3   Thumb Code   402  lv_roller.o(i.draw_main)
    i.draw_main                              0x0800b164   Section        0  lv_switch.o(i.draw_main)
    draw_main                                0x0800b165   Thumb Code   366  lv_switch.o(i.draw_main)
    i.draw_main                              0x0800b2d4   Section        0  lv_table.o(i.draw_main)
    draw_main                                0x0800b2d5   Thumb Code  1180  lv_table.o(i.draw_main)
    i.draw_needles                           0x0800b774   Section        0  lv_meter.o(i.draw_needles)
    draw_needles                             0x0800b775   Thumb Code   486  lv_meter.o(i.draw_needles)
    i.draw_outline                           0x0800b960   Section        0  lv_draw_sw_rect.o(i.draw_outline)
    draw_outline                             0x0800b961   Thumb Code   212  lv_draw_sw_rect.o(i.draw_outline)
    i.draw_part_begin_event_cb               0x0800ba34   Section        0  lv_calendar.o(i.draw_part_begin_event_cb)
    draw_part_begin_event_cb                 0x0800ba35   Thumb Code   192  lv_calendar.o(i.draw_part_begin_event_cb)
    i.draw_placeholder                       0x0800baf4   Section        0  lv_textarea.o(i.draw_placeholder)
    draw_placeholder                         0x0800baf5   Thumb Code   160  lv_textarea.o(i.draw_placeholder)
    i.draw_quarter_0                         0x0800bb94   Section        0  lv_draw_sw_arc.o(i.draw_quarter_0)
    draw_quarter_0                           0x0800bb95   Thumb Code   400  lv_draw_sw_arc.o(i.draw_quarter_0)
    i.draw_quarter_1                         0x0800bd24   Section        0  lv_draw_sw_arc.o(i.draw_quarter_1)
    draw_quarter_1                           0x0800bd25   Thumb Code   414  lv_draw_sw_arc.o(i.draw_quarter_1)
    i.draw_quarter_2                         0x0800bec2   Section        0  lv_draw_sw_arc.o(i.draw_quarter_2)
    draw_quarter_2                           0x0800bec3   Thumb Code   476  lv_draw_sw_arc.o(i.draw_quarter_2)
    i.draw_quarter_3                         0x0800c09e   Section        0  lv_draw_sw_arc.o(i.draw_quarter_3)
    draw_quarter_3                           0x0800c09f   Thumb Code   410  lv_draw_sw_arc.o(i.draw_quarter_3)
    i.draw_scrollbar                         0x0800c238   Section        0  lv_obj.o(i.draw_scrollbar)
    draw_scrollbar                           0x0800c239   Thumb Code   164  lv_obj.o(i.draw_scrollbar)
    i.draw_series_bar                        0x0800c2e0   Section        0  lv_chart.o(i.draw_series_bar)
    draw_series_bar                          0x0800c2e1   Thumb Code   572  lv_chart.o(i.draw_series_bar)
    i.draw_series_line                       0x0800c520   Section        0  lv_chart.o(i.draw_series_line)
    draw_series_line                         0x0800c521   Thumb Code  1070  lv_chart.o(i.draw_series_line)
    i.draw_series_scatter                    0x0800c954   Section        0  lv_chart.o(i.draw_series_scatter)
    draw_series_scatter                      0x0800c955   Thumb Code   940  lv_chart.o(i.draw_series_scatter)
    i.draw_shadow                            0x0800cd08   Section        0  lv_draw_sw_rect.o(i.draw_shadow)
    draw_shadow                              0x0800cd09   Thumb Code  3000  lv_draw_sw_rect.o(i.draw_shadow)
    i.draw_ticks_and_labels                  0x0800d8c0   Section        0  lv_meter.o(i.draw_ticks_and_labels)
    draw_ticks_and_labels                    0x0800d8c1   Thumb Code   948  lv_meter.o(i.draw_ticks_and_labels)
    i.draw_x_ticks                           0x0800dc80   Section        0  lv_chart.o(i.draw_x_ticks)
    draw_x_ticks                             0x0800dc81   Thumb Code   812  lv_chart.o(i.draw_x_ticks)
    i.draw_y_ticks                           0x0800dfb4   Section        0  lv_chart.o(i.draw_y_ticks)
    draw_y_ticks                             0x0800dfb5   Thumb Code   696  lv_chart.o(i.draw_y_ticks)
    i.event_send_core                        0x0800e274   Section        0  lv_event.o(i.event_send_core)
    event_send_core                          0x0800e275   Thumb Code   286  lv_event.o(i.event_send_core)
    i.fast_hsv2rgb                           0x0800e392   Section        0  lv_colorwheel.o(i.fast_hsv2rgb)
    fast_hsv2rgb                             0x0800e393   Thumb Code   118  lv_colorwheel.o(i.fast_hsv2rgb)
    i.fill_argb                              0x0800e408   Section        0  lv_draw_sw_blend.o(i.fill_argb)
    fill_argb                                0x0800e409   Thumb Code   326  lv_draw_sw_blend.o(i.fill_argb)
    i.fill_blended                           0x0800e550   Section        0  lv_draw_sw_blend.o(i.fill_blended)
    fill_blended                             0x0800e551   Thumb Code   320  lv_draw_sw_blend.o(i.fill_blended)
    i.fill_normal                            0x0800e69c   Section        0  lv_draw_sw_blend.o(i.fill_normal)
    fill_normal                              0x0800e69d   Thumb Code   838  lv_draw_sw_blend.o(i.fill_normal)
    i.find_item                              0x0800e9e2   Section        0  lv_draw_sw_gradient.o(i.find_item)
    find_item                                0x0800e9e3   Thumb Code    16  lv_draw_sw_gradient.o(i.find_item)
    i.find_oldest_item_life                  0x0800e9f2   Section        0  lv_draw_sw_gradient.o(i.find_oldest_item_life)
    find_oldest_item_life                    0x0800e9f3   Thumb Code    18  lv_draw_sw_gradient.o(i.find_oldest_item_life)
    i.find_track_end                         0x0800ea04   Section        0  lv_flex.o(i.find_track_end)
    find_track_end                           0x0800ea05   Thumb Code   536  lv_flex.o(i.find_track_end)
    i.flex_update                            0x0800ec28   Section        0  lv_flex.o(i.flex_update)
    flex_update                              0x0800ec29   Thumb Code   754  lv_flex.o(i.flex_update)
    i.focus_next_core                        0x0800ef20   Section        0  lv_group.o(i.focus_next_core)
    focus_next_core                          0x0800ef21   Thumb Code   238  lv_group.o(i.focus_next_core)
    i.fputc                                  0x0800f010   Section        0  main.o(i.fputc)
    i.get_angle                              0x0800f034   Section        0  lv_arc.o(i.get_angle)
    get_angle                                0x0800f035   Thumb Code   104  lv_arc.o(i.get_angle)
    i.get_button_from_point                  0x0800f09c   Section        0  lv_btnmatrix.o(i.get_button_from_point)
    get_button_from_point                    0x0800f09d   Thumb Code   410  lv_btnmatrix.o(i.get_button_from_point)
    i.get_button_width                       0x0800f236   Section        0  lv_btnmatrix.o(i.get_button_width)
    get_button_width                         0x0800f237   Thumb Code    10  lv_btnmatrix.o(i.get_button_width)
    i.get_cache_item_size                    0x0800f240   Section        0  lv_draw_sw_gradient.o(i.get_cache_item_size)
    get_cache_item_size                      0x0800f241   Thumb Code    18  lv_draw_sw_gradient.o(i.get_cache_item_size)
    i.get_cell_area                          0x0800f252   Section        0  lv_table.o(i.get_cell_area)
    get_cell_area                            0x0800f253   Thumb Code   210  lv_table.o(i.get_cell_area)
    i.get_center                             0x0800f324   Section        0  lv_arc.o(i.get_center)
    get_center                               0x0800f325   Thumb Code   142  lv_arc.o(i.get_center)
    i.get_col_dsc                            0x0800f3b4   Section        0  lv_grid.o(i.get_col_dsc)
    get_col_dsc                              0x0800f3b5   Thumb Code    10  lv_grid.o(i.get_col_dsc)
    i.get_col_pos                            0x0800f3c4   Section        0  lv_grid.o(i.get_col_pos)
    get_col_pos                              0x0800f3c5   Thumb Code    16  lv_grid.o(i.get_col_pos)
    i.get_col_span                           0x0800f3d8   Section        0  lv_grid.o(i.get_col_span)
    get_col_span                             0x0800f3d9   Thumb Code    16  lv_grid.o(i.get_col_span)
    i.get_day_of_week                        0x0800f3ec   Section        0  lv_calendar.o(i.get_day_of_week)
    get_day_of_week                          0x0800f3ed   Thumb Code    72  lv_calendar.o(i.get_day_of_week)
    i.get_glyph_dsc_id                       0x0800f434   Section        0  lv_font_fmt_txt.o(i.get_glyph_dsc_id)
    get_glyph_dsc_id                         0x0800f435   Thumb Code   286  lv_font_fmt_txt.o(i.get_glyph_dsc_id)
    i.get_id_on_point                        0x0800f558   Section        0  lv_dropdown.o(i.get_id_on_point)
    get_id_on_point                          0x0800f559   Thumb Code    72  lv_dropdown.o(i.get_id_on_point)
    i.get_indev                              0x0800f5a0   Section        0  lv_group.o(i.get_indev)
    get_indev                                0x0800f5a1   Thumb Code    78  lv_group.o(i.get_indev)
    i.get_kern_value                         0x0800f5f0   Section        0  lv_font_fmt_txt.o(i.get_kern_value)
    get_kern_value                           0x0800f5f1   Thumb Code   134  lv_font_fmt_txt.o(i.get_kern_value)
    i.get_knob_area                          0x0800f680   Section        0  lv_arc.o(i.get_knob_area)
    get_knob_area                            0x0800f681   Thumb Code   166  lv_arc.o(i.get_knob_area)
    i.get_knob_area                          0x0800f726   Section        0  lv_colorwheel.o(i.get_knob_area)
    get_knob_area                            0x0800f727   Thumb Code   128  lv_colorwheel.o(i.get_knob_area)
    i.get_label                              0x0800f7a6   Section        0  lv_dropdown.o(i.get_label)
    get_label                                0x0800f7a7   Thumb Code    14  lv_dropdown.o(i.get_label)
    i.get_label                              0x0800f7b4   Section        0  lv_roller.o(i.get_label)
    get_label                                0x0800f7b5   Thumb Code     6  lv_roller.o(i.get_label)
    i.get_label_flags                        0x0800f7ba   Section        0  lv_label.o(i.get_label_flags)
    get_label_flags                          0x0800f7bb   Thumb Code    24  lv_label.o(i.get_label_flags)
    i.get_local_style                        0x0800f7d2   Section        0  lv_obj_style.o(i.get_local_style)
    get_local_style                          0x0800f7d3   Thumb Code   214  lv_obj_style.o(i.get_local_style)
    i.get_max_row                            0x0800f8a8   Section        0  lv_refr.o(i.get_max_row)
    get_max_row                              0x0800f8a9   Thumb Code   108  lv_refr.o(i.get_max_row)
    i.get_month_length                       0x0800f918   Section        0  lv_calendar.o(i.get_month_length)
    get_month_length                         0x0800f919   Thumb Code    88  lv_calendar.o(i.get_month_length)
    i.get_next_item                          0x0800f970   Section        0  lv_flex.o(i.get_next_item)
    get_next_item                            0x0800f971   Thumb Code    38  lv_flex.o(i.get_next_item)
    i.get_pressed_cell                       0x0800f996   Section        0  lv_table.o(i.get_pressed_cell)
    get_pressed_cell                         0x0800f997   Thumb Code   224  lv_table.o(i.get_pressed_cell)
    i.get_prop_core                          0x0800fa76   Section        0  lv_obj_style.o(i.get_prop_core)
    get_prop_core                            0x0800fa77   Thumb Code   248  lv_obj_style.o(i.get_prop_core)
    i.get_rounded_area                       0x0800fb6e   Section        0  lv_draw_sw_arc.o(i.get_rounded_area)
    get_rounded_area                         0x0800fb6f   Thumb Code   118  lv_draw_sw_arc.o(i.get_rounded_area)
    i.get_row_dsc                            0x0800fbe4   Section        0  lv_grid.o(i.get_row_dsc)
    get_row_dsc                              0x0800fbe5   Thumb Code    10  lv_grid.o(i.get_row_dsc)
    i.get_row_height                         0x0800fbf4   Section        0  lv_table.o(i.get_row_height)
    get_row_height                           0x0800fbf5   Thumb Code   236  lv_table.o(i.get_row_height)
    i.get_row_pos                            0x0800fce0   Section        0  lv_grid.o(i.get_row_pos)
    get_row_pos                              0x0800fce1   Thumb Code    16  lv_grid.o(i.get_row_pos)
    i.get_row_span                           0x0800fcf4   Section        0  lv_grid.o(i.get_row_span)
    get_row_span                             0x0800fcf5   Thumb Code    16  lv_grid.o(i.get_row_span)
    i.get_sel_area                           0x0800fd08   Section        0  lv_roller.o(i.get_sel_area)
    get_sel_area                             0x0800fd09   Thumb Code   108  lv_roller.o(i.get_sel_area)
    i.get_selected_label_width               0x0800fd74   Section        0  lv_roller.o(i.get_selected_label_width)
    get_selected_label_width                 0x0800fd75   Thumb Code    82  lv_roller.o(i.get_selected_label_width)
    i.get_tick_gsc                           0x0800fdc6   Section        0  lv_chart.o(i.get_tick_gsc)
    i.get_trans_style                        0x0800fde8   Section        0  lv_obj_style.o(i.get_trans_style)
    get_trans_style                          0x0800fde9   Thumb Code   180  lv_obj_style.o(i.get_trans_style)
    i.grey_filter_cb                         0x0800fe9c   Section        0  lv_theme_default.o(i.grey_filter_cb)
    grey_filter_cb                           0x0800fe9d   Thumb Code    50  lv_theme_default.o(i.grey_filter_cb)
    i.grid_align                             0x0800fed4   Section        0  lv_grid.o(i.grid_align)
    grid_align                               0x0800fed5   Thumb Code   260  lv_grid.o(i.grid_align)
    i.grid_update                            0x0800ffd8   Section        0  lv_grid.o(i.grid_update)
    grid_update                              0x0800ffd9   Thumb Code   260  lv_grid.o(i.grid_update)
    i.gui_start                              0x080100dc   Section        0  watch.o(i.gui_start)
    i.gui_start_task                         0x08010110   Section        0  watch.o(i.gui_start_task)
    i.hex_char_to_num                        0x080101dc   Section        0  lv_draw_label.o(i.hex_char_to_num)
    hex_char_to_num                          0x080101dd   Thumb Code    64  lv_draw_label.o(i.hex_char_to_num)
    i.highlight_update                       0x0801021c   Section        0  lv_calendar.o(i.highlight_update)
    highlight_update                         0x0801021d   Thumb Code   154  lv_calendar.o(i.highlight_update)
    i.htu21_crc_check                        0x080102b8   Section        0  driver_htu21d.o(i.htu21_crc_check)
    htu21_crc_check                          0x080102b9   Thumb Code    48  driver_htu21d.o(i.htu21_crc_check)
    i.htu21_humidity_conversion_and_read_adc 0x080102f0   Section        0  driver_htu21d.o(i.htu21_humidity_conversion_and_read_adc)
    htu21_humidity_conversion_and_read_adc   0x080102f1   Thumb Code   112  driver_htu21d.o(i.htu21_humidity_conversion_and_read_adc)
    i.htu21_init                             0x08010368   Section        0  driver_htu21d.o(i.htu21_init)
    i.htu21_read_temperature_and_relative_humidity 0x08010378   Section        0  driver_htu21d.o(i.htu21_read_temperature_and_relative_humidity)
    i.htu21_temperature_conversion_and_read_adc 0x0801040c   Section        0  driver_htu21d.o(i.htu21_temperature_conversion_and_read_adc)
    htu21_temperature_conversion_and_read_adc 0x0801040d   Thumb Code   112  driver_htu21d.o(i.htu21_temperature_conversion_and_read_adc)
    i.htu21_test                             0x08010484   Section        0  driver_htu21d.o(i.htu21_test)
    i.htu21_test_task                        0x080104ac   Section        0  driver_htu21d.o(i.htu21_test_task)
    i.htu21_write_command                    0x08010528   Section        0  driver_htu21d.o(i.htu21_write_command)
    htu21_write_command                      0x08010529   Thumb Code    34  driver_htu21d.o(i.htu21_write_command)
    i.htu21_write_command_no_stop            0x08010550   Section        0  driver_htu21d.o(i.htu21_write_command_no_stop)
    htu21_write_command_no_stop              0x08010551   Thumb Code    34  driver_htu21d.o(i.htu21_write_command_no_stop)
    i.i2c_master_init                        0x08010578   Section        0  driver_htu21d.o(i.i2c_master_init)
    i.i2c_master_read_packet_wait            0x08010604   Section        0  driver_htu21d.o(i.i2c_master_read_packet_wait)
    i.i2c_master_write_packet_wait           0x08010878   Section        0  driver_htu21d.o(i.i2c_master_write_packet_wait)
    i.i2c_master_write_packet_wait_no_stop   0x080109d4   Section        0  driver_htu21d.o(i.i2c_master_write_packet_wait_no_stop)
    i.inf_normalize                          0x080109d8   Section        0  lv_roller.o(i.inf_normalize)
    inf_normalize                            0x080109d9   Thumb Code   140  lv_roller.o(i.inf_normalize)
    i.insert_handler                         0x08010a64   Section        0  lv_textarea.o(i.insert_handler)
    insert_handler                           0x08010a65   Thumb Code    54  lv_textarea.o(i.insert_handler)
    i.integrity_walker                       0x08010aa0   Section        0  lv_tlsf.o(i.integrity_walker)
    integrity_walker                         0x08010aa1   Thumb Code    36  lv_tlsf.o(i.integrity_walker)
    i.inv_arc_area                           0x08010ac4   Section        0  lv_arc.o(i.inv_arc_area)
    inv_arc_area                             0x08010ac5   Thumb Code   162  lv_arc.o(i.inv_arc_area)
    i.inv_knob_area                          0x08010b66   Section        0  lv_arc.o(i.inv_knob_area)
    inv_knob_area                            0x08010b67   Thumb Code    36  lv_arc.o(i.inv_knob_area)
    i.invalidate_button_area                 0x08010b8a   Section        0  lv_btnmatrix.o(i.invalidate_button_area)
    invalidate_button_area                   0x08010b8b   Thumb Code   198  lv_btnmatrix.o(i.invalidate_button_area)
    i.invalidate_knob                        0x08010c50   Section        0  lv_colorwheel.o(i.invalidate_knob)
    invalidate_knob                          0x08010c51   Thumb Code    22  lv_colorwheel.o(i.invalidate_knob)
    i.invalidate_point                       0x08010c66   Section        0  lv_chart.o(i.invalidate_point)
    invalidate_point                         0x08010c67   Thumb Code   374  lv_chart.o(i.invalidate_point)
    i.is_slider_horizontal                   0x08010ddc   Section        0  lv_slider.o(i.is_slider_horizontal)
    is_slider_horizontal                     0x08010ddd   Thumb Code    28  lv_slider.o(i.is_slider_horizontal)
    i.is_valid_but_non_printable_char        0x08010df8   Section        0  lv_textarea.o(i.is_valid_but_non_printable_char)
    is_valid_but_non_printable_char          0x08010df9   Thumb Code    18  lv_textarea.o(i.is_valid_but_non_printable_char)
    i.item_repos                             0x08010e0c   Section        0  lv_grid.o(i.item_repos)
    item_repos                               0x08010e0d   Thumb Code   876  lv_grid.o(i.item_repos)
    i.iterate_cache                          0x08011180   Section        0  lv_draw_sw_gradient.o(i.iterate_cache)
    iterate_cache                            0x08011181   Thumb Code    54  lv_draw_sw_gradient.o(i.iterate_cache)
    i.kern_pair_16_compare                   0x080111b6   Section        0  lv_font_fmt_txt.o(i.kern_pair_16_compare)
    kern_pair_16_compare                     0x080111b7   Thumb Code    20  lv_font_fmt_txt.o(i.kern_pair_16_compare)
    i.kern_pair_8_compare                    0x080111ca   Section        0  lv_font_fmt_txt.o(i.kern_pair_8_compare)
    kern_pair_8_compare                      0x080111cb   Thumb Code    20  lv_font_fmt_txt.o(i.kern_pair_8_compare)
    i.kill_oldest_item                       0x080111e0   Section        0  lv_draw_sw_gradient.o(i.kill_oldest_item)
    kill_oldest_item                         0x080111e1   Thumb Code   102  lv_draw_sw_gradient.o(i.kill_oldest_item)
    i.label_event_cb                         0x0801124c   Section        0  lv_textarea.o(i.label_event_cb)
    label_event_cb                           0x0801124d   Thumb Code    58  lv_textarea.o(i.label_event_cb)
    i.layer_alpha_test                       0x08011286   Section        0  lv_refr.o(i.layer_alpha_test)
    layer_alpha_test                         0x08011287   Thumb Code   102  lv_refr.o(i.layer_alpha_test)
    i.layer_get_area                         0x080112ec   Section        0  lv_refr.o(i.layer_get_area)
    layer_get_area                           0x080112ed   Thumb Code   158  lv_refr.o(i.layer_get_area)
    i.layout_update_core                     0x0801138c   Section        0  lv_obj_pos.o(i.layout_update_core)
    layout_update_core                       0x0801138d   Thumb Code   102  lv_obj_pos.o(i.layout_update_core)
    i.line_mask_flat                         0x080113fc   Section        0  lv_draw_mask.o(i.line_mask_flat)
    line_mask_flat                           0x080113fd   Thumb Code   340  lv_draw_mask.o(i.line_mask_flat)
    i.line_mask_steep                        0x08011550   Section        0  lv_draw_mask.o(i.line_mask_steep)
    line_mask_steep                          0x08011551   Thumb Code   474  lv_draw_mask.o(i.line_mask_steep)
    i.list_release_handler                   0x0801172a   Section        0  lv_dropdown.o(i.list_release_handler)
    list_release_handler                     0x0801172b   Thumb Code   118  lv_dropdown.o(i.list_release_handler)
    i.lv_anim_del                            0x080117a0   Section        0  lv_anim.o(i.lv_anim_del)
    i.lv_anim_get                            0x08011800   Section        0  lv_anim.o(i.lv_anim_get)
    i.lv_anim_init                           0x08011830   Section        0  lv_anim.o(i.lv_anim_init)
    i.lv_anim_path_ease_in_out               0x08011860   Section        0  lv_anim.o(i.lv_anim_path_ease_in_out)
    i.lv_anim_path_ease_out                  0x08011892   Section        0  lv_anim.o(i.lv_anim_path_ease_out)
    i.lv_anim_path_linear                    0x080118c6   Section        0  lv_anim.o(i.lv_anim_path_linear)
    i.lv_anim_path_step                      0x080118ea   Section        0  lv_anim.o(i.lv_anim_path_step)
    i.lv_anim_speed_to_time                  0x080118fa   Section        0  lv_anim.o(i.lv_anim_speed_to_time)
    i.lv_anim_start                          0x08011914   Section        0  lv_anim.o(i.lv_anim_start)
    i.lv_arc_constructor                     0x0801198c   Section        0  lv_arc.o(i.lv_arc_constructor)
    lv_arc_constructor                       0x0801198d   Thumb Code   100  lv_arc.o(i.lv_arc_constructor)
    i.lv_arc_create                          0x080119f0   Section        0  lv_arc.o(i.lv_arc_create)
    i.lv_arc_draw                            0x08011a08   Section        0  lv_arc.o(i.lv_arc_draw)
    lv_arc_draw                              0x08011a09   Thumb Code   440  lv_arc.o(i.lv_arc_draw)
    i.lv_arc_event                           0x08011bc4   Section        0  lv_arc.o(i.lv_arc_event)
    lv_arc_event                             0x08011bc5   Thumb Code  1038  lv_arc.o(i.lv_arc_event)
    i.lv_arc_set_angles                      0x08011fd2   Section        0  lv_arc.o(i.lv_arc_set_angles)
    i.lv_arc_set_bg_angles                   0x08011fea   Section        0  lv_arc.o(i.lv_arc_set_bg_angles)
    i.lv_arc_set_bg_end_angle                0x08012002   Section        0  lv_arc.o(i.lv_arc_set_bg_end_angle)
    i.lv_arc_set_bg_start_angle              0x0801206e   Section        0  lv_arc.o(i.lv_arc_set_bg_start_angle)
    i.lv_arc_set_end_angle                   0x080120da   Section        0  lv_arc.o(i.lv_arc_set_end_angle)
    i.lv_arc_set_rotation                    0x0801214c   Section        0  lv_arc.o(i.lv_arc_set_rotation)
    i.lv_arc_set_start_angle                 0x08012152   Section        0  lv_arc.o(i.lv_arc_set_start_angle)
    i.lv_arc_set_value                       0x080121c4   Section        0  lv_arc.o(i.lv_arc_set_value)
    i.lv_area_copy                           0x080121ec   Section        0  lv_obj.o(i.lv_area_copy)
    lv_area_copy                             0x080121ed   Thumb Code    18  lv_obj.o(i.lv_area_copy)
    i.lv_area_copy                           0x080121fe   Section        0  lv_obj_pos.o(i.lv_area_copy)
    lv_area_copy                             0x080121ff   Thumb Code    18  lv_obj_pos.o(i.lv_area_copy)
    i.lv_area_copy                           0x08012210   Section        0  lv_refr.o(i.lv_area_copy)
    lv_area_copy                             0x08012211   Thumb Code    18  lv_refr.o(i.lv_area_copy)
    i.lv_area_copy                           0x08012222   Section        0  lv_draw_img.o(i.lv_area_copy)
    lv_area_copy                             0x08012223   Thumb Code    18  lv_draw_img.o(i.lv_area_copy)
    i.lv_area_copy                           0x08012234   Section        0  lv_draw_mask.o(i.lv_area_copy)
    lv_area_copy                             0x08012235   Thumb Code    18  lv_draw_mask.o(i.lv_area_copy)
    i.lv_area_copy                           0x08012246   Section        0  lv_draw_sw_img.o(i.lv_area_copy)
    lv_area_copy                             0x08012247   Thumb Code    18  lv_draw_sw_img.o(i.lv_area_copy)
    i.lv_area_copy                           0x08012258   Section        0  lv_draw_sw_rect.o(i.lv_area_copy)
    lv_area_copy                             0x08012259   Thumb Code    18  lv_draw_sw_rect.o(i.lv_area_copy)
    i.lv_area_copy                           0x0801226a   Section        0  lv_bar.o(i.lv_area_copy)
    lv_area_copy                             0x0801226b   Thumb Code    18  lv_bar.o(i.lv_area_copy)
    i.lv_area_copy                           0x0801227c   Section        0  lv_btnmatrix.o(i.lv_area_copy)
    lv_area_copy                             0x0801227d   Thumb Code    18  lv_btnmatrix.o(i.lv_area_copy)
    i.lv_area_copy                           0x0801228e   Section        0  lv_img.o(i.lv_area_copy)
    lv_area_copy                             0x0801228f   Thumb Code    18  lv_img.o(i.lv_area_copy)
    i.lv_area_copy                           0x080122a0   Section        0  lv_slider.o(i.lv_area_copy)
    lv_area_copy                             0x080122a1   Thumb Code    18  lv_slider.o(i.lv_area_copy)
    i.lv_area_copy                           0x080122b2   Section        0  lv_textarea.o(i.lv_area_copy)
    lv_area_copy                             0x080122b3   Thumb Code    18  lv_textarea.o(i.lv_area_copy)
    i.lv_area_get_height                     0x080122c4   Section        0  lv_flex.o(i.lv_area_get_height)
    lv_area_get_height                       0x080122c5   Thumb Code    12  lv_flex.o(i.lv_area_get_height)
    i.lv_area_get_height                     0x080122d0   Section        0  lv_draw_sw_rect.o(i.lv_area_get_height)
    lv_area_get_height                       0x080122d1   Thumb Code    12  lv_draw_sw_rect.o(i.lv_area_get_height)
    i.lv_area_get_height                     0x080122dc   Section        0  lv_bar.o(i.lv_area_get_height)
    lv_area_get_height                       0x080122dd   Thumb Code    12  lv_bar.o(i.lv_area_get_height)
    i.lv_area_get_size                       0x080122e8   Section        0  lv_area.o(i.lv_area_get_size)
    i.lv_area_get_width                      0x08012304   Section        0  lv_draw_label.o(i.lv_area_get_width)
    lv_area_get_width                        0x08012305   Thumb Code    12  lv_draw_label.o(i.lv_area_get_width)
    i.lv_area_get_width                      0x08012310   Section        0  lv_flex.o(i.lv_area_get_width)
    lv_area_get_width                        0x08012311   Thumb Code    12  lv_flex.o(i.lv_area_get_width)
    i.lv_area_get_width                      0x0801231c   Section        0  lv_draw_sw_rect.o(i.lv_area_get_width)
    lv_area_get_width                        0x0801231d   Thumb Code    12  lv_draw_sw_rect.o(i.lv_area_get_width)
    i.lv_area_get_width                      0x08012328   Section        0  lv_bar.o(i.lv_area_get_width)
    lv_area_get_width                        0x08012329   Thumb Code    12  lv_bar.o(i.lv_area_get_width)
    i.lv_area_increase                       0x08012334   Section        0  lv_area.o(i.lv_area_increase)
    i.lv_area_move                           0x0801234e   Section        0  lv_area.o(i.lv_area_move)
    i.lv_area_set                            0x08012368   Section        0  lv_area.o(i.lv_area_set)
    i.lv_area_set_height                     0x08012376   Section        0  lv_area.o(i.lv_area_set_height)
    i.lv_area_set_width                      0x08012380   Section        0  lv_area.o(i.lv_area_set_width)
    i.lv_async_call                          0x0801238c   Section        0  lv_async.o(i.lv_async_call)
    i.lv_async_call_cancel                   0x080123c4   Section        0  lv_async.o(i.lv_async_call_cancel)
    i.lv_async_timer_cb                      0x08012418   Section        0  lv_async.o(i.lv_async_timer_cb)
    lv_async_timer_cb                        0x08012419   Thumb Code    28  lv_async.o(i.lv_async_timer_cb)
    i.lv_atan2                               0x08012434   Section        0  lv_math.o(i.lv_atan2)
    i.lv_bar_anim                            0x080124c6   Section        0  lv_bar.o(i.lv_bar_anim)
    lv_bar_anim                              0x080124c7   Thumb Code     8  lv_bar.o(i.lv_bar_anim)
    i.lv_bar_anim_ready                      0x080124ce   Section        0  lv_bar.o(i.lv_bar_anim_ready)
    lv_bar_anim_ready                        0x080124cf   Thumb Code    42  lv_bar.o(i.lv_bar_anim_ready)
    i.lv_bar_constructor                     0x080124f8   Section        0  lv_bar.o(i.lv_bar_constructor)
    lv_bar_constructor                       0x080124f9   Thumb Code    78  lv_bar.o(i.lv_bar_constructor)
    i.lv_bar_create                          0x08012548   Section        0  lv_bar.o(i.lv_bar_create)
    i.lv_bar_destructor                      0x08012560   Section        0  lv_bar.o(i.lv_bar_destructor)
    lv_bar_destructor                        0x08012561   Thumb Code    28  lv_bar.o(i.lv_bar_destructor)
    i.lv_bar_event                           0x0801257c   Section        0  lv_bar.o(i.lv_bar_event)
    lv_bar_event                             0x0801257d   Thumb Code   204  lv_bar.o(i.lv_bar_event)
    i.lv_bar_get_mode                        0x0801264c   Section        0  lv_bar.o(i.lv_bar_get_mode)
    i.lv_bar_get_start_value                 0x08012656   Section        0  lv_bar.o(i.lv_bar_get_start_value)
    i.lv_bar_get_value                       0x08012674   Section        0  lv_bar.o(i.lv_bar_get_value)
    i.lv_bar_init_anim                       0x08012682   Section        0  lv_bar.o(i.lv_bar_init_anim)
    lv_bar_init_anim                         0x08012683   Thumb Code    14  lv_bar.o(i.lv_bar_init_anim)
    i.lv_bar_set_range                       0x08012690   Section        0  lv_bar.o(i.lv_bar_set_range)
    i.lv_bar_set_start_value                 0x080126e8   Section        0  lv_bar.o(i.lv_bar_set_start_value)
    i.lv_bar_set_value                       0x08012732   Section        0  lv_bar.o(i.lv_bar_set_value)
    i.lv_bar_set_value_with_anim             0x08012774   Section        0  lv_bar.o(i.lv_bar_set_value_with_anim)
    lv_bar_set_value_with_anim               0x08012775   Thumb Code   118  lv_bar.o(i.lv_bar_set_value_with_anim)
    i.lv_bezier3                             0x080127f4   Section        0  lv_math.o(i.lv_bezier3)
    i.lv_btn_constructor                     0x08012842   Section        0  lv_btn.o(i.lv_btn_constructor)
    lv_btn_constructor                       0x08012843   Thumb Code    26  lv_btn.o(i.lv_btn_constructor)
    i.lv_btn_create                          0x0801285c   Section        0  lv_btn.o(i.lv_btn_create)
    i.lv_btnmatrix_clear_btn_ctrl            0x08012874   Section        0  lv_btnmatrix.o(i.lv_btnmatrix_clear_btn_ctrl)
    i.lv_btnmatrix_clear_btn_ctrl_all        0x080128a2   Section        0  lv_btnmatrix.o(i.lv_btnmatrix_clear_btn_ctrl_all)
    i.lv_btnmatrix_constructor               0x080128c4   Section        0  lv_btnmatrix.o(i.lv_btnmatrix_constructor)
    lv_btnmatrix_constructor                 0x080128c5   Thumb Code    30  lv_btnmatrix.o(i.lv_btnmatrix_constructor)
    i.lv_btnmatrix_create                    0x080128e8   Section        0  lv_btnmatrix.o(i.lv_btnmatrix_create)
    i.lv_btnmatrix_destructor                0x08012900   Section        0  lv_btnmatrix.o(i.lv_btnmatrix_destructor)
    lv_btnmatrix_destructor                  0x08012901   Thumb Code    24  lv_btnmatrix.o(i.lv_btnmatrix_destructor)
    i.lv_btnmatrix_event                     0x08012918   Section        0  lv_btnmatrix.o(i.lv_btnmatrix_event)
    lv_btnmatrix_event                       0x08012919   Thumb Code  1294  lv_btnmatrix.o(i.lv_btnmatrix_event)
    i.lv_btnmatrix_get_btn_text              0x08012e28   Section        0  lv_btnmatrix.o(i.lv_btnmatrix_get_btn_text)
    i.lv_btnmatrix_get_selected_btn          0x08012e7c   Section        0  lv_btnmatrix.o(i.lv_btnmatrix_get_selected_btn)
    i.lv_btnmatrix_has_btn_ctrl              0x08012e80   Section        0  lv_btnmatrix.o(i.lv_btnmatrix_has_btn_ctrl)
    i.lv_btnmatrix_set_btn_ctrl              0x08012e98   Section        0  lv_btnmatrix.o(i.lv_btnmatrix_set_btn_ctrl)
    i.lv_btnmatrix_set_btn_ctrl_all          0x08012ede   Section        0  lv_btnmatrix.o(i.lv_btnmatrix_set_btn_ctrl_all)
    i.lv_btnmatrix_set_ctrl_map              0x08012efe   Section        0  lv_btnmatrix.o(i.lv_btnmatrix_set_ctrl_map)
    i.lv_btnmatrix_set_map                   0x08012f18   Section        0  lv_btnmatrix.o(i.lv_btnmatrix_set_map)
    i.lv_btnmatrix_set_one_checked           0x080130fc   Section        0  lv_btnmatrix.o(i.lv_btnmatrix_set_one_checked)
    i.lv_btnmatrix_set_selected_btn          0x08013106   Section        0  lv_btnmatrix.o(i.lv_btnmatrix_set_selected_btn)
    i.lv_calendar_constructor                0x08013134   Section        0  lv_calendar.o(i.lv_calendar_constructor)
    lv_calendar_constructor                  0x08013135   Thumb Code   236  lv_calendar.o(i.lv_calendar_constructor)
    i.lv_calendar_create                     0x08013230   Section        0  lv_calendar.o(i.lv_calendar_create)
    i.lv_calendar_get_showed_date            0x08013248   Section        0  lv_calendar.o(i.lv_calendar_get_showed_date)
    i.lv_calendar_set_showed_date            0x0801324c   Section        0  lv_calendar.o(i.lv_calendar_set_showed_date)
    i.lv_calendar_set_today_date             0x08013384   Section        0  lv_calendar.o(i.lv_calendar_set_today_date)
    i.lv_chart_add_series                    0x08013394   Section        0  lv_chart.o(i.lv_chart_add_series)
    i.lv_chart_constructor                   0x0801342c   Section        0  lv_chart.o(i.lv_chart_constructor)
    lv_chart_constructor                     0x0801342d   Thumb Code    88  lv_chart.o(i.lv_chart_constructor)
    i.lv_chart_create                        0x08013484   Section        0  lv_chart.o(i.lv_chart_create)
    i.lv_chart_destructor                    0x0801349c   Section        0  lv_chart.o(i.lv_chart_destructor)
    lv_chart_destructor                      0x0801349d   Thumb Code   100  lv_chart.o(i.lv_chart_destructor)
    i.lv_chart_event                         0x08013500   Section        0  lv_chart.o(i.lv_chart_event)
    lv_chart_event                           0x08013501   Thumb Code   510  lv_chart.o(i.lv_chart_event)
    i.lv_chart_get_point_pos_by_id           0x08013704   Section        0  lv_chart.o(i.lv_chart_get_point_pos_by_id)
    i.lv_chart_set_next_value                0x08013894   Section        0  lv_chart.o(i.lv_chart_set_next_value)
    i.lv_checkbox_constructor                0x080138cc   Section        0  lv_checkbox.o(i.lv_checkbox_constructor)
    lv_checkbox_constructor                  0x080138cd   Thumb Code    42  lv_checkbox.o(i.lv_checkbox_constructor)
    i.lv_checkbox_create                     0x08013904   Section        0  lv_checkbox.o(i.lv_checkbox_create)
    i.lv_checkbox_destructor                 0x0801391c   Section        0  lv_checkbox.o(i.lv_checkbox_destructor)
    lv_checkbox_destructor                   0x0801391d   Thumb Code    24  lv_checkbox.o(i.lv_checkbox_destructor)
    i.lv_checkbox_draw                       0x08013934   Section        0  lv_checkbox.o(i.lv_checkbox_draw)
    lv_checkbox_draw                         0x08013935   Thumb Code   436  lv_checkbox.o(i.lv_checkbox_draw)
    i.lv_checkbox_event                      0x08013aec   Section        0  lv_checkbox.o(i.lv_checkbox_event)
    lv_checkbox_event                        0x08013aed   Thumb Code   248  lv_checkbox.o(i.lv_checkbox_event)
    i.lv_checkbox_set_text                   0x08013be8   Section        0  lv_checkbox.o(i.lv_checkbox_set_text)
    i.lv_clamp_height                        0x08013c2a   Section        0  lv_obj_pos.o(i.lv_clamp_height)
    i.lv_clamp_width                         0x08013c94   Section        0  lv_obj_pos.o(i.lv_clamp_width)
    i.lv_color_black                         0x08013cfe   Section        0  lv_draw_label.o(i.lv_color_black)
    lv_color_black                           0x08013cff   Thumb Code    20  lv_draw_label.o(i.lv_color_black)
    i.lv_color_black                         0x08013d12   Section        0  lv_draw_rect.o(i.lv_color_black)
    lv_color_black                           0x08013d13   Thumb Code    20  lv_draw_rect.o(i.lv_color_black)
    i.lv_color_black                         0x08013d26   Section        0  lv_led.o(i.lv_color_black)
    lv_color_black                           0x08013d27   Thumb Code    38  lv_led.o(i.lv_color_black)
    i.lv_color_black                         0x08013d4c   Section        0  lv_color.o(i.lv_color_black)
    lv_color_black                           0x08013d4d   Thumb Code    20  lv_color.o(i.lv_color_black)
    i.lv_color_brightness                    0x08013d60   Section        0  lv_led.o(i.lv_color_brightness)
    lv_color_brightness                      0x08013d61   Thumb Code    92  lv_led.o(i.lv_color_brightness)
    i.lv_color_darken                        0x08013dbc   Section        0  lv_color.o(i.lv_color_darken)
    i.lv_color_fill                          0x08013dd8   Section        0  lv_color.o(i.lv_color_fill)
    i.lv_color_hex                           0x08013e24   Section        0  lv_theme_default.o(i.lv_color_hex)
    lv_color_hex                             0x08013e25   Thumb Code    34  lv_theme_default.o(i.lv_color_hex)
    i.lv_color_hsv_to_rgb                    0x08013e46   Section        0  lv_color.o(i.lv_color_hsv_to_rgb)
    i.lv_color_make                          0x08013ef8   Section        0  lv_draw_img.o(i.lv_color_make)
    lv_color_make                            0x08013ef9   Thumb Code    48  lv_draw_img.o(i.lv_color_make)
    i.lv_color_make                          0x08013f28   Section        0  lv_draw_label.o(i.lv_color_make)
    lv_color_make                            0x08013f29   Thumb Code    48  lv_draw_label.o(i.lv_color_make)
    i.lv_color_make                          0x08013f58   Section        0  lv_draw_rect.o(i.lv_color_make)
    lv_color_make                            0x08013f59   Thumb Code    48  lv_draw_rect.o(i.lv_color_make)
    i.lv_color_make                          0x08013f88   Section        0  lv_img_decoder.o(i.lv_color_make)
    lv_color_make                            0x08013f89   Thumb Code    48  lv_img_decoder.o(i.lv_color_make)
    i.lv_color_make                          0x08013fb8   Section        0  lv_color.o(i.lv_color_make)
    lv_color_make                            0x08013fb9   Thumb Code    48  lv_color.o(i.lv_color_make)
    i.lv_color_make                          0x08013fe8   Section        0  lv_style.o(i.lv_color_make)
    lv_color_make                            0x08013fe9   Thumb Code    48  lv_style.o(i.lv_color_make)
    i.lv_color_mix                           0x08014018   Section        0  lv_theme_default.o(i.lv_color_mix)
    lv_color_mix                             0x08014019   Thumb Code    46  lv_theme_default.o(i.lv_color_mix)
    i.lv_color_mix                           0x0801404c   Section        0  lv_draw_sw_blend.o(i.lv_color_mix)
    lv_color_mix                             0x0801404d   Thumb Code    46  lv_draw_sw_blend.o(i.lv_color_mix)
    i.lv_color_mix                           0x08014080   Section        0  lv_draw_sw_transform.o(i.lv_color_mix)
    lv_color_mix                             0x08014081   Thumb Code    46  lv_draw_sw_transform.o(i.lv_color_mix)
    i.lv_color_mix                           0x080140b4   Section        0  lv_led.o(i.lv_color_mix)
    lv_color_mix                             0x080140b5   Thumb Code    46  lv_led.o(i.lv_color_mix)
    i.lv_color_mix                           0x080140e8   Section        0  lv_color.o(i.lv_color_mix)
    lv_color_mix                             0x080140e9   Thumb Code    46  lv_color.o(i.lv_color_mix)
    i.lv_color_mix_with_alpha                0x0801411c   Section        0  lv_draw_sw_blend.o(i.lv_color_mix_with_alpha)
    lv_color_mix_with_alpha                  0x0801411d   Thumb Code   188  lv_draw_sw_blend.o(i.lv_color_mix_with_alpha)
    i.lv_color_to32                          0x080141dc   Section        0  lv_draw_sw_gradient.o(i.lv_color_to32)
    lv_color_to32                            0x080141dd   Thumb Code    70  lv_draw_sw_gradient.o(i.lv_color_to32)
    i.lv_color_white                         0x08014222   Section        0  lv_draw_rect.o(i.lv_color_white)
    lv_color_white                           0x08014223   Thumb Code    20  lv_draw_rect.o(i.lv_color_white)
    i.lv_color_white                         0x08014236   Section        0  lv_theme_default.o(i.lv_color_white)
    lv_color_white                           0x08014237   Thumb Code    40  lv_theme_default.o(i.lv_color_white)
    i.lv_colorwheel_constructor              0x08014260   Section        0  lv_colorwheel.o(i.lv_colorwheel_constructor)
    lv_colorwheel_constructor                0x08014261   Thumb Code    72  lv_colorwheel.o(i.lv_colorwheel_constructor)
    i.lv_colorwheel_create                   0x080142ac   Section        0  lv_colorwheel.o(i.lv_colorwheel_create)
    i.lv_colorwheel_event                    0x080142cc   Section        0  lv_colorwheel.o(i.lv_colorwheel_event)
    lv_colorwheel_event                      0x080142cd   Thumb Code  1032  lv_colorwheel.o(i.lv_colorwheel_event)
    i.lv_colorwheel_get_rgb                  0x080146d4   Section        0  lv_colorwheel.o(i.lv_colorwheel_get_rgb)
    i.lv_colorwheel_set_hsv                  0x080146ec   Section        0  lv_colorwheel.o(i.lv_colorwheel_set_hsv)
    i.lv_demo_stress                         0x08014754   Section        0  lv_demo_stress.o(i.lv_demo_stress)
    i.lv_disp_dpx                            0x08014764   Section        0  lv_theme_default.o(i.lv_disp_dpx)
    lv_disp_dpx                              0x08014765   Thumb Code    54  lv_theme_default.o(i.lv_disp_dpx)
    i.lv_disp_draw_buf_init                  0x0801479a   Section        0  lv_hal_disp.o(i.lv_disp_draw_buf_init)
    i.lv_disp_drv_init                       0x080147b8   Section        0  lv_hal_disp.o(i.lv_disp_drv_init)
    i.lv_disp_drv_register                   0x08014814   Section        0  lv_hal_disp.o(i.lv_disp_drv_register)
    i.lv_disp_flush_ready                    0x08014964   Section        0  lv_hal_disp.o(i.lv_disp_flush_ready)
    i.lv_disp_get_default                    0x08014970   Section        0  lv_hal_disp.o(i.lv_disp_get_default)
    i.lv_disp_get_dpi                        0x0801497c   Section        0  lv_hal_disp.o(i.lv_disp_get_dpi)
    i.lv_disp_get_draw_buf                   0x08014998   Section        0  lv_hal_disp.o(i.lv_disp_get_draw_buf)
    i.lv_disp_get_hor_res                    0x080149a0   Section        0  lv_hal_disp.o(i.lv_disp_get_hor_res)
    i.lv_disp_get_layer_sys                  0x080149cc   Section        0  lv_disp.o(i.lv_disp_get_layer_sys)
    i.lv_disp_get_layer_top                  0x080149dc   Section        0  lv_disp.o(i.lv_disp_get_layer_top)
    i.lv_disp_get_next                       0x080149ec   Section        0  lv_hal_disp.o(i.lv_disp_get_next)
    i.lv_disp_get_scr_act                    0x08014a00   Section        0  lv_disp.o(i.lv_disp_get_scr_act)
    i.lv_disp_get_scr_prev                   0x08014a10   Section        0  lv_disp.o(i.lv_disp_get_scr_prev)
    i.lv_disp_get_theme                      0x08014a20   Section        0  lv_disp.o(i.lv_disp_get_theme)
    i.lv_disp_get_ver_res                    0x08014a2c   Section        0  lv_hal_disp.o(i.lv_disp_get_ver_res)
    i.lv_disp_is_invalidation_enabled        0x08014a58   Section        0  lv_disp.o(i.lv_disp_is_invalidation_enabled)
    i.lv_draw_arc                            0x08014a74   Section        0  lv_draw_arc.o(i.lv_draw_arc)
    i.lv_draw_arc_dsc_init                   0x08014a94   Section        0  lv_draw_arc.o(i.lv_draw_arc_dsc_init)
    i.lv_draw_arc_get_area                   0x08014ad4   Section        0  lv_draw_arc.o(i.lv_draw_arc_get_area)
    i.lv_draw_img                            0x08014e84   Section        0  lv_draw_img.o(i.lv_draw_img)
    i.lv_draw_img_decoded                    0x08014ec4   Section        0  lv_draw_img.o(i.lv_draw_img_decoded)
    i.lv_draw_img_dsc_init                   0x08014ed4   Section        0  lv_draw_img.o(i.lv_draw_img_dsc_init)
    i.lv_draw_init                           0x08014f06   Section        0  lv_draw.o(i.lv_draw_init)
    i.lv_draw_label                          0x08014f08   Section        0  lv_draw_label.o(i.lv_draw_label)
    i.lv_draw_label_dsc_init                 0x08015440   Section        0  lv_draw_label.o(i.lv_draw_label_dsc_init)
    i.lv_draw_layer_adjust                   0x0801548c   Section        0  lv_draw_layer.o(i.lv_draw_layer_adjust)
    i.lv_draw_layer_blend                    0x08015496   Section        0  lv_draw_layer.o(i.lv_draw_layer_blend)
    i.lv_draw_layer_create                   0x080154a0   Section        0  lv_draw_layer.o(i.lv_draw_layer_create)
    i.lv_draw_layer_destroy                  0x080154fa   Section        0  lv_draw_layer.o(i.lv_draw_layer_destroy)
    i.lv_draw_letter                         0x0801552a   Section        0  lv_draw_label.o(i.lv_draw_letter)
    i.lv_draw_line                           0x08015534   Section        0  lv_draw_line.o(i.lv_draw_line)
    i.lv_draw_line_dsc_init                  0x0801554e   Section        0  lv_draw_line.o(i.lv_draw_line_dsc_init)
    i.lv_draw_mask_add                       0x08015590   Section        0  lv_draw_mask.o(i.lv_draw_mask_add)
    i.lv_draw_mask_angle                     0x080155c4   Section        0  lv_draw_mask.o(i.lv_draw_mask_angle)
    lv_draw_mask_angle                       0x080155c5   Thumb Code   612  lv_draw_mask.o(i.lv_draw_mask_angle)
    i.lv_draw_mask_angle_init                0x08015828   Section        0  lv_draw_mask.o(i.lv_draw_mask_angle_init)
    i.lv_draw_mask_apply                     0x080158d4   Section        0  lv_draw_mask.o(i.lv_draw_mask_apply)
    i.lv_draw_mask_free_param                0x08015918   Section        0  lv_draw_mask.o(i.lv_draw_mask_free_param)
    i.lv_draw_mask_is_any                    0x08015950   Section        0  lv_draw_mask.o(i.lv_draw_mask_is_any)
    i.lv_draw_mask_line                      0x080159a4   Section        0  lv_draw_mask.o(i.lv_draw_mask_line)
    lv_draw_mask_line                        0x080159a5   Thumb Code   172  lv_draw_mask.o(i.lv_draw_mask_line)
    i.lv_draw_mask_line_angle_init           0x08015a50   Section        0  lv_draw_mask.o(i.lv_draw_mask_line_angle_init)
    i.lv_draw_mask_line_points_init          0x08015a98   Section        0  lv_draw_mask.o(i.lv_draw_mask_line_points_init)
    i.lv_draw_mask_radius                    0x08015bb0   Section        0  lv_draw_mask.o(i.lv_draw_mask_radius)
    lv_draw_mask_radius                      0x08015bb1   Thumb Code   630  lv_draw_mask.o(i.lv_draw_mask_radius)
    i.lv_draw_mask_radius_init               0x08015e28   Section        0  lv_draw_mask.o(i.lv_draw_mask_radius_init)
    i.lv_draw_mask_remove_custom             0x08015f50   Section        0  lv_draw_mask.o(i.lv_draw_mask_remove_custom)
    i.lv_draw_mask_remove_id                 0x08015f80   Section        0  lv_draw_mask.o(i.lv_draw_mask_remove_id)
    i.lv_draw_rect                           0x08015fa0   Section        0  lv_draw_rect.o(i.lv_draw_rect)
    i.lv_draw_rect_dsc_init                  0x08015fc8   Section        0  lv_draw_rect.o(i.lv_draw_rect_dsc_init)
    i.lv_draw_sw_arc                         0x08016040   Section        0  lv_draw_sw_arc.o(i.lv_draw_sw_arc)
    i.lv_draw_sw_bg                          0x0801639e   Section        0  lv_draw_sw_rect.o(i.lv_draw_sw_bg)
    i.lv_draw_sw_blend                       0x080163b8   Section        0  lv_draw_sw_blend.o(i.lv_draw_sw_blend)
    i.lv_draw_sw_blend_basic                 0x080163e4   Section        0  lv_draw_sw_blend.o(i.lv_draw_sw_blend_basic)
    i.lv_draw_sw_buffer_convert              0x08016590   Section        0  lv_draw_sw.o(i.lv_draw_sw_buffer_convert)
    i.lv_draw_sw_buffer_copy                 0x08016706   Section        0  lv_draw_sw.o(i.lv_draw_sw_buffer_copy)
    i.lv_draw_sw_deinit_ctx                  0x0801676c   Section        0  lv_draw_sw.o(i.lv_draw_sw_deinit_ctx)
    i.lv_draw_sw_img_decoded                 0x08016778   Section        0  lv_draw_sw_img.o(i.lv_draw_sw_img_decoded)
    i.lv_draw_sw_init_ctx                    0x08016af4   Section        0  lv_draw_sw.o(i.lv_draw_sw_init_ctx)
    i.lv_draw_sw_layer_adjust                0x08016b88   Section        0  lv_draw_sw_layer.o(i.lv_draw_sw_layer_adjust)
    i.lv_draw_sw_layer_blend                 0x08016bac   Section        0  lv_draw_sw_layer.o(i.lv_draw_sw_layer_blend)
    i.lv_draw_sw_layer_create                0x08016c22   Section        0  lv_draw_sw_layer.o(i.lv_draw_sw_layer_create)
    i.lv_draw_sw_layer_destroy               0x08016cde   Section        0  lv_draw_sw_layer.o(i.lv_draw_sw_layer_destroy)
    i.lv_draw_sw_letter                      0x08016ce4   Section        0  lv_draw_sw_letter.o(i.lv_draw_sw_letter)
    i.lv_draw_sw_line                        0x08016dfa   Section        0  lv_draw_sw_line.o(i.lv_draw_sw_line)
    i.lv_draw_sw_polygon                     0x08016f9c   Section        0  lv_draw_sw_polygon.o(i.lv_draw_sw_polygon)
    i.lv_draw_sw_rect                        0x0801721c   Section        0  lv_draw_sw_rect.o(i.lv_draw_sw_rect)
    i.lv_draw_sw_transform                   0x08017254   Section        0  lv_draw_sw_transform.o(i.lv_draw_sw_transform)
    i.lv_draw_sw_wait_for_finish             0x0801751a   Section        0  lv_draw_sw.o(i.lv_draw_sw_wait_for_finish)
    i.lv_draw_transform                      0x0801751c   Section        0  lv_draw_transform.o(i.lv_draw_transform)
    i.lv_draw_wait_for_finish                0x08017552   Section        0  lv_draw.o(i.lv_draw_wait_for_finish)
    i.lv_dropdown_close                      0x0801755c   Section        0  lv_dropdown.o(i.lv_dropdown_close)
    i.lv_dropdown_constructor                0x08017584   Section        0  lv_dropdown.o(i.lv_dropdown_constructor)
    lv_dropdown_constructor                  0x08017585   Thumb Code    98  lv_dropdown.o(i.lv_dropdown_constructor)
    i.lv_dropdown_create                     0x0801760c   Section        0  lv_dropdown.o(i.lv_dropdown_create)
    i.lv_dropdown_destructor                 0x08017624   Section        0  lv_dropdown.o(i.lv_dropdown_destructor)
    lv_dropdown_destructor                   0x08017625   Thumb Code    34  lv_dropdown.o(i.lv_dropdown_destructor)
    i.lv_dropdown_event                      0x08017648   Section        0  lv_dropdown.o(i.lv_dropdown_event)
    lv_dropdown_event                        0x08017649   Thumb Code   260  lv_dropdown.o(i.lv_dropdown_event)
    i.lv_dropdown_get_selected               0x08017750   Section        0  lv_dropdown.o(i.lv_dropdown_get_selected)
    i.lv_dropdown_get_selected_str           0x08017754   Section        0  lv_dropdown.o(i.lv_dropdown_get_selected_str)
    i.lv_dropdown_is_open                    0x080177b4   Section        0  lv_dropdown.o(i.lv_dropdown_is_open)
    i.lv_dropdown_list_event                 0x080177c4   Section        0  lv_dropdown.o(i.lv_dropdown_list_event)
    lv_dropdown_list_event                   0x080177c5   Thumb Code   164  lv_dropdown.o(i.lv_dropdown_list_event)
    i.lv_dropdown_open                       0x0801786c   Section        0  lv_dropdown.o(i.lv_dropdown_open)
    i.lv_dropdown_set_options                0x08017a6a   Section        0  lv_dropdown.o(i.lv_dropdown_set_options)
    i.lv_dropdown_set_options_static         0x08017aea   Section        0  lv_dropdown.o(i.lv_dropdown_set_options_static)
    i.lv_dropdown_set_selected               0x08017b4e   Section        0  lv_dropdown.o(i.lv_dropdown_set_selected)
    i.lv_dropdownlist_constructor            0x08017b66   Section        0  lv_dropdown.o(i.lv_dropdownlist_constructor)
    lv_dropdownlist_constructor              0x08017b67   Thumb Code    50  lv_dropdown.o(i.lv_dropdownlist_constructor)
    i.lv_dropdownlist_destructor             0x08017b98   Section        0  lv_dropdown.o(i.lv_dropdownlist_destructor)
    lv_dropdownlist_destructor               0x08017b99   Thumb Code     8  lv_dropdown.o(i.lv_dropdownlist_destructor)
    i.lv_event_get_code                      0x08017ba0   Section        0  lv_event.o(i.lv_event_get_code)
    i.lv_event_get_current_target            0x08017ba8   Section        0  lv_event.o(i.lv_event_get_current_target)
    i.lv_event_get_draw_ctx                  0x08017bac   Section        0  lv_event.o(i.lv_event_get_draw_ctx)
    i.lv_event_get_indev                     0x08017bce   Section        0  lv_event.o(i.lv_event_get_indev)
    i.lv_event_get_param                     0x08017c18   Section        0  lv_event.o(i.lv_event_get_param)
    i.lv_event_get_target                    0x08017c1c   Section        0  lv_event.o(i.lv_event_get_target)
    i.lv_event_get_user_data                 0x08017c20   Section        0  lv_event.o(i.lv_event_get_user_data)
    i.lv_event_send                          0x08017c24   Section        0  lv_event.o(i.lv_event_send)
    i.lv_event_set_ext_draw_size             0x08017c64   Section        0  lv_event.o(i.lv_event_set_ext_draw_size)
    i.lv_flex_init                           0x08017c7c   Section        0  lv_flex.o(i.lv_flex_init)
    i.lv_font_get_bitmap_fmt_txt             0x08017cb4   Section        0  lv_font_fmt_txt.o(i.lv_font_get_bitmap_fmt_txt)
    i.lv_font_get_glyph_bitmap               0x08017ce2   Section        0  lv_font.o(i.lv_font_get_glyph_bitmap)
    i.lv_font_get_glyph_dsc                  0x08017cea   Section        0  lv_font.o(i.lv_font_get_glyph_dsc)
    i.lv_font_get_glyph_dsc_fmt_txt          0x08017d90   Section        0  lv_font_fmt_txt.o(i.lv_font_get_glyph_dsc_fmt_txt)
    i.lv_font_get_glyph_width                0x08017e32   Section        0  lv_font.o(i.lv_font_get_glyph_width)
    i.lv_free                                0x08017e4c   Section        0  lv_mem.o(i.lv_free)
    i.lv_free_builtin                        0x08017e60   Section        0  lv_malloc_builtin.o(i.lv_free_builtin)
    i.lv_fs_close                            0x08017e80   Section        0  lv_fs.o(i.lv_fs_close)
    i.lv_fs_get_drv                          0x08017ec0   Section        0  lv_fs.o(i.lv_fs_get_drv)
    i.lv_fs_get_ext                          0x08017ee8   Section        0  lv_fs.o(i.lv_fs_get_ext)
    i.lv_fs_get_real_path                    0x08017f14   Section        0  lv_fs.o(i.lv_fs_get_real_path)
    lv_fs_get_real_path                      0x08017f15   Thumb Code    12  lv_fs.o(i.lv_fs_get_real_path)
    i.lv_fs_open                             0x08017f20   Section        0  lv_fs.o(i.lv_fs_open)
    i.lv_fs_read                             0x08017f9c   Section        0  lv_fs.o(i.lv_fs_read)
    i.lv_fs_read_cached                      0x08017fe4   Section        0  lv_fs.o(i.lv_fs_read_cached)
    lv_fs_read_cached                        0x08017fe5   Thumb Code   308  lv_fs.o(i.lv_fs_read_cached)
    i.lv_fs_seek                             0x08018118   Section        0  lv_fs.o(i.lv_fs_seek)
    i.lv_gradient_calculate                  0x080181b2   Section        0  lv_draw_sw_gradient.o(i.lv_gradient_calculate)
    i.lv_gradient_cleanup                    0x080182ae   Section        0  lv_draw_sw_gradient.o(i.lv_gradient_cleanup)
    i.lv_gradient_get                        0x080182bc   Section        0  lv_draw_sw_gradient.o(i.lv_gradient_get)
    i.lv_gradient_set_cache_size             0x0801835c   Section        0  lv_draw_sw_gradient.o(i.lv_gradient_set_cache_size)
    i.lv_grid_init                           0x0801838c   Section        0  lv_grid.o(i.lv_grid_init)
    i.lv_group_add_obj                       0x080183f4   Section        0  lv_group.o(i.lv_group_add_obj)
    i.lv_group_focus_next                    0x08018468   Section        0  lv_group.o(i.lv_group_focus_next)
    i.lv_group_focus_prev                    0x08018494   Section        0  lv_group.o(i.lv_group_focus_prev)
    i.lv_group_get_default                   0x080184c0   Section        0  lv_group.o(i.lv_group_get_default)
    i.lv_group_get_editing                   0x080184cc   Section        0  lv_group.o(i.lv_group_get_editing)
    i.lv_group_get_focused                   0x080184d8   Section        0  lv_group.o(i.lv_group_get_focused)
    i.lv_group_refocus                       0x080184e6   Section        0  lv_group.o(i.lv_group_refocus)
    lv_group_refocus                         0x080184e7   Thumb Code    42  lv_group.o(i.lv_group_refocus)
    i.lv_group_remove_obj                    0x08018510   Section        0  lv_group.o(i.lv_group_remove_obj)
    i.lv_group_set_editing                   0x080185a8   Section        0  lv_group.o(i.lv_group_set_editing)
    i.lv_img_cache_invalidate_src            0x080185ec   Section        0  lv_img_cache.o(i.lv_img_cache_invalidate_src)
    i.lv_img_cache_invalidate_src_builtin    0x080185fc   Section        0  lv_img_cache_builtin.o(i.lv_img_cache_invalidate_src_builtin)
    lv_img_cache_invalidate_src_builtin      0x080185fd   Thumb Code     2  lv_img_cache_builtin.o(i.lv_img_cache_invalidate_src_builtin)
    i.lv_img_cache_manager_apply             0x08018600   Section        0  lv_img_cache.o(i.lv_img_cache_manager_apply)
    i.lv_img_cache_manager_init              0x08018614   Section        0  lv_img_cache.o(i.lv_img_cache_manager_init)
    i.lv_img_cache_set_size_builtin          0x08018620   Section        0  lv_img_cache_builtin.o(i.lv_img_cache_set_size_builtin)
    lv_img_cache_set_size_builtin            0x08018621   Thumb Code     2  lv_img_cache_builtin.o(i.lv_img_cache_set_size_builtin)
    i.lv_img_cf_get_px_size                  0x08018622   Section        0  lv_draw_img.o(i.lv_img_cf_get_px_size)
    i.lv_img_cf_has_alpha                    0x08018656   Section        0  lv_draw_img.o(i.lv_img_cf_has_alpha)
    i.lv_img_cf_is_chroma_keyed              0x08018676   Section        0  lv_draw_img.o(i.lv_img_cf_is_chroma_keyed)
    i.lv_img_constructor                     0x08018686   Section        0  lv_img.o(i.lv_img_constructor)
    lv_img_constructor                       0x08018687   Thumb Code    94  lv_img.o(i.lv_img_constructor)
    i.lv_img_create                          0x080186e4   Section        0  lv_img.o(i.lv_img_create)
    i.lv_img_decoder_built_in_close          0x080186fc   Section        0  lv_img_decoder.o(i.lv_img_decoder_built_in_close)
    i.lv_img_decoder_built_in_info           0x08018730   Section        0  lv_img_decoder.o(i.lv_img_decoder_built_in_info)
    i.lv_img_decoder_built_in_line_alpha     0x080187dc   Section        0  lv_img_decoder.o(i.lv_img_decoder_built_in_line_alpha)
    lv_img_decoder_built_in_line_alpha       0x080187dd   Thumb Code   374  lv_img_decoder.o(i.lv_img_decoder_built_in_line_alpha)
    i.lv_img_decoder_built_in_line_indexed   0x0801896c   Section        0  lv_img_decoder.o(i.lv_img_decoder_built_in_line_indexed)
    lv_img_decoder_built_in_line_indexed     0x0801896d   Thumb Code   318  lv_img_decoder.o(i.lv_img_decoder_built_in_line_indexed)
    i.lv_img_decoder_built_in_open           0x08018aac   Section        0  lv_img_decoder.o(i.lv_img_decoder_built_in_open)
    i.lv_img_decoder_built_in_read_line      0x08018c20   Section        0  lv_img_decoder.o(i.lv_img_decoder_built_in_read_line)
    i.lv_img_decoder_close                   0x08018cda   Section        0  lv_img_decoder.o(i.lv_img_decoder_close)
    i.lv_img_decoder_create                  0x08018d00   Section        0  lv_img_decoder.o(i.lv_img_decoder_create)
    i.lv_img_decoder_get_info                0x08018d1c   Section        0  lv_img_decoder.o(i.lv_img_decoder_get_info)
    i.lv_img_decoder_open                    0x08018d74   Section        0  lv_img_decoder.o(i.lv_img_decoder_open)
    i.lv_img_decoder_read_line               0x08018e30   Section        0  lv_img_decoder.o(i.lv_img_decoder_read_line)
    i.lv_img_destructor                      0x08018e56   Section        0  lv_img.o(i.lv_img_destructor)
    lv_img_destructor                        0x08018e57   Thumb Code    42  lv_img.o(i.lv_img_destructor)
    i.lv_img_event                           0x08018e80   Section        0  lv_img.o(i.lv_img_event)
    lv_img_event                             0x08018e81   Thumb Code   490  lv_img.o(i.lv_img_event)
    i.lv_img_get_transformed_size            0x08019070   Section        0  lv_img.o(i.lv_img_get_transformed_size)
    lv_img_get_transformed_size              0x08019071   Thumb Code    68  lv_img.o(i.lv_img_get_transformed_size)
    i.lv_img_set_src                         0x080190b4   Section        0  lv_img.o(i.lv_img_set_src)
    i.lv_img_src_get_type                    0x08019204   Section        0  lv_draw_img.o(i.lv_img_src_get_type)
    i.lv_indev_get_act                       0x08019228   Section        0  lv_indev.o(i.lv_indev_get_act)
    i.lv_indev_get_next                      0x08019234   Section        0  lv_hal_indev.o(i.lv_indev_get_next)
    i.lv_indev_get_obj_act                   0x08019248   Section        0  lv_indev.o(i.lv_indev_get_obj_act)
    i.lv_indev_get_point                     0x08019254   Section        0  lv_indev.o(i.lv_indev_get_point)
    i.lv_indev_get_scroll_dir                0x08019274   Section        0  lv_indev.o(i.lv_indev_get_scroll_dir)
    i.lv_indev_get_scroll_obj                0x08019292   Section        0  lv_indev.o(i.lv_indev_get_scroll_obj)
    i.lv_indev_get_type                      0x080192aa   Section        0  lv_indev.o(i.lv_indev_get_type)
    i.lv_indev_get_vect                      0x080192b4   Section        0  lv_indev.o(i.lv_indev_get_vect)
    i.lv_indev_reset                         0x080192d4   Section        0  lv_indev.o(i.lv_indev_reset)
    i.lv_indev_reset_long_press              0x0801935c   Section        0  lv_indev.o(i.lv_indev_reset_long_press)
    i.lv_indev_scroll_throw_predict          0x08019376   Section        0  lv_indev_scroll.o(i.lv_indev_scroll_throw_predict)
    i.lv_indev_wait_release                  0x080193b2   Section        0  lv_indev.o(i.lv_indev_wait_release)
    i.lv_init                                0x080193c0   Section        0  lv_obj.o(i.lv_init)
    i.lv_keyboard_constructor                0x08019428   Section        0  lv_keyboard.o(i.lv_keyboard_constructor)
    lv_keyboard_constructor                  0x08019429   Thumb Code    68  lv_keyboard.o(i.lv_keyboard_constructor)
    i.lv_keyboard_create                     0x08019470   Section        0  lv_keyboard.o(i.lv_keyboard_create)
    i.lv_keyboard_def_event_cb               0x08019488   Section        0  lv_keyboard.o(i.lv_keyboard_def_event_cb)
    i.lv_keyboard_set_mode                   0x0801968c   Section        0  lv_keyboard.o(i.lv_keyboard_set_mode)
    i.lv_keyboard_update_ctrl_map            0x080196a0   Section        0  lv_keyboard.o(i.lv_keyboard_update_ctrl_map)
    lv_keyboard_update_ctrl_map              0x080196a1   Thumb Code   108  lv_keyboard.o(i.lv_keyboard_update_ctrl_map)
    i.lv_keyboard_update_map                 0x08019710   Section        0  lv_keyboard.o(i.lv_keyboard_update_map)
    lv_keyboard_update_map                   0x08019711   Thumb Code    30  lv_keyboard.o(i.lv_keyboard_update_map)
    i.lv_label_constructor                   0x08019734   Section        0  lv_label.o(i.lv_label_constructor)
    lv_label_constructor                     0x08019735   Thumb Code    98  lv_label.o(i.lv_label_constructor)
    i.lv_label_create                        0x080197a0   Section        0  lv_label.o(i.lv_label_create)
    i.lv_label_destructor                    0x080197b8   Section        0  lv_label.o(i.lv_label_destructor)
    lv_label_destructor                      0x080197b9   Thumb Code    30  lv_label.o(i.lv_label_destructor)
    i.lv_label_dot_tmp_free                  0x080197d6   Section        0  lv_label.o(i.lv_label_dot_tmp_free)
    lv_label_dot_tmp_free                    0x080197d7   Thumb Code    38  lv_label.o(i.lv_label_dot_tmp_free)
    i.lv_label_event                         0x080197fc   Section        0  lv_label.o(i.lv_label_event)
    lv_label_event                           0x080197fd   Thumb Code   282  lv_label.o(i.lv_label_event)
    i.lv_label_get_letter_on                 0x0801991c   Section        0  lv_label.o(i.lv_label_get_letter_on)
    i.lv_label_get_letter_pos                0x08019ac4   Section        0  lv_label.o(i.lv_label_get_letter_pos)
    i.lv_label_get_recolor                   0x08019c34   Section        0  lv_label.o(i.lv_label_get_recolor)
    i.lv_label_get_text                      0x08019c3e   Section        0  lv_label.o(i.lv_label_get_text)
    i.lv_label_get_text_selection_end        0x08019c42   Section        0  lv_label.o(i.lv_label_get_text_selection_end)
    i.lv_label_get_text_selection_start      0x08019c46   Section        0  lv_label.o(i.lv_label_get_text_selection_start)
    i.lv_label_ins_text                      0x08019c4c   Section        0  lv_label.o(i.lv_label_ins_text)
    i.lv_label_is_char_under_pos             0x08019cb4   Section        0  lv_label.o(i.lv_label_is_char_under_pos)
    i.lv_label_refr_text                     0x08019e5c   Section        0  lv_label.o(i.lv_label_refr_text)
    lv_label_refr_text                       0x08019e5d   Thumb Code  1256  lv_label.o(i.lv_label_refr_text)
    i.lv_label_revert_dots                   0x0801a360   Section        0  lv_label.o(i.lv_label_revert_dots)
    lv_label_revert_dots                     0x0801a361   Thumb Code    96  lv_label.o(i.lv_label_revert_dots)
    i.lv_label_set_long_mode                 0x0801a3c4   Section        0  lv_label.o(i.lv_label_set_long_mode)
    i.lv_label_set_text                      0x0801a43c   Section        0  lv_label.o(i.lv_label_set_text)
    i.lv_label_set_text_fmt                  0x0801a4a6   Section        0  lv_label.o(i.lv_label_set_text_fmt)
    i.lv_label_set_text_selection_end        0x0801a4f6   Section        0  lv_label.o(i.lv_label_set_text_selection_end)
    i.lv_label_set_text_selection_start      0x0801a4fc   Section        0  lv_label.o(i.lv_label_set_text_selection_start)
    i.lv_label_set_text_static               0x0801a502   Section        0  lv_label.o(i.lv_label_set_text_static)
    i.lv_layout_register                     0x0801a538   Section        0  lv_obj_pos.o(i.lv_layout_register)
    i.lv_led_constructor                     0x0801a570   Section        0  lv_led.o(i.lv_led_constructor)
    lv_led_constructor                       0x0801a571   Thumb Code    26  lv_led.o(i.lv_led_constructor)
    i.lv_led_event                           0x0801a58c   Section        0  lv_led.o(i.lv_led_event)
    lv_led_event                             0x0801a58d   Thumb Code   568  lv_led.o(i.lv_led_event)
    i.lv_line_constructor                    0x0801a7c8   Section        0  lv_line.o(i.lv_line_constructor)
    lv_line_constructor                      0x0801a7c9   Thumb Code    18  lv_line.o(i.lv_line_constructor)
    i.lv_line_event                          0x0801a7dc   Section        0  lv_line.o(i.lv_line_event)
    lv_line_event                            0x0801a7dd   Thumb Code   450  lv_line.o(i.lv_line_event)
    i.lv_list_add_btn                        0x0801a9a4   Section        0  lv_list.o(i.lv_list_add_btn)
    i.lv_list_create                         0x0801aa04   Section        0  lv_list.o(i.lv_list_create)
    i.lv_malloc                              0x0801aa24   Section        0  lv_mem.o(i.lv_malloc)
    i.lv_malloc_builtin                      0x0801aa34   Section        0  lv_malloc_builtin.o(i.lv_malloc_builtin)
    i.lv_map                                 0x0801aa54   Section        0  lv_math.o(i.lv_map)
    i.lv_mem_init_builtin                    0x0801aa90   Section        0  lv_malloc_builtin.o(i.lv_mem_init_builtin)
    i.lv_mem_monitor                         0x0801aacc   Section        0  lv_mem.o(i.lv_mem_monitor)
    i.lv_mem_monitor_builtin                 0x0801aae4   Section        0  lv_malloc_builtin.o(i.lv_mem_monitor_builtin)
    i.lv_mem_test                            0x0801ab48   Section        0  lv_mem.o(i.lv_mem_test)
    i.lv_mem_test_builtin                    0x0801ab64   Section        0  lv_malloc_builtin.o(i.lv_mem_test_builtin)
    i.lv_mem_walker                          0x0801ab9c   Section        0  lv_malloc_builtin.o(i.lv_mem_walker)
    lv_mem_walker                            0x0801ab9d   Thumb Code    38  lv_malloc_builtin.o(i.lv_mem_walker)
    i.lv_memcpy                              0x0801abc2   Section        0  lv_mem.o(i.lv_memcpy)
    i.lv_memcpy_builtin                      0x0801abc8   Section        0  lv_memcpy_builtin.o(i.lv_memcpy_builtin)
    i.lv_memset                              0x0801acfc   Section        0  lv_mem.o(i.lv_memset)
    i.lv_memset_builtin                      0x0801ad00   Section        0  lv_memcpy_builtin.o(i.lv_memset_builtin)
    i.lv_memzero                             0x0801ad58   Section        0  lv_refr.o(i.lv_memzero)
    lv_memzero                               0x0801ad59   Thumb Code     8  lv_refr.o(i.lv_memzero)
    i.lv_memzero                             0x0801ad60   Section        0  lv_draw_mask.o(i.lv_memzero)
    lv_memzero                               0x0801ad61   Thumb Code     8  lv_draw_mask.o(i.lv_memzero)
    i.lv_memzero                             0x0801ad68   Section        0  lv_img_decoder.o(i.lv_memzero)
    lv_memzero                               0x0801ad69   Thumb Code     8  lv_img_decoder.o(i.lv_memzero)
    i.lv_memzero                             0x0801ad70   Section        0  lv_hal_disp.o(i.lv_memzero)
    lv_memzero                               0x0801ad71   Thumb Code     8  lv_hal_disp.o(i.lv_memzero)
    i.lv_memzero                             0x0801ad78   Section        0  lv_draw_sw_line.o(i.lv_memzero)
    lv_memzero                               0x0801ad79   Thumb Code     8  lv_draw_sw_line.o(i.lv_memzero)
    i.lv_memzero                             0x0801ad80   Section        0  lv_draw_sw_rect.o(i.lv_memzero)
    lv_memzero                               0x0801ad81   Thumb Code     8  lv_draw_sw_rect.o(i.lv_memzero)
    i.lv_memzero                             0x0801ad88   Section        0  lv_meter.o(i.lv_memzero)
    lv_memzero                               0x0801ad89   Thumb Code     8  lv_meter.o(i.lv_memzero)
    i.lv_menu_back_btn_is_root               0x0801ad90   Section        0  lv_menu.o(i.lv_menu_back_btn_is_root)
    i.lv_menu_back_event_cb                  0x0801adac   Section        0  lv_menu.o(i.lv_menu_back_event_cb)
    lv_menu_back_event_cb                    0x0801adad   Thumb Code   146  lv_menu.o(i.lv_menu_back_event_cb)
    i.lv_menu_clear_history                  0x0801ae3e   Section        0  lv_menu.o(i.lv_menu_clear_history)
    i.lv_menu_constructor                    0x0801ae50   Section        0  lv_menu.o(i.lv_menu_constructor)
    lv_menu_constructor                      0x0801ae51   Thumb Code   300  lv_menu.o(i.lv_menu_constructor)
    i.lv_menu_cont_constructor               0x0801af90   Section        0  lv_menu.o(i.lv_menu_cont_constructor)
    lv_menu_cont_constructor                 0x0801af91   Thumb Code    36  lv_menu.o(i.lv_menu_cont_constructor)
    i.lv_menu_destructor                     0x0801afb4   Section        0  lv_menu.o(i.lv_menu_destructor)
    lv_menu_destructor                       0x0801afb5   Thumb Code     8  lv_menu.o(i.lv_menu_destructor)
    i.lv_menu_page_constructor               0x0801afbc   Section        0  lv_menu.o(i.lv_menu_page_constructor)
    lv_menu_page_constructor                 0x0801afbd   Thumb Code    52  lv_menu.o(i.lv_menu_page_constructor)
    i.lv_menu_page_destructor                0x0801aff0   Section        0  lv_menu.o(i.lv_menu_page_destructor)
    lv_menu_page_destructor                  0x0801aff1   Thumb Code    28  lv_menu.o(i.lv_menu_page_destructor)
    i.lv_menu_refr_main_header_mode          0x0801b00c   Section        0  lv_menu.o(i.lv_menu_refr_main_header_mode)
    lv_menu_refr_main_header_mode            0x0801b00d   Thumb Code   116  lv_menu.o(i.lv_menu_refr_main_header_mode)
    i.lv_menu_section_constructor            0x0801b080   Section        0  lv_menu.o(i.lv_menu_section_constructor)
    lv_menu_section_constructor              0x0801b081   Thumb Code    24  lv_menu.o(i.lv_menu_section_constructor)
    i.lv_menu_set_page                       0x0801b098   Section        0  lv_menu.o(i.lv_menu_set_page)
    i.lv_menu_value_changed_event_cb         0x0801b16c   Section        0  lv_menu.o(i.lv_menu_value_changed_event_cb)
    lv_menu_value_changed_event_cb           0x0801b16d   Thumb Code    92  lv_menu.o(i.lv_menu_value_changed_event_cb)
    i.lv_meter_add_needle_line               0x0801b1c8   Section        0  lv_meter.o(i.lv_meter_add_needle_line)
    i.lv_meter_constructor                   0x0801b204   Section        0  lv_meter.o(i.lv_meter_constructor)
    lv_meter_constructor                     0x0801b205   Thumb Code    52  lv_meter.o(i.lv_meter_constructor)
    i.lv_meter_create                        0x0801b238   Section        0  lv_meter.o(i.lv_meter_create)
    i.lv_meter_destructor                    0x0801b250   Section        0  lv_meter.o(i.lv_meter_destructor)
    lv_meter_destructor                      0x0801b251   Thumb Code     8  lv_meter.o(i.lv_meter_destructor)
    i.lv_meter_event                         0x0801b258   Section        0  lv_meter.o(i.lv_meter_event)
    lv_meter_event                           0x0801b259   Thumb Code   208  lv_meter.o(i.lv_meter_event)
    i.lv_msgbox_close                        0x0801b32c   Section        0  lv_msgbox.o(i.lv_msgbox_close)
    i.lv_msgbox_create                       0x0801b34c   Section        0  lv_msgbox.o(i.lv_msgbox_create)
    i.lv_obj_add_event_cb                    0x0801b564   Section        0  lv_event.o(i.lv_obj_add_event_cb)
    i.lv_obj_add_flag                        0x0801b5fc   Section        0  lv_obj.o(i.lv_obj_add_flag)
    i.lv_obj_add_state                       0x0801b662   Section        0  lv_obj.o(i.lv_obj_add_state)
    i.lv_obj_add_style                       0x0801b68c   Section        0  lv_obj_style.o(i.lv_obj_add_style)
    i.lv_obj_align                           0x0801b754   Section        0  lv_obj_pos.o(i.lv_obj_align)
    i.lv_obj_align_to                        0x0801b770   Section        0  lv_obj_pos.o(i.lv_obj_align_to)
    i.lv_obj_allocate_spec_attr              0x0801ba28   Section        0  lv_obj.o(i.lv_obj_allocate_spec_attr)
    i.lv_obj_area_is_visible                 0x0801ba64   Section        0  lv_obj_pos.o(i.lv_obj_area_is_visible)
    i.lv_obj_calculate_ext_draw_size         0x0801bb58   Section        0  lv_obj_draw.o(i.lv_obj_calculate_ext_draw_size)
    i.lv_obj_calculate_style_text_align      0x0801bc2c   Section        0  lv_obj_style.o(i.lv_obj_calculate_style_text_align)
    i.lv_obj_check_type                      0x0801bc4c   Section        0  lv_obj.o(i.lv_obj_check_type)
    i.lv_obj_class_create_obj                0x0801bc60   Section        0  lv_obj_class.o(i.lv_obj_class_create_obj)
    i.lv_obj_class_init_obj                  0x0801bd4c   Section        0  lv_obj_class.o(i.lv_obj_class_init_obj)
    i.lv_obj_clean                           0x0801bdc0   Section        0  lv_obj_tree.o(i.lv_obj_clean)
    i.lv_obj_clear_flag                      0x0801bdf8   Section        0  lv_obj.o(i.lv_obj_clear_flag)
    i.lv_obj_clear_state                     0x0801be6c   Section        0  lv_obj.o(i.lv_obj_clear_state)
    i.lv_obj_construct                       0x0801be7c   Section        0  lv_obj_class.o(i.lv_obj_construct)
    lv_obj_construct                         0x0801be7d   Thumb Code    38  lv_obj_class.o(i.lv_obj_construct)
    i.lv_obj_constructor                     0x0801bea4   Section        0  lv_obj.o(i.lv_obj_constructor)
    lv_obj_constructor                       0x0801bea5   Thumb Code   116  lv_obj.o(i.lv_obj_constructor)
    i.lv_obj_create                          0x0801bf18   Section        0  lv_obj.o(i.lv_obj_create)
    i.lv_obj_del                             0x0801bf30   Section        0  lv_obj_tree.o(i.lv_obj_del)
    i.lv_obj_del_anim_ready_cb               0x0801bf9c   Section        0  lv_obj_tree.o(i.lv_obj_del_anim_ready_cb)
    i.lv_obj_del_async                       0x0801bfa4   Section        0  lv_obj_tree.o(i.lv_obj_del_async)
    i.lv_obj_del_async_cb                    0x0801bfb0   Section        0  lv_obj_tree.o(i.lv_obj_del_async_cb)
    lv_obj_del_async_cb                      0x0801bfb1   Thumb Code     4  lv_obj_tree.o(i.lv_obj_del_async_cb)
    i.lv_obj_destructor                      0x0801bfb4   Section        0  lv_obj.o(i.lv_obj_destructor)
    lv_obj_destructor                        0x0801bfb5   Thumb Code    94  lv_obj.o(i.lv_obj_destructor)
    i.lv_obj_draw                            0x0801c014   Section        0  lv_obj.o(i.lv_obj_draw)
    lv_obj_draw                              0x0801c015   Thumb Code   676  lv_obj.o(i.lv_obj_draw)
    i.lv_obj_draw_dsc_init                   0x0801c2bc   Section        0  lv_obj_draw.o(i.lv_obj_draw_dsc_init)
    i.lv_obj_enable_style_refresh            0x0801c2d0   Section        0  lv_obj_style.o(i.lv_obj_enable_style_refresh)
    i.lv_obj_event                           0x0801c2dc   Section        0  lv_obj.o(i.lv_obj_event)
    lv_obj_event                             0x0801c2dd   Thumb Code   812  lv_obj.o(i.lv_obj_event)
    i.lv_obj_event_base                      0x0801c608   Section        0  lv_event.o(i.lv_obj_event_base)
    i.lv_obj_get_child                       0x0801c634   Section        0  lv_obj_tree.o(i.lv_obj_get_child)
    i.lv_obj_get_child_cnt                   0x0801c658   Section        0  lv_obj_tree.o(i.lv_obj_get_child_cnt)
    i.lv_obj_get_click_area                  0x0801c662   Section        0  lv_obj_pos.o(i.lv_obj_get_click_area)
    i.lv_obj_get_content_coords              0x0801c6a0   Section        0  lv_obj_pos.o(i.lv_obj_get_content_coords)
    i.lv_obj_get_content_height              0x0801c6e4   Section        0  lv_obj_pos.o(i.lv_obj_get_content_height)
    i.lv_obj_get_content_width               0x0801c708   Section        0  lv_obj_pos.o(i.lv_obj_get_content_width)
    i.lv_obj_get_coords                      0x0801c72c   Section        0  lv_obj_pos.o(i.lv_obj_get_coords)
    i.lv_obj_get_disp                        0x0801c738   Section        0  lv_obj_tree.o(i.lv_obj_get_disp)
    i.lv_obj_get_event_dsc                   0x0801c774   Section        0  lv_event.o(i.lv_obj_get_event_dsc)
    lv_obj_get_event_dsc                     0x0801c775   Thumb Code    32  lv_event.o(i.lv_obj_get_event_dsc)
    i.lv_obj_get_group                       0x0801c794   Section        0  lv_obj.o(i.lv_obj_get_group)
    i.lv_obj_get_height                      0x0801c79e   Section        0  lv_obj_pos.o(i.lv_obj_get_height)
    i.lv_obj_get_height_with_margin          0x0801c7aa   Section        0  lv_flex.o(i.lv_obj_get_height_with_margin)
    lv_obj_get_height_with_margin            0x0801c7ab   Thumb Code    34  lv_flex.o(i.lv_obj_get_height_with_margin)
    i.lv_obj_get_index                       0x0801c7cc   Section        0  lv_obj_tree.o(i.lv_obj_get_index)
    i.lv_obj_get_local_style_prop            0x0801c804   Section        0  lv_obj_style.o(i.lv_obj_get_local_style_prop)
    i.lv_obj_get_parent                      0x0801c844   Section        0  lv_obj_tree.o(i.lv_obj_get_parent)
    i.lv_obj_get_screen                      0x0801c84c   Section        0  lv_obj_tree.o(i.lv_obj_get_screen)
    i.lv_obj_get_scroll_bottom               0x0801c85c   Section        0  lv_obj_scroll.o(i.lv_obj_get_scroll_bottom)
    i.lv_obj_get_scroll_dir                  0x0801c8f8   Section        0  lv_obj_scroll.o(i.lv_obj_get_scroll_dir)
    i.lv_obj_get_scroll_end                  0x0801c908   Section        0  lv_obj_scroll.o(i.lv_obj_get_scroll_end)
    i.lv_obj_get_scroll_left                 0x0801c948   Section        0  lv_obj_scroll.o(i.lv_obj_get_scroll_left)
    i.lv_obj_get_scroll_right                0x0801ca04   Section        0  lv_obj_scroll.o(i.lv_obj_get_scroll_right)
    i.lv_obj_get_scroll_snap_x               0x0801cab8   Section        0  lv_obj_scroll.o(i.lv_obj_get_scroll_snap_x)
    i.lv_obj_get_scroll_snap_y               0x0801cac6   Section        0  lv_obj_scroll.o(i.lv_obj_get_scroll_snap_y)
    i.lv_obj_get_scroll_top                  0x0801cad4   Section        0  lv_obj_scroll.o(i.lv_obj_get_scroll_top)
    i.lv_obj_get_scroll_x                    0x0801cae2   Section        0  lv_obj_scroll.o(i.lv_obj_get_scroll_x)
    i.lv_obj_get_scroll_y                    0x0801caf0   Section        0  lv_obj_scroll.o(i.lv_obj_get_scroll_y)
    i.lv_obj_get_scrollbar_area              0x0801cafe   Section        0  lv_obj_scroll.o(i.lv_obj_get_scrollbar_area)
    i.lv_obj_get_scrollbar_mode              0x0801d14a   Section        0  lv_obj_scroll.o(i.lv_obj_get_scrollbar_mode)
    i.lv_obj_get_self_height                 0x0801d15c   Section        0  lv_obj_pos.o(i.lv_obj_get_self_height)
    i.lv_obj_get_self_width                  0x0801d178   Section        0  lv_obj_pos.o(i.lv_obj_get_self_width)
    i.lv_obj_get_state                       0x0801d194   Section        0  lv_obj.o(i.lv_obj_get_state)
    i.lv_obj_get_style_align                 0x0801d198   Section        0  lv_obj.o(i.lv_obj_get_style_align)
    lv_obj_get_style_align                   0x0801d199   Thumb Code    12  lv_obj.o(i.lv_obj_get_style_align)
    i.lv_obj_get_style_align                 0x0801d1a4   Section        0  lv_obj_pos.o(i.lv_obj_get_style_align)
    lv_obj_get_style_align                   0x0801d1a5   Thumb Code    12  lv_obj_pos.o(i.lv_obj_get_style_align)
    i.lv_obj_get_style_anim                  0x0801d1b0   Section        0  lv_label.o(i.lv_obj_get_style_anim)
    lv_obj_get_style_anim                    0x0801d1b1   Thumb Code     6  lv_label.o(i.lv_obj_get_style_anim)
    i.lv_obj_get_style_anim_speed            0x0801d1b6   Section        0  lv_label.o(i.lv_obj_get_style_anim_speed)
    lv_obj_get_style_anim_speed              0x0801d1b7   Thumb Code     6  lv_label.o(i.lv_obj_get_style_anim_speed)
    i.lv_obj_get_style_arc_rounded           0x0801d1bc   Section        0  lv_meter.o(i.lv_obj_get_style_arc_rounded)
    lv_obj_get_style_arc_rounded             0x0801d1bd   Thumb Code    16  lv_meter.o(i.lv_obj_get_style_arc_rounded)
    i.lv_obj_get_style_arc_width             0x0801d1cc   Section        0  lv_arc.o(i.lv_obj_get_style_arc_width)
    lv_obj_get_style_arc_width               0x0801d1cd   Thumb Code    12  lv_arc.o(i.lv_obj_get_style_arc_width)
    i.lv_obj_get_style_arc_width             0x0801d1d8   Section        0  lv_colorwheel.o(i.lv_obj_get_style_arc_width)
    lv_obj_get_style_arc_width               0x0801d1d9   Thumb Code    12  lv_colorwheel.o(i.lv_obj_get_style_arc_width)
    i.lv_obj_get_style_base_dir              0x0801d1e4   Section        0  lv_obj_pos.o(i.lv_obj_get_style_base_dir)
    lv_obj_get_style_base_dir                0x0801d1e5   Thumb Code    12  lv_obj_pos.o(i.lv_obj_get_style_base_dir)
    i.lv_obj_get_style_base_dir              0x0801d1f0   Section        0  lv_obj_scroll.o(i.lv_obj_get_style_base_dir)
    lv_obj_get_style_base_dir                0x0801d1f1   Thumb Code    12  lv_obj_scroll.o(i.lv_obj_get_style_base_dir)
    i.lv_obj_get_style_base_dir              0x0801d1fc   Section        0  lv_flex.o(i.lv_obj_get_style_base_dir)
    lv_obj_get_style_base_dir                0x0801d1fd   Thumb Code    12  lv_flex.o(i.lv_obj_get_style_base_dir)
    i.lv_obj_get_style_base_dir              0x0801d208   Section        0  lv_grid.o(i.lv_obj_get_style_base_dir)
    lv_obj_get_style_base_dir                0x0801d209   Thumb Code    12  lv_grid.o(i.lv_obj_get_style_base_dir)
    i.lv_obj_get_style_base_dir              0x0801d214   Section        0  lv_slider.o(i.lv_obj_get_style_base_dir)
    lv_obj_get_style_base_dir                0x0801d215   Thumb Code    12  lv_slider.o(i.lv_obj_get_style_base_dir)
    i.lv_obj_get_style_base_dir              0x0801d220   Section        0  lv_table.o(i.lv_obj_get_style_base_dir)
    lv_obj_get_style_base_dir                0x0801d221   Thumb Code    12  lv_table.o(i.lv_obj_get_style_base_dir)
    i.lv_obj_get_style_base_dir              0x0801d22c   Section        0  lv_tabview.o(i.lv_obj_get_style_base_dir)
    lv_obj_get_style_base_dir                0x0801d22d   Thumb Code    12  lv_tabview.o(i.lv_obj_get_style_base_dir)
    i.lv_obj_get_style_bg_color_filtered     0x0801d238   Section        0  lv_obj_draw.o(i.lv_obj_get_style_bg_color_filtered)
    lv_obj_get_style_bg_color_filtered       0x0801d239   Thumb Code    26  lv_obj_draw.o(i.lv_obj_get_style_bg_color_filtered)
    i.lv_obj_get_style_bg_opa                0x0801d252   Section        0  lv_obj.o(i.lv_obj_get_style_bg_opa)
    lv_obj_get_style_bg_opa                  0x0801d253   Thumb Code    12  lv_obj.o(i.lv_obj_get_style_bg_opa)
    i.lv_obj_get_style_blend_mode            0x0801d25e   Section        0  lv_obj_draw.o(i.lv_obj_get_style_blend_mode)
    lv_obj_get_style_blend_mode              0x0801d25f   Thumb Code    12  lv_obj_draw.o(i.lv_obj_get_style_blend_mode)
    i.lv_obj_get_style_border_post           0x0801d26a   Section        0  lv_obj.o(i.lv_obj_get_style_border_post)
    lv_obj_get_style_border_post             0x0801d26b   Thumb Code    16  lv_obj.o(i.lv_obj_get_style_border_post)
    i.lv_obj_get_style_border_side           0x0801d27a   Section        0  lv_obj_pos.o(i.lv_obj_get_style_border_side)
    lv_obj_get_style_border_side             0x0801d27b   Thumb Code    12  lv_obj_pos.o(i.lv_obj_get_style_border_side)
    i.lv_obj_get_style_border_side           0x0801d286   Section        0  lv_obj_scroll.o(i.lv_obj_get_style_border_side)
    lv_obj_get_style_border_side             0x0801d287   Thumb Code    12  lv_obj_scroll.o(i.lv_obj_get_style_border_side)
    i.lv_obj_get_style_border_side           0x0801d292   Section        0  lv_flex.o(i.lv_obj_get_style_border_side)
    lv_obj_get_style_border_side             0x0801d293   Thumb Code    12  lv_flex.o(i.lv_obj_get_style_border_side)
    i.lv_obj_get_style_border_side           0x0801d29e   Section        0  lv_grid.o(i.lv_obj_get_style_border_side)
    lv_obj_get_style_border_side             0x0801d29f   Thumb Code    12  lv_grid.o(i.lv_obj_get_style_border_side)
    i.lv_obj_get_style_border_side           0x0801d2aa   Section        0  lv_btnmatrix.o(i.lv_obj_get_style_border_side)
    lv_obj_get_style_border_side             0x0801d2ab   Thumb Code    12  lv_btnmatrix.o(i.lv_obj_get_style_border_side)
    i.lv_obj_get_style_border_width          0x0801d2b6   Section        0  lv_obj_pos.o(i.lv_obj_get_style_border_width)
    lv_obj_get_style_border_width            0x0801d2b7   Thumb Code    12  lv_obj_pos.o(i.lv_obj_get_style_border_width)
    i.lv_obj_get_style_border_width          0x0801d2c2   Section        0  lv_obj_scroll.o(i.lv_obj_get_style_border_width)
    lv_obj_get_style_border_width            0x0801d2c3   Thumb Code    12  lv_obj_scroll.o(i.lv_obj_get_style_border_width)
    i.lv_obj_get_style_border_width          0x0801d2ce   Section        0  lv_flex.o(i.lv_obj_get_style_border_width)
    lv_obj_get_style_border_width            0x0801d2cf   Thumb Code    12  lv_flex.o(i.lv_obj_get_style_border_width)
    i.lv_obj_get_style_border_width          0x0801d2da   Section        0  lv_grid.o(i.lv_obj_get_style_border_width)
    lv_obj_get_style_border_width            0x0801d2db   Thumb Code    12  lv_grid.o(i.lv_obj_get_style_border_width)
    i.lv_obj_get_style_border_width          0x0801d2e6   Section        0  lv_btnmatrix.o(i.lv_obj_get_style_border_width)
    lv_obj_get_style_border_width            0x0801d2e7   Thumb Code    12  lv_btnmatrix.o(i.lv_obj_get_style_border_width)
    i.lv_obj_get_style_border_width          0x0801d2f2   Section        0  lv_chart.o(i.lv_obj_get_style_border_width)
    lv_obj_get_style_border_width            0x0801d2f3   Thumb Code    12  lv_chart.o(i.lv_obj_get_style_border_width)
    i.lv_obj_get_style_border_width          0x0801d2fe   Section        0  lv_dropdown.o(i.lv_obj_get_style_border_width)
    lv_obj_get_style_border_width            0x0801d2ff   Thumb Code    12  lv_dropdown.o(i.lv_obj_get_style_border_width)
    i.lv_obj_get_style_border_width          0x0801d30a   Section        0  lv_roller.o(i.lv_obj_get_style_border_width)
    lv_obj_get_style_border_width            0x0801d30b   Thumb Code    12  lv_roller.o(i.lv_obj_get_style_border_width)
    i.lv_obj_get_style_border_width          0x0801d316   Section        0  lv_textarea.o(i.lv_obj_get_style_border_width)
    lv_obj_get_style_border_width            0x0801d317   Thumb Code    12  lv_textarea.o(i.lv_obj_get_style_border_width)
    i.lv_obj_get_style_clip_corner           0x0801d322   Section        0  lv_obj.o(i.lv_obj_get_style_clip_corner)
    lv_obj_get_style_clip_corner             0x0801d323   Thumb Code    16  lv_obj.o(i.lv_obj_get_style_clip_corner)
    i.lv_obj_get_style_flex_grow             0x0801d334   Section        0  lv_flex.o(i.lv_obj_get_style_flex_grow)
    lv_obj_get_style_flex_grow               0x0801d335   Thumb Code    14  lv_flex.o(i.lv_obj_get_style_flex_grow)
    i.lv_obj_get_style_height                0x0801d348   Section        0  lv_obj_pos.o(i.lv_obj_get_style_height)
    lv_obj_get_style_height                  0x0801d349   Thumb Code    12  lv_obj_pos.o(i.lv_obj_get_style_height)
    i.lv_obj_get_style_height                0x0801d354   Section        0  lv_flex.o(i.lv_obj_get_style_height)
    lv_obj_get_style_height                  0x0801d355   Thumb Code    12  lv_flex.o(i.lv_obj_get_style_height)
    i.lv_obj_get_style_height                0x0801d360   Section        0  lv_grid.o(i.lv_obj_get_style_height)
    lv_obj_get_style_height                  0x0801d361   Thumb Code    12  lv_grid.o(i.lv_obj_get_style_height)
    i.lv_obj_get_style_height                0x0801d36c   Section        0  lv_chart.o(i.lv_obj_get_style_height)
    lv_obj_get_style_height                  0x0801d36d   Thumb Code    12  lv_chart.o(i.lv_obj_get_style_height)
    i.lv_obj_get_style_layout                0x0801d378   Section        0  lv_obj.o(i.lv_obj_get_style_layout)
    lv_obj_get_style_layout                  0x0801d379   Thumb Code    12  lv_obj.o(i.lv_obj_get_style_layout)
    i.lv_obj_get_style_layout                0x0801d384   Section        0  lv_obj_pos.o(i.lv_obj_get_style_layout)
    lv_obj_get_style_layout                  0x0801d385   Thumb Code    12  lv_obj_pos.o(i.lv_obj_get_style_layout)
    i.lv_obj_get_style_line_width            0x0801d390   Section        0  lv_line.o(i.lv_obj_get_style_line_width)
    lv_obj_get_style_line_width              0x0801d391   Thumb Code    12  lv_line.o(i.lv_obj_get_style_line_width)
    i.lv_obj_get_style_margin_bottom         0x0801d39c   Section        0  lv_obj_pos.o(i.lv_obj_get_style_margin_bottom)
    lv_obj_get_style_margin_bottom           0x0801d39d   Thumb Code    12  lv_obj_pos.o(i.lv_obj_get_style_margin_bottom)
    i.lv_obj_get_style_margin_bottom         0x0801d3a8   Section        0  lv_flex.o(i.lv_obj_get_style_margin_bottom)
    lv_obj_get_style_margin_bottom           0x0801d3a9   Thumb Code    12  lv_flex.o(i.lv_obj_get_style_margin_bottom)
    i.lv_obj_get_style_margin_bottom         0x0801d3b4   Section        0  lv_grid.o(i.lv_obj_get_style_margin_bottom)
    lv_obj_get_style_margin_bottom           0x0801d3b5   Thumb Code    12  lv_grid.o(i.lv_obj_get_style_margin_bottom)
    i.lv_obj_get_style_margin_left           0x0801d3c0   Section        0  lv_obj_pos.o(i.lv_obj_get_style_margin_left)
    lv_obj_get_style_margin_left             0x0801d3c1   Thumb Code    12  lv_obj_pos.o(i.lv_obj_get_style_margin_left)
    i.lv_obj_get_style_margin_left           0x0801d3cc   Section        0  lv_flex.o(i.lv_obj_get_style_margin_left)
    lv_obj_get_style_margin_left             0x0801d3cd   Thumb Code    12  lv_flex.o(i.lv_obj_get_style_margin_left)
    i.lv_obj_get_style_margin_left           0x0801d3d8   Section        0  lv_grid.o(i.lv_obj_get_style_margin_left)
    lv_obj_get_style_margin_left             0x0801d3d9   Thumb Code    12  lv_grid.o(i.lv_obj_get_style_margin_left)
    i.lv_obj_get_style_margin_right          0x0801d3e4   Section        0  lv_obj_pos.o(i.lv_obj_get_style_margin_right)
    lv_obj_get_style_margin_right            0x0801d3e5   Thumb Code    12  lv_obj_pos.o(i.lv_obj_get_style_margin_right)
    i.lv_obj_get_style_margin_right          0x0801d3f0   Section        0  lv_flex.o(i.lv_obj_get_style_margin_right)
    lv_obj_get_style_margin_right            0x0801d3f1   Thumb Code    12  lv_flex.o(i.lv_obj_get_style_margin_right)
    i.lv_obj_get_style_margin_right          0x0801d3fc   Section        0  lv_grid.o(i.lv_obj_get_style_margin_right)
    lv_obj_get_style_margin_right            0x0801d3fd   Thumb Code    12  lv_grid.o(i.lv_obj_get_style_margin_right)
    i.lv_obj_get_style_margin_top            0x0801d408   Section        0  lv_obj_pos.o(i.lv_obj_get_style_margin_top)
    lv_obj_get_style_margin_top              0x0801d409   Thumb Code    12  lv_obj_pos.o(i.lv_obj_get_style_margin_top)
    i.lv_obj_get_style_margin_top            0x0801d414   Section        0  lv_flex.o(i.lv_obj_get_style_margin_top)
    lv_obj_get_style_margin_top              0x0801d415   Thumb Code    12  lv_flex.o(i.lv_obj_get_style_margin_top)
    i.lv_obj_get_style_margin_top            0x0801d420   Section        0  lv_grid.o(i.lv_obj_get_style_margin_top)
    lv_obj_get_style_margin_top              0x0801d421   Thumb Code    12  lv_grid.o(i.lv_obj_get_style_margin_top)
    i.lv_obj_get_style_max_height            0x0801d42c   Section        0  lv_table.o(i.lv_obj_get_style_max_height)
    lv_obj_get_style_max_height              0x0801d42d   Thumb Code    12  lv_table.o(i.lv_obj_get_style_max_height)
    i.lv_obj_get_style_min_height            0x0801d438   Section        0  lv_table.o(i.lv_obj_get_style_min_height)
    lv_obj_get_style_min_height              0x0801d439   Thumb Code    12  lv_table.o(i.lv_obj_get_style_min_height)
    i.lv_obj_get_style_opa                   0x0801d444   Section        0  lv_obj_draw.o(i.lv_obj_get_style_opa)
    lv_obj_get_style_opa                     0x0801d445   Thumb Code    12  lv_obj_draw.o(i.lv_obj_get_style_opa)
    i.lv_obj_get_style_opa                   0x0801d450   Section        0  lv_obj_style.o(i.lv_obj_get_style_opa)
    lv_obj_get_style_opa                     0x0801d451   Thumb Code    12  lv_obj_style.o(i.lv_obj_get_style_opa)
    i.lv_obj_get_style_opa                   0x0801d45c   Section        0  lv_meter.o(i.lv_obj_get_style_opa)
    lv_obj_get_style_opa                     0x0801d45d   Thumb Code    12  lv_meter.o(i.lv_obj_get_style_opa)
    i.lv_obj_get_style_outline_opa           0x0801d468   Section        0  lv_obj_draw.o(i.lv_obj_get_style_outline_opa)
    lv_obj_get_style_outline_opa             0x0801d469   Thumb Code    12  lv_obj_draw.o(i.lv_obj_get_style_outline_opa)
    i.lv_obj_get_style_outline_pad           0x0801d474   Section        0  lv_obj_draw.o(i.lv_obj_get_style_outline_pad)
    lv_obj_get_style_outline_pad             0x0801d475   Thumb Code    12  lv_obj_draw.o(i.lv_obj_get_style_outline_pad)
    i.lv_obj_get_style_outline_width         0x0801d480   Section        0  lv_obj_draw.o(i.lv_obj_get_style_outline_width)
    lv_obj_get_style_outline_width           0x0801d481   Thumb Code    12  lv_obj_draw.o(i.lv_obj_get_style_outline_width)
    i.lv_obj_get_style_pad_bottom            0x0801d48c   Section        0  lv_obj_scroll.o(i.lv_obj_get_style_pad_bottom)
    lv_obj_get_style_pad_bottom              0x0801d48d   Thumb Code    12  lv_obj_scroll.o(i.lv_obj_get_style_pad_bottom)
    i.lv_obj_get_style_pad_bottom            0x0801d498   Section        0  lv_arc.o(i.lv_obj_get_style_pad_bottom)
    lv_obj_get_style_pad_bottom              0x0801d499   Thumb Code    12  lv_arc.o(i.lv_obj_get_style_pad_bottom)
    i.lv_obj_get_style_pad_bottom            0x0801d4a4   Section        0  lv_bar.o(i.lv_obj_get_style_pad_bottom)
    lv_obj_get_style_pad_bottom              0x0801d4a5   Thumb Code    12  lv_bar.o(i.lv_obj_get_style_pad_bottom)
    i.lv_obj_get_style_pad_bottom            0x0801d4b0   Section        0  lv_btnmatrix.o(i.lv_obj_get_style_pad_bottom)
    lv_obj_get_style_pad_bottom              0x0801d4b1   Thumb Code    12  lv_btnmatrix.o(i.lv_obj_get_style_pad_bottom)
    i.lv_obj_get_style_pad_bottom            0x0801d4bc   Section        0  lv_chart.o(i.lv_obj_get_style_pad_bottom)
    lv_obj_get_style_pad_bottom              0x0801d4bd   Thumb Code    12  lv_chart.o(i.lv_obj_get_style_pad_bottom)
    i.lv_obj_get_style_pad_bottom            0x0801d4c8   Section        0  lv_checkbox.o(i.lv_obj_get_style_pad_bottom)
    lv_obj_get_style_pad_bottom              0x0801d4c9   Thumb Code    12  lv_checkbox.o(i.lv_obj_get_style_pad_bottom)
    i.lv_obj_get_style_pad_bottom            0x0801d4d4   Section        0  lv_colorwheel.o(i.lv_obj_get_style_pad_bottom)
    lv_obj_get_style_pad_bottom              0x0801d4d5   Thumb Code    12  lv_colorwheel.o(i.lv_obj_get_style_pad_bottom)
    i.lv_obj_get_style_pad_bottom            0x0801d4e0   Section        0  lv_slider.o(i.lv_obj_get_style_pad_bottom)
    lv_obj_get_style_pad_bottom              0x0801d4e1   Thumb Code    12  lv_slider.o(i.lv_obj_get_style_pad_bottom)
    i.lv_obj_get_style_pad_bottom            0x0801d4ec   Section        0  lv_switch.o(i.lv_obj_get_style_pad_bottom)
    lv_obj_get_style_pad_bottom              0x0801d4ed   Thumb Code    12  lv_switch.o(i.lv_obj_get_style_pad_bottom)
    i.lv_obj_get_style_pad_bottom            0x0801d4f8   Section        0  lv_table.o(i.lv_obj_get_style_pad_bottom)
    lv_obj_get_style_pad_bottom              0x0801d4f9   Thumb Code    12  lv_table.o(i.lv_obj_get_style_pad_bottom)
    i.lv_obj_get_style_pad_column            0x0801d504   Section        0  lv_flex.o(i.lv_obj_get_style_pad_column)
    lv_obj_get_style_pad_column              0x0801d505   Thumb Code    12  lv_flex.o(i.lv_obj_get_style_pad_column)
    i.lv_obj_get_style_pad_column            0x0801d510   Section        0  lv_grid.o(i.lv_obj_get_style_pad_column)
    lv_obj_get_style_pad_column              0x0801d511   Thumb Code    12  lv_grid.o(i.lv_obj_get_style_pad_column)
    i.lv_obj_get_style_pad_column            0x0801d51c   Section        0  lv_btnmatrix.o(i.lv_obj_get_style_pad_column)
    lv_obj_get_style_pad_column              0x0801d51d   Thumb Code    12  lv_btnmatrix.o(i.lv_obj_get_style_pad_column)
    i.lv_obj_get_style_pad_column            0x0801d528   Section        0  lv_chart.o(i.lv_obj_get_style_pad_column)
    lv_obj_get_style_pad_column              0x0801d529   Thumb Code    12  lv_chart.o(i.lv_obj_get_style_pad_column)
    i.lv_obj_get_style_pad_column            0x0801d534   Section        0  lv_checkbox.o(i.lv_obj_get_style_pad_column)
    lv_obj_get_style_pad_column              0x0801d535   Thumb Code    12  lv_checkbox.o(i.lv_obj_get_style_pad_column)
    i.lv_obj_get_style_pad_left              0x0801d540   Section        0  lv_obj_scroll.o(i.lv_obj_get_style_pad_left)
    lv_obj_get_style_pad_left                0x0801d541   Thumb Code    12  lv_obj_scroll.o(i.lv_obj_get_style_pad_left)
    i.lv_obj_get_style_pad_left              0x0801d54c   Section        0  lv_arc.o(i.lv_obj_get_style_pad_left)
    lv_obj_get_style_pad_left                0x0801d54d   Thumb Code    12  lv_arc.o(i.lv_obj_get_style_pad_left)
    i.lv_obj_get_style_pad_left              0x0801d558   Section        0  lv_bar.o(i.lv_obj_get_style_pad_left)
    lv_obj_get_style_pad_left                0x0801d559   Thumb Code    12  lv_bar.o(i.lv_obj_get_style_pad_left)
    i.lv_obj_get_style_pad_left              0x0801d564   Section        0  lv_btnmatrix.o(i.lv_obj_get_style_pad_left)
    lv_obj_get_style_pad_left                0x0801d565   Thumb Code    12  lv_btnmatrix.o(i.lv_obj_get_style_pad_left)
    i.lv_obj_get_style_pad_left              0x0801d570   Section        0  lv_chart.o(i.lv_obj_get_style_pad_left)
    lv_obj_get_style_pad_left                0x0801d571   Thumb Code    12  lv_chart.o(i.lv_obj_get_style_pad_left)
    i.lv_obj_get_style_pad_left              0x0801d57c   Section        0  lv_checkbox.o(i.lv_obj_get_style_pad_left)
    lv_obj_get_style_pad_left                0x0801d57d   Thumb Code    12  lv_checkbox.o(i.lv_obj_get_style_pad_left)
    i.lv_obj_get_style_pad_left              0x0801d588   Section        0  lv_colorwheel.o(i.lv_obj_get_style_pad_left)
    lv_obj_get_style_pad_left                0x0801d589   Thumb Code    12  lv_colorwheel.o(i.lv_obj_get_style_pad_left)
    i.lv_obj_get_style_pad_left              0x0801d594   Section        0  lv_slider.o(i.lv_obj_get_style_pad_left)
    lv_obj_get_style_pad_left                0x0801d595   Thumb Code    12  lv_slider.o(i.lv_obj_get_style_pad_left)
    i.lv_obj_get_style_pad_left              0x0801d5a0   Section        0  lv_switch.o(i.lv_obj_get_style_pad_left)
    lv_obj_get_style_pad_left                0x0801d5a1   Thumb Code    12  lv_switch.o(i.lv_obj_get_style_pad_left)
    i.lv_obj_get_style_pad_left              0x0801d5ac   Section        0  lv_table.o(i.lv_obj_get_style_pad_left)
    lv_obj_get_style_pad_left                0x0801d5ad   Thumb Code    12  lv_table.o(i.lv_obj_get_style_pad_left)
    i.lv_obj_get_style_pad_left              0x0801d5b8   Section        0  lv_textarea.o(i.lv_obj_get_style_pad_left)
    lv_obj_get_style_pad_left                0x0801d5b9   Thumb Code    12  lv_textarea.o(i.lv_obj_get_style_pad_left)
    i.lv_obj_get_style_pad_right             0x0801d5c4   Section        0  lv_obj_scroll.o(i.lv_obj_get_style_pad_right)
    lv_obj_get_style_pad_right               0x0801d5c5   Thumb Code    12  lv_obj_scroll.o(i.lv_obj_get_style_pad_right)
    i.lv_obj_get_style_pad_right             0x0801d5d0   Section        0  lv_arc.o(i.lv_obj_get_style_pad_right)
    lv_obj_get_style_pad_right               0x0801d5d1   Thumb Code    12  lv_arc.o(i.lv_obj_get_style_pad_right)
    i.lv_obj_get_style_pad_right             0x0801d5dc   Section        0  lv_bar.o(i.lv_obj_get_style_pad_right)
    lv_obj_get_style_pad_right               0x0801d5dd   Thumb Code    12  lv_bar.o(i.lv_obj_get_style_pad_right)
    i.lv_obj_get_style_pad_right             0x0801d5e8   Section        0  lv_btnmatrix.o(i.lv_obj_get_style_pad_right)
    lv_obj_get_style_pad_right               0x0801d5e9   Thumb Code    12  lv_btnmatrix.o(i.lv_obj_get_style_pad_right)
    i.lv_obj_get_style_pad_right             0x0801d5f4   Section        0  lv_chart.o(i.lv_obj_get_style_pad_right)
    lv_obj_get_style_pad_right               0x0801d5f5   Thumb Code    12  lv_chart.o(i.lv_obj_get_style_pad_right)
    i.lv_obj_get_style_pad_right             0x0801d600   Section        0  lv_checkbox.o(i.lv_obj_get_style_pad_right)
    lv_obj_get_style_pad_right               0x0801d601   Thumb Code    12  lv_checkbox.o(i.lv_obj_get_style_pad_right)
    i.lv_obj_get_style_pad_right             0x0801d60c   Section        0  lv_colorwheel.o(i.lv_obj_get_style_pad_right)
    lv_obj_get_style_pad_right               0x0801d60d   Thumb Code    12  lv_colorwheel.o(i.lv_obj_get_style_pad_right)
    i.lv_obj_get_style_pad_right             0x0801d618   Section        0  lv_slider.o(i.lv_obj_get_style_pad_right)
    lv_obj_get_style_pad_right               0x0801d619   Thumb Code    12  lv_slider.o(i.lv_obj_get_style_pad_right)
    i.lv_obj_get_style_pad_right             0x0801d624   Section        0  lv_switch.o(i.lv_obj_get_style_pad_right)
    lv_obj_get_style_pad_right               0x0801d625   Thumb Code    12  lv_switch.o(i.lv_obj_get_style_pad_right)
    i.lv_obj_get_style_pad_right             0x0801d630   Section        0  lv_table.o(i.lv_obj_get_style_pad_right)
    lv_obj_get_style_pad_right               0x0801d631   Thumb Code    12  lv_table.o(i.lv_obj_get_style_pad_right)
    i.lv_obj_get_style_pad_row               0x0801d63c   Section        0  lv_flex.o(i.lv_obj_get_style_pad_row)
    lv_obj_get_style_pad_row                 0x0801d63d   Thumb Code    12  lv_flex.o(i.lv_obj_get_style_pad_row)
    i.lv_obj_get_style_pad_row               0x0801d648   Section        0  lv_grid.o(i.lv_obj_get_style_pad_row)
    lv_obj_get_style_pad_row                 0x0801d649   Thumb Code    12  lv_grid.o(i.lv_obj_get_style_pad_row)
    i.lv_obj_get_style_pad_row               0x0801d654   Section        0  lv_btnmatrix.o(i.lv_obj_get_style_pad_row)
    lv_obj_get_style_pad_row                 0x0801d655   Thumb Code    12  lv_btnmatrix.o(i.lv_obj_get_style_pad_row)
    i.lv_obj_get_style_pad_top               0x0801d660   Section        0  lv_obj_scroll.o(i.lv_obj_get_style_pad_top)
    lv_obj_get_style_pad_top                 0x0801d661   Thumb Code    12  lv_obj_scroll.o(i.lv_obj_get_style_pad_top)
    i.lv_obj_get_style_pad_top               0x0801d66c   Section        0  lv_arc.o(i.lv_obj_get_style_pad_top)
    lv_obj_get_style_pad_top                 0x0801d66d   Thumb Code    12  lv_arc.o(i.lv_obj_get_style_pad_top)
    i.lv_obj_get_style_pad_top               0x0801d678   Section        0  lv_bar.o(i.lv_obj_get_style_pad_top)
    lv_obj_get_style_pad_top                 0x0801d679   Thumb Code    12  lv_bar.o(i.lv_obj_get_style_pad_top)
    i.lv_obj_get_style_pad_top               0x0801d684   Section        0  lv_btnmatrix.o(i.lv_obj_get_style_pad_top)
    lv_obj_get_style_pad_top                 0x0801d685   Thumb Code    12  lv_btnmatrix.o(i.lv_obj_get_style_pad_top)
    i.lv_obj_get_style_pad_top               0x0801d690   Section        0  lv_chart.o(i.lv_obj_get_style_pad_top)
    lv_obj_get_style_pad_top                 0x0801d691   Thumb Code    12  lv_chart.o(i.lv_obj_get_style_pad_top)
    i.lv_obj_get_style_pad_top               0x0801d69c   Section        0  lv_checkbox.o(i.lv_obj_get_style_pad_top)
    lv_obj_get_style_pad_top                 0x0801d69d   Thumb Code    12  lv_checkbox.o(i.lv_obj_get_style_pad_top)
    i.lv_obj_get_style_pad_top               0x0801d6a8   Section        0  lv_colorwheel.o(i.lv_obj_get_style_pad_top)
    lv_obj_get_style_pad_top                 0x0801d6a9   Thumb Code    12  lv_colorwheel.o(i.lv_obj_get_style_pad_top)
    i.lv_obj_get_style_pad_top               0x0801d6b4   Section        0  lv_dropdown.o(i.lv_obj_get_style_pad_top)
    lv_obj_get_style_pad_top                 0x0801d6b5   Thumb Code    12  lv_dropdown.o(i.lv_obj_get_style_pad_top)
    i.lv_obj_get_style_pad_top               0x0801d6c0   Section        0  lv_slider.o(i.lv_obj_get_style_pad_top)
    lv_obj_get_style_pad_top                 0x0801d6c1   Thumb Code    12  lv_slider.o(i.lv_obj_get_style_pad_top)
    i.lv_obj_get_style_pad_top               0x0801d6cc   Section        0  lv_switch.o(i.lv_obj_get_style_pad_top)
    lv_obj_get_style_pad_top                 0x0801d6cd   Thumb Code    12  lv_switch.o(i.lv_obj_get_style_pad_top)
    i.lv_obj_get_style_pad_top               0x0801d6d8   Section        0  lv_table.o(i.lv_obj_get_style_pad_top)
    lv_obj_get_style_pad_top                 0x0801d6d9   Thumb Code    12  lv_table.o(i.lv_obj_get_style_pad_top)
    i.lv_obj_get_style_pad_top               0x0801d6e4   Section        0  lv_textarea.o(i.lv_obj_get_style_pad_top)
    lv_obj_get_style_pad_top                 0x0801d6e5   Thumb Code    12  lv_textarea.o(i.lv_obj_get_style_pad_top)
    i.lv_obj_get_style_prop                  0x0801d6f0   Section        0  lv_obj_style.o(i.lv_obj_get_style_prop)
    i.lv_obj_get_style_radius                0x0801d78c   Section        0  lv_obj.o(i.lv_obj_get_style_radius)
    lv_obj_get_style_radius                  0x0801d78d   Thumb Code    12  lv_obj.o(i.lv_obj_get_style_radius)
    i.lv_obj_get_style_shadow_ofs_x          0x0801d798   Section        0  lv_obj_draw.o(i.lv_obj_get_style_shadow_ofs_x)
    lv_obj_get_style_shadow_ofs_x            0x0801d799   Thumb Code    12  lv_obj_draw.o(i.lv_obj_get_style_shadow_ofs_x)
    i.lv_obj_get_style_shadow_ofs_y          0x0801d7a4   Section        0  lv_obj_draw.o(i.lv_obj_get_style_shadow_ofs_y)
    lv_obj_get_style_shadow_ofs_y            0x0801d7a5   Thumb Code    12  lv_obj_draw.o(i.lv_obj_get_style_shadow_ofs_y)
    i.lv_obj_get_style_shadow_opa            0x0801d7b0   Section        0  lv_obj_draw.o(i.lv_obj_get_style_shadow_opa)
    lv_obj_get_style_shadow_opa              0x0801d7b1   Thumb Code    12  lv_obj_draw.o(i.lv_obj_get_style_shadow_opa)
    i.lv_obj_get_style_shadow_spread         0x0801d7bc   Section        0  lv_obj_draw.o(i.lv_obj_get_style_shadow_spread)
    lv_obj_get_style_shadow_spread           0x0801d7bd   Thumb Code    12  lv_obj_draw.o(i.lv_obj_get_style_shadow_spread)
    i.lv_obj_get_style_shadow_width          0x0801d7c8   Section        0  lv_obj_draw.o(i.lv_obj_get_style_shadow_width)
    lv_obj_get_style_shadow_width            0x0801d7c9   Thumb Code    12  lv_obj_draw.o(i.lv_obj_get_style_shadow_width)
    i.lv_obj_get_style_space_bottom          0x0801d7d4   Section        0  lv_obj_pos.o(i.lv_obj_get_style_space_bottom)
    lv_obj_get_style_space_bottom            0x0801d7d5   Thumb Code    46  lv_obj_pos.o(i.lv_obj_get_style_space_bottom)
    i.lv_obj_get_style_space_bottom          0x0801d802   Section        0  lv_obj_scroll.o(i.lv_obj_get_style_space_bottom)
    lv_obj_get_style_space_bottom            0x0801d803   Thumb Code    44  lv_obj_scroll.o(i.lv_obj_get_style_space_bottom)
    i.lv_obj_get_style_space_left            0x0801d82e   Section        0  lv_obj_pos.o(i.lv_obj_get_style_space_left)
    lv_obj_get_style_space_left              0x0801d82f   Thumb Code    46  lv_obj_pos.o(i.lv_obj_get_style_space_left)
    i.lv_obj_get_style_space_left            0x0801d85c   Section        0  lv_obj_scroll.o(i.lv_obj_get_style_space_left)
    lv_obj_get_style_space_left              0x0801d85d   Thumb Code    44  lv_obj_scroll.o(i.lv_obj_get_style_space_left)
    i.lv_obj_get_style_space_right           0x0801d888   Section        0  lv_obj_pos.o(i.lv_obj_get_style_space_right)
    lv_obj_get_style_space_right             0x0801d889   Thumb Code    46  lv_obj_pos.o(i.lv_obj_get_style_space_right)
    i.lv_obj_get_style_space_right           0x0801d8b6   Section        0  lv_obj_scroll.o(i.lv_obj_get_style_space_right)
    lv_obj_get_style_space_right             0x0801d8b7   Thumb Code    44  lv_obj_scroll.o(i.lv_obj_get_style_space_right)
    i.lv_obj_get_style_space_top             0x0801d8e2   Section        0  lv_obj_pos.o(i.lv_obj_get_style_space_top)
    lv_obj_get_style_space_top               0x0801d8e3   Thumb Code    46  lv_obj_pos.o(i.lv_obj_get_style_space_top)
    i.lv_obj_get_style_space_top             0x0801d910   Section        0  lv_obj_scroll.o(i.lv_obj_get_style_space_top)
    lv_obj_get_style_space_top               0x0801d911   Thumb Code    44  lv_obj_scroll.o(i.lv_obj_get_style_space_top)
    i.lv_obj_get_style_text_color_filtered   0x0801d93c   Section        0  lv_obj_draw.o(i.lv_obj_get_style_text_color_filtered)
    lv_obj_get_style_text_color_filtered     0x0801d93d   Thumb Code    26  lv_obj_draw.o(i.lv_obj_get_style_text_color_filtered)
    i.lv_obj_get_style_text_font             0x0801d956   Section        0  lv_obj_draw.o(i.lv_obj_get_style_text_font)
    lv_obj_get_style_text_font               0x0801d957   Thumb Code     6  lv_obj_draw.o(i.lv_obj_get_style_text_font)
    i.lv_obj_get_style_text_font             0x0801d95c   Section        0  lv_checkbox.o(i.lv_obj_get_style_text_font)
    lv_obj_get_style_text_font               0x0801d95d   Thumb Code     6  lv_checkbox.o(i.lv_obj_get_style_text_font)
    i.lv_obj_get_style_text_font             0x0801d962   Section        0  lv_dropdown.o(i.lv_obj_get_style_text_font)
    lv_obj_get_style_text_font               0x0801d963   Thumb Code     6  lv_dropdown.o(i.lv_obj_get_style_text_font)
    i.lv_obj_get_style_text_font             0x0801d968   Section        0  lv_label.o(i.lv_obj_get_style_text_font)
    lv_obj_get_style_text_font               0x0801d969   Thumb Code     6  lv_label.o(i.lv_obj_get_style_text_font)
    i.lv_obj_get_style_text_font             0x0801d96e   Section        0  lv_msgbox.o(i.lv_obj_get_style_text_font)
    lv_obj_get_style_text_font               0x0801d96f   Thumb Code     6  lv_msgbox.o(i.lv_obj_get_style_text_font)
    i.lv_obj_get_style_text_font             0x0801d974   Section        0  lv_roller.o(i.lv_obj_get_style_text_font)
    lv_obj_get_style_text_font               0x0801d975   Thumb Code     6  lv_roller.o(i.lv_obj_get_style_text_font)
    i.lv_obj_get_style_text_font             0x0801d97a   Section        0  lv_table.o(i.lv_obj_get_style_text_font)
    lv_obj_get_style_text_font               0x0801d97b   Thumb Code     6  lv_table.o(i.lv_obj_get_style_text_font)
    i.lv_obj_get_style_text_font             0x0801d980   Section        0  lv_textarea.o(i.lv_obj_get_style_text_font)
    lv_obj_get_style_text_font               0x0801d981   Thumb Code     6  lv_textarea.o(i.lv_obj_get_style_text_font)
    i.lv_obj_get_style_text_letter_space     0x0801d986   Section        0  lv_checkbox.o(i.lv_obj_get_style_text_letter_space)
    lv_obj_get_style_text_letter_space       0x0801d987   Thumb Code    12  lv_checkbox.o(i.lv_obj_get_style_text_letter_space)
    i.lv_obj_get_style_text_letter_space     0x0801d992   Section        0  lv_label.o(i.lv_obj_get_style_text_letter_space)
    lv_obj_get_style_text_letter_space       0x0801d993   Thumb Code    12  lv_label.o(i.lv_obj_get_style_text_letter_space)
    i.lv_obj_get_style_text_letter_space     0x0801d99e   Section        0  lv_roller.o(i.lv_obj_get_style_text_letter_space)
    lv_obj_get_style_text_letter_space       0x0801d99f   Thumb Code    12  lv_roller.o(i.lv_obj_get_style_text_letter_space)
    i.lv_obj_get_style_text_letter_space     0x0801d9aa   Section        0  lv_table.o(i.lv_obj_get_style_text_letter_space)
    lv_obj_get_style_text_letter_space       0x0801d9ab   Thumb Code    12  lv_table.o(i.lv_obj_get_style_text_letter_space)
    i.lv_obj_get_style_text_line_space       0x0801d9b6   Section        0  lv_checkbox.o(i.lv_obj_get_style_text_line_space)
    lv_obj_get_style_text_line_space         0x0801d9b7   Thumb Code    12  lv_checkbox.o(i.lv_obj_get_style_text_line_space)
    i.lv_obj_get_style_text_line_space       0x0801d9c2   Section        0  lv_dropdown.o(i.lv_obj_get_style_text_line_space)
    lv_obj_get_style_text_line_space         0x0801d9c3   Thumb Code    12  lv_dropdown.o(i.lv_obj_get_style_text_line_space)
    i.lv_obj_get_style_text_line_space       0x0801d9ce   Section        0  lv_label.o(i.lv_obj_get_style_text_line_space)
    lv_obj_get_style_text_line_space         0x0801d9cf   Thumb Code    12  lv_label.o(i.lv_obj_get_style_text_line_space)
    i.lv_obj_get_style_text_line_space       0x0801d9da   Section        0  lv_roller.o(i.lv_obj_get_style_text_line_space)
    lv_obj_get_style_text_line_space         0x0801d9db   Thumb Code    12  lv_roller.o(i.lv_obj_get_style_text_line_space)
    i.lv_obj_get_style_text_line_space       0x0801d9e6   Section        0  lv_table.o(i.lv_obj_get_style_text_line_space)
    lv_obj_get_style_text_line_space         0x0801d9e7   Thumb Code    12  lv_table.o(i.lv_obj_get_style_text_line_space)
    i.lv_obj_get_style_text_line_space       0x0801d9f2   Section        0  lv_textarea.o(i.lv_obj_get_style_text_line_space)
    lv_obj_get_style_text_line_space         0x0801d9f3   Thumb Code    12  lv_textarea.o(i.lv_obj_get_style_text_line_space)
    i.lv_obj_get_style_transform_height      0x0801d9fe   Section        0  lv_obj.o(i.lv_obj_get_style_transform_height)
    lv_obj_get_style_transform_height        0x0801d9ff   Thumb Code    12  lv_obj.o(i.lv_obj_get_style_transform_height)
    i.lv_obj_get_style_transform_height      0x0801da0a   Section        0  lv_slider.o(i.lv_obj_get_style_transform_height)
    lv_obj_get_style_transform_height        0x0801da0b   Thumb Code    12  lv_slider.o(i.lv_obj_get_style_transform_height)
    i.lv_obj_get_style_transform_width       0x0801da16   Section        0  lv_obj.o(i.lv_obj_get_style_transform_width)
    lv_obj_get_style_transform_width         0x0801da17   Thumb Code    12  lv_obj.o(i.lv_obj_get_style_transform_width)
    i.lv_obj_get_style_transform_width       0x0801da22   Section        0  lv_slider.o(i.lv_obj_get_style_transform_width)
    lv_obj_get_style_transform_width         0x0801da23   Thumb Code    12  lv_slider.o(i.lv_obj_get_style_transform_width)
    i.lv_obj_get_style_width                 0x0801da2e   Section        0  lv_obj_pos.o(i.lv_obj_get_style_width)
    lv_obj_get_style_width                   0x0801da2f   Thumb Code    12  lv_obj_pos.o(i.lv_obj_get_style_width)
    i.lv_obj_get_style_width                 0x0801da3a   Section        0  lv_flex.o(i.lv_obj_get_style_width)
    lv_obj_get_style_width                   0x0801da3b   Thumb Code    12  lv_flex.o(i.lv_obj_get_style_width)
    i.lv_obj_get_style_width                 0x0801da46   Section        0  lv_grid.o(i.lv_obj_get_style_width)
    lv_obj_get_style_width                   0x0801da47   Thumb Code    12  lv_grid.o(i.lv_obj_get_style_width)
    i.lv_obj_get_style_width                 0x0801da52   Section        0  lv_chart.o(i.lv_obj_get_style_width)
    lv_obj_get_style_width                   0x0801da53   Thumb Code    12  lv_chart.o(i.lv_obj_get_style_width)
    i.lv_obj_get_style_width                 0x0801da5e   Section        0  lv_label.o(i.lv_obj_get_style_width)
    lv_obj_get_style_width                   0x0801da5f   Thumb Code    12  lv_label.o(i.lv_obj_get_style_width)
    i.lv_obj_get_style_x                     0x0801da6a   Section        0  lv_obj_pos.o(i.lv_obj_get_style_x)
    lv_obj_get_style_x                       0x0801da6b   Thumb Code    12  lv_obj_pos.o(i.lv_obj_get_style_x)
    i.lv_obj_get_style_y                     0x0801da76   Section        0  lv_obj_pos.o(i.lv_obj_get_style_y)
    lv_obj_get_style_y                       0x0801da77   Thumb Code    12  lv_obj_pos.o(i.lv_obj_get_style_y)
    i.lv_obj_get_transformed_area            0x0801da82   Section        0  lv_obj_pos.o(i.lv_obj_get_transformed_area)
    i.lv_obj_get_width                       0x0801dbe8   Section        0  lv_obj_pos.o(i.lv_obj_get_width)
    i.lv_obj_get_width_with_margin           0x0801dbf4   Section        0  lv_flex.o(i.lv_obj_get_width_with_margin)
    lv_obj_get_width_with_margin             0x0801dbf5   Thumb Code    34  lv_flex.o(i.lv_obj_get_width_with_margin)
    i.lv_obj_get_x                           0x0801dc16   Section        0  lv_obj_pos.o(i.lv_obj_get_x)
    i.lv_obj_get_y                           0x0801dc44   Section        0  lv_obj_pos.o(i.lv_obj_get_y)
    i.lv_obj_get_y2                          0x0801dc72   Section        0  lv_obj_pos.o(i.lv_obj_get_y2)
    i.lv_obj_has_flag                        0x0801dc88   Section        0  lv_obj.o(i.lv_obj_has_flag)
    i.lv_obj_has_flag_any                    0x0801dc96   Section        0  lv_obj.o(i.lv_obj_has_flag_any)
    i.lv_obj_init_draw_arc_dsc               0x0801dca0   Section        0  lv_obj_draw.o(i.lv_obj_init_draw_arc_dsc)
    i.lv_obj_init_draw_img_dsc               0x0801dd3e   Section        0  lv_obj_draw.o(i.lv_obj_init_draw_img_dsc)
    i.lv_obj_init_draw_label_dsc             0x0801dde0   Section        0  lv_obj_draw.o(i.lv_obj_init_draw_label_dsc)
    i.lv_obj_init_draw_line_dsc              0x0801de7c   Section        0  lv_obj_draw.o(i.lv_obj_init_draw_line_dsc)
    i.lv_obj_init_draw_rect_dsc              0x0801df34   Section        0  lv_obj_draw.o(i.lv_obj_init_draw_rect_dsc)
    i.lv_obj_invalidate                      0x0801e1c6   Section        0  lv_obj_pos.o(i.lv_obj_invalidate)
    i.lv_obj_invalidate_area                 0x0801e20c   Section        0  lv_obj_pos.o(i.lv_obj_invalidate_area)
    i.lv_obj_is_editable                     0x0801e240   Section        0  lv_obj_class.o(i.lv_obj_is_editable)
    i.lv_obj_is_group_def                    0x0801e25a   Section        0  lv_obj_class.o(i.lv_obj_is_group_def)
    i.lv_obj_is_layout_positioned            0x0801e278   Section        0  lv_obj_pos.o(i.lv_obj_is_layout_positioned)
    i.lv_obj_is_visible                      0x0801e2a4   Section        0  lv_obj_pos.o(i.lv_obj_is_visible)
    i.lv_obj_mark_layout_as_dirty            0x0801e2ea   Section        0  lv_obj_pos.o(i.lv_obj_mark_layout_as_dirty)
    i.lv_obj_move_children_by                0x0801e314   Section        0  lv_obj_pos.o(i.lv_obj_move_children_by)
    i.lv_obj_move_to                         0x0801e37a   Section        0  lv_obj_pos.o(i.lv_obj_move_to)
    i.lv_obj_move_to_index                   0x0801e474   Section        0  lv_obj_tree.o(i.lv_obj_move_to_index)
    i.lv_obj_readjust_scroll                 0x0801e4f8   Section        0  lv_obj_scroll.o(i.lv_obj_readjust_scroll)
    i.lv_obj_redraw                          0x0801e58a   Section        0  lv_refr.o(i.lv_obj_redraw)
    i.lv_obj_refr_pos                        0x0801e670   Section        0  lv_obj_pos.o(i.lv_obj_refr_pos)
    i.lv_obj_refr_size                       0x0801e828   Section        0  lv_obj_pos.o(i.lv_obj_refr_size)
    i.lv_obj_refresh_ext_draw_size           0x0801eae4   Section        0  lv_obj_draw.o(i.lv_obj_refresh_ext_draw_size)
    i.lv_obj_refresh_self_size               0x0801eb3c   Section        0  lv_obj_pos.o(i.lv_obj_refresh_self_size)
    i.lv_obj_refresh_style                   0x0801eb6c   Section        0  lv_obj_style.o(i.lv_obj_refresh_style)
    i.lv_obj_remove_local_style_prop         0x0801ecb8   Section        0  lv_obj_style.o(i.lv_obj_remove_local_style_prop)
    i.lv_obj_remove_style                    0x0801ed16   Section        0  lv_obj_style.o(i.lv_obj_remove_style)
    i.lv_obj_remove_style_all                0x0801ee14   Section        0  lv_obj_style.o(i.lv_obj_remove_style_all)
    i.lv_obj_report_style_change             0x0801ee20   Section        0  lv_obj_style.o(i.lv_obj_report_style_change)
    i.lv_obj_scroll_by                       0x0801ee58   Section        0  lv_obj_scroll.o(i.lv_obj_scroll_by)
    i.lv_obj_scroll_by_bounded               0x0801ef78   Section        0  lv_obj_scroll.o(i.lv_obj_scroll_by_bounded)
    i.lv_obj_scroll_to                       0x0801f05a   Section        0  lv_obj_scroll.o(i.lv_obj_scroll_to)
    i.lv_obj_scroll_to_view                  0x0801f076   Section        0  lv_obj_scroll.o(i.lv_obj_scroll_to_view)
    i.lv_obj_scroll_to_view_recursive        0x0801f094   Section        0  lv_obj_scroll.o(i.lv_obj_scroll_to_view_recursive)
    i.lv_obj_scroll_to_x                     0x0801f0cc   Section        0  lv_obj_scroll.o(i.lv_obj_scroll_to_x)
    i.lv_obj_scroll_to_y                     0x0801f0f8   Section        0  lv_obj_scroll.o(i.lv_obj_scroll_to_y)
    i.lv_obj_scrollbar_invalidate            0x0801f124   Section        0  lv_obj_scroll.o(i.lv_obj_scrollbar_invalidate)
    i.lv_obj_set_ext_click_area              0x0801f166   Section        0  lv_obj_pos.o(i.lv_obj_set_ext_click_area)
    i.lv_obj_set_flex_align                  0x0801f178   Section        0  lv_flex.o(i.lv_obj_set_flex_align)
    i.lv_obj_set_flex_flow                   0x0801f1b0   Section        0  lv_flex.o(i.lv_obj_set_flex_flow)
    i.lv_obj_set_flex_grow                   0x0801f1d0   Section        0  lv_flex.o(i.lv_obj_set_flex_grow)
    i.lv_obj_set_height                      0x0801f1e8   Section        0  lv_obj_pos.o(i.lv_obj_set_height)
    i.lv_obj_set_layout                      0x0801f214   Section        0  lv_obj_pos.o(i.lv_obj_set_layout)
    i.lv_obj_set_local_style_prop            0x0801f22a   Section        0  lv_obj_style.o(i.lv_obj_set_local_style_prop)
    i.lv_obj_set_parent                      0x0801f252   Section        0  lv_obj_tree.o(i.lv_obj_set_parent)
    i.lv_obj_set_pos                         0x0801f330   Section        0  lv_obj_pos.o(i.lv_obj_set_pos)
    i.lv_obj_set_scroll_dir                  0x0801f346   Section        0  lv_obj_scroll.o(i.lv_obj_set_scroll_dir)
    i.lv_obj_set_scroll_snap_x               0x0801f360   Section        0  lv_obj_scroll.o(i.lv_obj_set_scroll_snap_x)
    i.lv_obj_set_scroll_snap_y               0x0801f376   Section        0  lv_obj_scroll.o(i.lv_obj_set_scroll_snap_y)
    i.lv_obj_set_scrollbar_mode              0x0801f38c   Section        0  lv_obj_scroll.o(i.lv_obj_set_scrollbar_mode)
    i.lv_obj_set_size                        0x0801f3b4   Section        0  lv_obj_pos.o(i.lv_obj_set_size)
    i.lv_obj_set_state                       0x0801f3cc   Section        0  lv_obj.o(i.lv_obj_set_state)
    lv_obj_set_state                         0x0801f3cd   Thumb Code   434  lv_obj.o(i.lv_obj_set_state)
    i.lv_obj_set_style_align                 0x0801f57e   Section        0  lv_obj_style_gen.o(i.lv_obj_set_style_align)
    i.lv_obj_set_style_anim_time             0x0801f588   Section        0  lv_obj_style_gen.o(i.lv_obj_set_style_anim_time)
    i.lv_obj_set_style_base_dir              0x0801f592   Section        0  lv_obj_style_gen.o(i.lv_obj_set_style_base_dir)
    i.lv_obj_set_style_bg_img_src            0x0801f59c   Section        0  lv_obj_style_gen.o(i.lv_obj_set_style_bg_img_src)
    i.lv_obj_set_style_flex_cross_place      0x0801f5a8   Section        0  lv_flex.o(i.lv_obj_set_style_flex_cross_place)
    i.lv_obj_set_style_flex_flow             0x0801f5b8   Section        0  lv_flex.o(i.lv_obj_set_style_flex_flow)
    i.lv_obj_set_style_flex_grow             0x0801f5c8   Section        0  lv_flex.o(i.lv_obj_set_style_flex_grow)
    i.lv_obj_set_style_flex_main_place       0x0801f5d8   Section        0  lv_flex.o(i.lv_obj_set_style_flex_main_place)
    i.lv_obj_set_style_flex_track_place      0x0801f5e8   Section        0  lv_flex.o(i.lv_obj_set_style_flex_track_place)
    i.lv_obj_set_style_height                0x0801f5f8   Section        0  lv_obj_style_gen.o(i.lv_obj_set_style_height)
    i.lv_obj_set_style_layout                0x0801f602   Section        0  lv_obj_style_gen.o(i.lv_obj_set_style_layout)
    i.lv_obj_set_style_max_width             0x0801f60c   Section        0  lv_obj_style_gen.o(i.lv_obj_set_style_max_width)
    i.lv_obj_set_style_min_width             0x0801f616   Section        0  lv_obj_style_gen.o(i.lv_obj_set_style_min_width)
    i.lv_obj_set_style_text_align            0x0801f620   Section        0  lv_obj_style_gen.o(i.lv_obj_set_style_text_align)
    i.lv_obj_set_style_width                 0x0801f62a   Section        0  lv_obj_style_gen.o(i.lv_obj_set_style_width)
    i.lv_obj_set_style_x                     0x0801f634   Section        0  lv_obj_style_gen.o(i.lv_obj_set_style_x)
    i.lv_obj_set_style_y                     0x0801f63e   Section        0  lv_obj_style_gen.o(i.lv_obj_set_style_y)
    i.lv_obj_set_tile                        0x0801f648   Section        0  lv_tileview.o(i.lv_obj_set_tile)
    i.lv_obj_set_tile_id                     0x0801f67e   Section        0  lv_tileview.o(i.lv_obj_set_tile_id)
    i.lv_obj_set_width                       0x0801f6e4   Section        0  lv_obj_pos.o(i.lv_obj_set_width)
    i.lv_obj_set_x                           0x0801f710   Section        0  lv_obj_pos.o(i.lv_obj_set_x)
    i.lv_obj_set_y                           0x0801f73c   Section        0  lv_obj_pos.o(i.lv_obj_set_y)
    i.lv_obj_style_get_selector_part         0x0801f768   Section        0  lv_obj_style.o(i.lv_obj_style_get_selector_part)
    i.lv_obj_style_get_selector_state        0x0801f76e   Section        0  lv_obj_style.o(i.lv_obj_style_get_selector_state)
    i.lv_obj_transform_point                 0x0801f772   Section        0  lv_obj_pos.o(i.lv_obj_transform_point)
    i.lv_obj_update_layout                   0x0801f7d0   Section        0  lv_obj_pos.o(i.lv_obj_update_layout)
    i.lv_palette_darken                      0x0801f804   Section        0  lv_color.o(i.lv_palette_darken)
    i.lv_palette_lighten                     0x0801f834   Section        0  lv_color.o(i.lv_palette_lighten)
    i.lv_palette_main                        0x0801f868   Section        0  lv_color.o(i.lv_palette_main)
    i.lv_pct                                 0x0801f888   Section        0  lv_msgbox.o(i.lv_pct)
    lv_pct                                   0x0801f889   Thumb Code    16  lv_msgbox.o(i.lv_pct)
    i.lv_pct                                 0x0801f898   Section        0  lv_textarea.o(i.lv_pct)
    lv_pct                                   0x0801f899   Thumb Code    16  lv_textarea.o(i.lv_pct)
    i.lv_point_transform                     0x0801f8a8   Section        0  lv_area.o(i.lv_point_transform)
    i.lv_point_within_circle                 0x0801f9e8   Section        0  lv_area.o(i.lv_point_within_circle)
    lv_point_within_circle                   0x0801f9e9   Thumb Code    56  lv_area.o(i.lv_point_within_circle)
    i.lv_port_disp_init                      0x0801fa20   Section        0  lv_port_disp.o(i.lv_port_disp_init)
    i.lv_pow                                 0x0801fa64   Section        0  lv_math.o(i.lv_pow)
    i.lv_realloc                             0x0801fa98   Section        0  lv_mem.o(i.lv_realloc)
    i.lv_realloc_builtin                     0x0801fac0   Section        0  lv_malloc_builtin.o(i.lv_realloc_builtin)
    i.lv_refr_get_top_obj                    0x0801fad0   Section        0  lv_refr.o(i.lv_refr_get_top_obj)
    lv_refr_get_top_obj                      0x0801fad1   Thumb Code   120  lv_refr.o(i.lv_refr_get_top_obj)
    i.lv_refr_join_area                      0x0801fb48   Section        0  lv_refr.o(i.lv_refr_join_area)
    lv_refr_join_area                        0x0801fb49   Thumb Code   188  lv_refr.o(i.lv_refr_join_area)
    i.lv_roller_constructor                  0x0801fc08   Section        0  lv_roller.o(i.lv_roller_constructor)
    lv_roller_constructor                    0x0801fc09   Thumb Code    68  lv_roller.o(i.lv_roller_constructor)
    i.lv_roller_create                       0x0801fc80   Section        0  lv_roller.o(i.lv_roller_create)
    i.lv_roller_event                        0x0801fc98   Section        0  lv_roller.o(i.lv_roller_event)
    lv_roller_event                          0x0801fc99   Thumb Code   354  lv_roller.o(i.lv_roller_event)
    i.lv_roller_label_event                  0x0801fe04   Section        0  lv_roller.o(i.lv_roller_label_event)
    lv_roller_label_event                    0x0801fe05   Thumb Code   116  lv_roller.o(i.lv_roller_label_event)
    i.lv_roller_set_options                  0x0801fe7c   Section        0  lv_roller.o(i.lv_roller_set_options)
    i.lv_roller_set_selected                 0x0801ffa0   Section        0  lv_roller.o(i.lv_roller_set_selected)
    i.lv_scr_act                             0x0801fffc   Section        0  lv_demo_stress.o(i.lv_scr_act)
    lv_scr_act                               0x0801fffd   Thumb Code    14  lv_demo_stress.o(i.lv_scr_act)
    i.lv_slider_constructor                  0x0802000a   Section        0  lv_slider.o(i.lv_slider_constructor)
    lv_slider_constructor                    0x0802000b   Thumb Code    88  lv_slider.o(i.lv_slider_constructor)
    i.lv_slider_create                       0x08020064   Section        0  lv_slider.o(i.lv_slider_create)
    i.lv_slider_event                        0x0802007c   Section        0  lv_slider.o(i.lv_slider_event)
    lv_slider_event                          0x0802007d   Thumb Code   782  lv_slider.o(i.lv_slider_event)
    i.lv_slider_get_mode                     0x08020390   Section        0  lv_slider.o(i.lv_slider_get_mode)
    lv_slider_get_mode                       0x08020391   Thumb Code    18  lv_slider.o(i.lv_slider_get_mode)
    i.lv_snprintf_builtin                    0x080203a4   Section        0  lv_printf.o(i.lv_snprintf_builtin)
    i.lv_spinbox_constructor                 0x080203c4   Section        0  lv_spinbox.o(i.lv_spinbox_constructor)
